{
  "contractName": "Coinflip",
  "abi": [
    {
      "anonymous": false,
      "inputs": [
        {
          "indexed": false,
          "internalType": "uint256",
          "name": "result",
          "type": "uint256"
        },
        {
          "indexed": false,
          "internalType": "uint256",
          "name": "winnings",
          "type": "uint256"
        }
      ],
      "name": "coinflipResult",
      "type": "event"
    },
    {
      "anonymous": false,
      "inputs": [
        {
          "indexed": false,
          "internalType": "uint256",
          "name": "randomNumber",
          "type": "uint256"
        }
      ],
      "name": "generatedRandomNumber",
      "type": "event"
    },
    {
      "anonymous": false,
      "inputs": [
        {
          "indexed": false,
          "internalType": "uint256",
          "name": "toTransfer",
          "type": "uint256"
        }
      ],
      "name": "hasBeenWithdrawn",
      "type": "event"
    },
    {
      "anonymous": false,
      "inputs": [
        {
          "indexed": false,
          "internalType": "string",
          "name": "message",
          "type": "string"
        }
      ],
      "name": "logNewProvableQuery",
      "type": "event"
    },
    {
      "anonymous": false,
      "inputs": [
        {
          "indexed": false,
          "internalType": "string",
          "name": "message",
          "type": "string"
        }
      ],
      "name": "logNewQueryResponse",
      "type": "event"
    },
    {
      "anonymous": false,
      "inputs": [
        {
          "indexed": false,
          "internalType": "string",
          "name": "message",
          "type": "string"
        }
      ],
      "name": "newPayoutInitiated",
      "type": "event"
    },
    {
      "anonymous": false,
      "inputs": [
        {
          "indexed": false,
          "internalType": "string",
          "name": "message",
          "type": "string"
        }
      ],
      "name": "playerCreated",
      "type": "event"
    },
    {
      "anonymous": false,
      "inputs": [
        {
          "indexed": false,
          "internalType": "string",
          "name": "message",
          "type": "string"
        }
      ],
      "name": "playerQueryUpdate",
      "type": "event"
    },
    {
      "anonymous": false,
      "inputs": [
        {
          "indexed": false,
          "internalType": "uint256",
          "name": "lastResult",
          "type": "uint256"
        },
        {
          "indexed": false,
          "internalType": "uint256",
          "name": "lastWin",
          "type": "uint256"
        },
        {
          "indexed": false,
          "internalType": "uint256",
          "name": "totalWin",
          "type": "uint256"
        },
        {
          "indexed": false,
          "internalType": "uint256",
          "name": "totalPlay",
          "type": "uint256"
        },
        {
          "indexed": false,
          "internalType": "uint256",
          "name": "totalWon",
          "type": "uint256"
        }
      ],
      "name": "playerUpdated",
      "type": "event"
    },
    {
      "anonymous": false,
      "inputs": [
        {
          "indexed": false,
          "internalType": "uint256",
          "name": "res",
          "type": "uint256"
        }
      ],
      "name": "showResult",
      "type": "event"
    },
    {
      "anonymous": false,
      "inputs": [
        {
          "indexed": false,
          "internalType": "string",
          "name": "message",
          "type": "string"
        }
      ],
      "name": "uncoughtException",
      "type": "event"
    },
    {
      "constant": true,
      "inputs": [],
      "name": "owner",
      "outputs": [
        {
          "internalType": "address",
          "name": "",
          "type": "address"
        }
      ],
      "payable": false,
      "stateMutability": "view",
      "type": "function"
    },
    {
      "constant": true,
      "inputs": [],
      "name": "getPlayer",
      "outputs": [
        {
          "internalType": "uint256",
          "name": "lastResult",
          "type": "uint256"
        },
        {
          "internalType": "uint256",
          "name": "lastWin",
          "type": "uint256"
        },
        {
          "internalType": "uint256",
          "name": "totalWin",
          "type": "uint256"
        },
        {
          "internalType": "uint256",
          "name": "totalPlay",
          "type": "uint256"
        },
        {
          "internalType": "uint256",
          "name": "totalWon",
          "type": "uint256"
        }
      ],
      "payable": false,
      "stateMutability": "view",
      "type": "function"
    },
    {
      "constant": false,
      "inputs": [
        {
          "internalType": "bytes32",
          "name": "_myid",
          "type": "bytes32"
        },
        {
          "internalType": "string",
          "name": "_result",
          "type": "string"
        }
      ],
      "name": "__callback",
      "outputs": [],
      "payable": false,
      "stateMutability": "nonpayable",
      "type": "function"
    },
    {
      "constant": false,
      "inputs": [
        {
          "internalType": "bytes32",
          "name": "_queryId",
          "type": "bytes32"
        },
        {
          "internalType": "string",
          "name": "_result",
          "type": "string"
        },
        {
          "internalType": "bytes",
          "name": "_proof",
          "type": "bytes"
        }
      ],
      "name": "__callback",
      "outputs": [],
      "payable": false,
      "stateMutability": "nonpayable",
      "type": "function"
    },
    {
      "constant": false,
      "inputs": [],
      "name": "coinFlip",
      "outputs": [],
      "payable": true,
      "stateMutability": "payable",
      "type": "function"
    },
    {
      "constant": false,
      "inputs": [],
      "name": "depositeBalance",
      "outputs": [
        {
          "internalType": "uint256",
          "name": "",
          "type": "uint256"
        }
      ],
      "payable": true,
      "stateMutability": "payable",
      "type": "function"
    },
    {
      "constant": false,
      "inputs": [],
      "name": "withdrawAll",
      "outputs": [
        {
          "internalType": "uint256",
          "name": "",
          "type": "uint256"
        }
      ],
      "payable": true,
      "stateMutability": "payable",
      "type": "function"
    },
    {
      "constant": false,
      "inputs": [
        {
          "internalType": "uint256",
          "name": "_amount",
          "type": "uint256"
        }
      ],
      "name": "withdrawAmount",
      "outputs": [
        {
          "internalType": "uint256",
          "name": "",
          "type": "uint256"
        }
      ],
      "payable": true,
      "stateMutability": "payable",
      "type": "function"
    },
    {
      "constant": true,
      "inputs": [],
      "name": "getBalance",
      "outputs": [
        {
          "internalType": "uint256",
          "name": "",
          "type": "uint256"
        }
      ],
      "payable": false,
      "stateMutability": "view",
      "type": "function"
    },
    {
      "constant": true,
      "inputs": [],
      "name": "isQueryPending",
      "outputs": [
        {
          "internalType": "uint256",
          "name": "",
          "type": "uint256"
        }
      ],
      "payable": false,
      "stateMutability": "view",
      "type": "function"
    }
  ],
  "bytecode": "0x6080604052336000806101000a81548173ffffffffffffffffffffffffffffffffffffffff021916908373ffffffffffffffffffffffffffffffffffffffff160217905550613682806100536000396000f3fe6080604052600436106100915760003560e01c806338bbfa501161005957806338bbfa501461024757806340462b5b146103b05780635ac947cb146103ce578063853828b6146103d85780638da5cb5b146103f657610091565b80630562b9f71461009657806312065fe0146100d857806327dc297e146101035780633308f42d146101d557806337a4cb951461021c575b600080fd5b6100c2600480360360208110156100ac57600080fd5b810190808035906020019092919050505061044d565b6040518082815260200191505060405180910390f35b3480156100e457600080fd5b506100ed610594565b6040518082815260200191505060405180910390f35b34801561010f57600080fd5b506101d36004803603604081101561012657600080fd5b81019080803590602001909291908035906020019064010000000081111561014d57600080fd5b82018360208201111561015f57600080fd5b8035906020019184600183028401116401000000008311171561018157600080fd5b91908080601f016020809104026020016040519081016040528093929190818152602001838380828437600081840152601f19601f82011690508083019250505050505050919291929050505061059e565b005b3480156101e157600080fd5b506101ea6105e1565b604051808681526020018581526020018481526020018381526020018281526020019550505050505060405180910390f35b34801561022857600080fd5b5061023161074e565b6040518082815260200191505060405180910390f35b34801561025357600080fd5b506103ae6004803603606081101561026a57600080fd5b81019080803590602001909291908035906020019064010000000081111561029157600080fd5b8201836020820111156102a357600080fd5b803590602001918460018302840111640100000000831117156102c557600080fd5b91908080601f016020809104026020016040519081016040528093929190818152602001838380828437600081840152601f19601f8201169050808301925050505050505091929192908035906020019064010000000081111561032857600080fd5b82018360208201111561033a57600080fd5b8035906020019184600183028401116401000000008311171561035c57600080fd5b91908080601f016020809104026020016040519081016040528093929190818152602001838380828437600081840152601f19601f8201169050808301925050505050505091929192905050506107b4565b005b6103b8610b54565b6040518082815260200191505060405180910390f35b6103d6610bc6565b005b6103e0610d2e565b6040518082815260200191505060405180910390f35b34801561040257600080fd5b5061040b610e1d565b604051808273ffffffffffffffffffffffffffffffffffffffff1673ffffffffffffffffffffffffffffffffffffffff16815260200191505060405180910390f35b60008060009054906101000a900473ffffffffffffffffffffffffffffffffffffffff1673ffffffffffffffffffffffffffffffffffffffff163373ffffffffffffffffffffffffffffffffffffffff16146104a857600080fd5b600654821115610503576040517f08c379a00000000000000000000000000000000000000000000000000000000081526004018080602001828103825260278152602001806135fa6027913960400191505060405180910390fd5b81600654036006819055503373ffffffffffffffffffffffffffffffffffffffff166108fc839081150290604051600060405180830381858888f19350505050158015610554573d6000803e3d6000fd5b507f7b69a3f83ed37f0277c8f1c570ca1f7e8bdf5e23b6a371f8d21b0266b7e280dc826040518082815260200191505060405180910390a1819050919050565b6000600654905090565b6105dd828260006040519080825280601f01601f1916602001820160405280156105d75781602001600182028038833980820191505090505b506107b4565b5050565b600080600080600080339050600760008273ffffffffffffffffffffffffffffffffffffffff1673ffffffffffffffffffffffffffffffffffffffff16815260200190815260200160002060040154600760008373ffffffffffffffffffffffffffffffffffffffff1673ffffffffffffffffffffffffffffffffffffffff16815260200190815260200160002060050154600760008473ffffffffffffffffffffffffffffffffffffffff1673ffffffffffffffffffffffffffffffffffffffff16815260200190815260200160002060060154600760008573ffffffffffffffffffffffffffffffffffffffff1673ffffffffffffffffffffffffffffffffffffffff16815260200190815260200160002060070154600760008673ffffffffffffffffffffffffffffffffffffffff1673ffffffffffffffffffffffffffffffffffffffff1681526020019081526020016000206008015495509550955095509550509091929394565b6000803390506000801b600760008373ffffffffffffffffffffffffffffffffffffffff1673ffffffffffffffffffffffffffffffffffffffff1681526020019081526020016000206001015414156107ab5760009150506107b1565b60019150505b90565b6107bc610e42565b73ffffffffffffffffffffffffffffffffffffffff163373ffffffffffffffffffffffffffffffffffffffff16146107f357600080fd5b60006008600085815260200190815260200160002060009054906101000a900473ffffffffffffffffffffffffffffffffffffffff1690507fe80e89978b593ab4072e6ca63de1dcd5e2e982a30ed2c2e68b056a496237ed4a6040518080602001828103825260178152602001807f517565727920726573706f6e736520726563656976656400000000000000000081525060200191505060405180910390a160006002846040516020018082805190602001908083835b602083106108ce57805182526020820191506020810190506020830392506108ab565b6001836020036101000a0380198251168184511680821785525050505050509050019150506040516020818303038152906040528051906020012060001c8161091357fe5b069050610924826000801b83611162565b6000806000849050600084141561098f5760009150600760008673ffffffffffffffffffffffffffffffffffffffff1673ffffffffffffffffffffffffffffffffffffffff168152602001908152602001600020600301546006540160068190555060009250610aca565b6001841415610a7d5760019150600760008673ffffffffffffffffffffffffffffffffffffffff1673ffffffffffffffffffffffffffffffffffffffff168152602001908152602001600020600301546002029250600760008673ffffffffffffffffffffffffffffffffffffffff1673ffffffffffffffffffffffffffffffffffffffff16815260200190815260200160002060030154600654036006819055508073ffffffffffffffffffffffffffffffffffffffff166108fc849081150290604051600060405180830381858888f19350505050158015610a77573d6000803e3d6000fd5b50610ac9565b7fd62c4431442a1e9b9872b398bb104c4e56bffa7ec85d0a8d7723320c78dc198360405180806020018281038252602d815260200180613621602d913960400191505060405180910390a15b5b610ad482846112af565b7fd68951acaf929d326631a5e35cb48f783ecddfd2cf58ddfe59b5b2ac35e3b2918484604051808381526020018281526020019250505060405180910390a17fc13d60fe9dffdb6908d2d446cd18134373a51db0738ee04f296eeb9128121cbc846040518082815260200191505060405180910390a15050505050505050565b60008060009054906101000a900473ffffffffffffffffffffffffffffffffffffffff1673ffffffffffffffffffffffffffffffffffffffff163373ffffffffffffffffffffffffffffffffffffffff1614610baf57600080fd5b600034600654019050806006819055508091505090565b60003490506000339050600654341115610c48576040517f08c379a000000000000000000000000000000000000000000000000000000000815260040180806020018281038252601d8152602001807f496e73756666696369656e7420636f6e74726163742062616c616e636500000081525060200191505060405180910390fd5b6000801b600760008373ffffffffffffffffffffffffffffffffffffffff1673ffffffffffffffffffffffffffffffffffffffff1681526020019081526020016000206001015414610d02576040517f08c379a00000000000000000000000000000000000000000000000000000000081526004018080602001828103825260168152602001807f43757272656e7420726573756c742070656e64696e670000000000000000000081525060200191505060405180910390fd5b610d0a6115d9565b15610d1857610d1761163e565b5b610d22818361177b565b610d2a6117c6565b5050565b60008060009054906101000a900473ffffffffffffffffffffffffffffffffffffffff1673ffffffffffffffffffffffffffffffffffffffff163373ffffffffffffffffffffffffffffffffffffffff1614610d8957600080fd5b6000600654905060006006819055503373ffffffffffffffffffffffffffffffffffffffff166108fc829081150290604051600060405180830381858888f19350505050158015610dde573d6000803e3d6000fd5b507f7b69a3f83ed37f0277c8f1c570ca1f7e8bdf5e23b6a371f8d21b0266b7e280dc816040518082815260200191505060405180910390a18091505090565b6000809054906101000a900473ffffffffffffffffffffffffffffffffffffffff1681565b60008073ffffffffffffffffffffffffffffffffffffffff16600260009054906101000a900473ffffffffffffffffffffffffffffffffffffffff1673ffffffffffffffffffffffffffffffffffffffff161480610eca57506000610ec8600260009054906101000a900473ffffffffffffffffffffffffffffffffffffffff16611850565b145b15610edb57610ed9600061185b565b505b600260009054906101000a900473ffffffffffffffffffffffffffffffffffffffff1673ffffffffffffffffffffffffffffffffffffffff166338cc48316040518163ffffffff1660e01b8152600401602060405180830381600087803b158015610f4557600080fd5b505af1158015610f59573d6000803e3d6000fd5b505050506040513d6020811015610f6f57600080fd5b810190808051906020019092919050505073ffffffffffffffffffffffffffffffffffffffff16600160009054906101000a900473ffffffffffffffffffffffffffffffffffffffff1673ffffffffffffffffffffffffffffffffffffffff16146110ba57600260009054906101000a900473ffffffffffffffffffffffffffffffffffffffff1673ffffffffffffffffffffffffffffffffffffffff166338cc48316040518163ffffffff1660e01b8152600401602060405180830381600087803b15801561103e57600080fd5b505af1158015611052573d6000803e3d6000fd5b505050506040513d602081101561106857600080fd5b8101908080519060200190929190505050600160006101000a81548173ffffffffffffffffffffffffffffffffffffffff021916908373ffffffffffffffffffffffffffffffffffffffff1602179055505b600160009054906101000a900473ffffffffffffffffffffffffffffffffffffffff1673ffffffffffffffffffffffffffffffffffffffff1663c281d19e6040518163ffffffff1660e01b815260040160206040518083038186803b15801561112257600080fd5b505afa158015611136573d6000803e3d6000fd5b505050506040513d602081101561114c57600080fd5b8101908080519060200190929190505050905090565b826008600084815260200190815260200160002060006101000a81548173ffffffffffffffffffffffffffffffffffffffff021916908373ffffffffffffffffffffffffffffffffffffffff16021790555081600760008573ffffffffffffffffffffffffffffffffffffffff1673ffffffffffffffffffffffffffffffffffffffff1681526020019081526020016000206001018190555080600760008573ffffffffffffffffffffffffffffffffffffffff1673ffffffffffffffffffffffffffffffffffffffff168152602001908152602001600020600201819055507fb3a497502c339b7c91a10dcf9aef53509ee253bbe392f047ee3eef859cede28e6040518080602001828103825260148152602001807f506c61796572207175657279207570646174656400000000000000000000000081525060200191505060405180910390a1505050565b600033905082600760008373ffffffffffffffffffffffffffffffffffffffff1673ffffffffffffffffffffffffffffffffffffffff1681526020019081526020016000206004018190555081600760008373ffffffffffffffffffffffffffffffffffffffff1673ffffffffffffffffffffffffffffffffffffffff1681526020019081526020016000206005018190555082600760008373ffffffffffffffffffffffffffffffffffffffff1673ffffffffffffffffffffffffffffffffffffffff168152602001908152602001600020600601600082825401925050819055506001600760008373ffffffffffffffffffffffffffffffffffffffff1673ffffffffffffffffffffffffffffffffffffffff1681526020019081526020016000206007016000828254019250508190555081600760008373ffffffffffffffffffffffffffffffffffffffff1673ffffffffffffffffffffffffffffffffffffffff168152602001908152602001600020600801600082825401925050819055507f0d78e9af98d447f99fdeb1cb6c3d05b5414b1dc699bff636ae63523d3f28ce4a600760008373ffffffffffffffffffffffffffffffffffffffff1673ffffffffffffffffffffffffffffffffffffffff16815260200190815260200160002060040154600760008473ffffffffffffffffffffffffffffffffffffffff1673ffffffffffffffffffffffffffffffffffffffff16815260200190815260200160002060050154600760008573ffffffffffffffffffffffffffffffffffffffff1673ffffffffffffffffffffffffffffffffffffffff16815260200190815260200160002060060154600760008673ffffffffffffffffffffffffffffffffffffffff1673ffffffffffffffffffffffffffffffffffffffff16815260200190815260200160002060070154600760008773ffffffffffffffffffffffffffffffffffffffff1673ffffffffffffffffffffffffffffffffffffffff16815260200190815260200160002060080154604051808681526020018581526020018481526020018381526020018281526020019550505050505060405180910390a1505050565b6000803390506000600760008373ffffffffffffffffffffffffffffffffffffffff1673ffffffffffffffffffffffffffffffffffffffff16815260200190815260200160002060000154146116325760009150611637565b600191505b8191505090565b611646613498565b60018160000181815250506000801b8160200181815250506000816040018181525050600081606001818152505060008160a001818152505060008160c001818152505060008160e00181815250506000816101000181815250506116aa8161186c565b60093390806001815401808255809150509060018203906000526020600020016000909192909190916101000a81548173ffffffffffffffffffffffffffffffffffffffff021916908373ffffffffffffffffffffffffffffffffffffffff160217905550507f3a3a2024ad24695510ed865ae6c90c126dd5ea7173c8dd02f2dc75e13c2b6ab16040518080602001828103825260128152602001807f4e657720506c617965722063726561746564000000000000000000000000000081525060200191505060405180910390a150565b80600760008473ffffffffffffffffffffffffffffffffffffffff1673ffffffffffffffffffffffffffffffffffffffff168152602001908152602001600020600301819055505050565b600033905060008090506000621e8480905060006117e683600184611913565b90506117f484826064611162565b81600654036006819055507f94f2559b5e2b297de3db1587daf2352e872ada3dad01dab9ee3733592fa22ed360405180806020018281038252602c8152602001806135ce602c913960400191505060405180910390a150505050565b6000813b9050919050565b6000611865611eae565b9050919050565b600033905081600760008373ffffffffffffffffffffffffffffffffffffffff1673ffffffffffffffffffffffffffffffffffffffff168152602001908152602001600020600082015181600001556020820151816001015560408201518160020155606082015181600301556080820151816004015560a0820151816005015560c0820151816006015560e0820151816007015561010082015181600801559050505050565b60008083118015611925575060208311155b61192e57600080fd5b600a84029350606060016040519080825280601f01601f19166020018201604052801561196a5781602001600182028038833980820191505090505b5090508360f81b8160008151811061197e57fe5b60200101907effffffffffffffffffffffffffffffffffffffffffffffffffffffffffffff1916908160001a905350606060206040519080825280601f01601f1916602001820160405280156119e35781602001600182028038833980820191505090505b509050606060206040519080825280601f01601f191660200182016040528015611a1c5781602001600182028038833980820191505090505b5090506000611a29612405565b905060208352424118600143034018602084015260208252806020830152606060206040519080825280601f01601f191660200182016040528015611a7d5781602001600182028038833980820191505090505b509050886020820152606060086040519080825280601f01601f191660200182016040528015611abc5781602001600182028038833980820191505090505b509050611acf8260186008846000612725565b50611ad86134e7565b60405180608001604052808781526020018881526020018681526020018481525090506000611b3d6040518060400160405280600681526020017f72616e646f6d0000000000000000000000000000000000000000000000000000815250838c612784565b9050606060086040519080825280601f01601f191660200182016040528015611b755781602001600182028038833980820191505090505b50905060208401517f0100000000000000000000000000000000000000000000000000000000000000810460278301537e01000000000000000000000000000000000000000000000000000000000000810460268301537d010000000000000000000000000000000000000000000000000000000000810460258301537c0100000000000000000000000000000000000000000000000000000000810460248301537b01000000000000000000000000000000000000000000000000000000810460238301537a010000000000000000000000000000000000000000000000000000810460228301537901000000000000000000000000000000000000000000000000008104602183015378010000000000000000000000000000000000000000000000008104602083015350611e9b828285600160048110611cb457fe5b6020020151600287600060048110611cc857fe5b60200201516040518082805190602001908083835b60208310611d005780518252602082019150602081019050602083039250611cdd565b6001836020036101000a038019825116818451168082178552505050505050905001915050602060405180830381855afa158015611d42573d6000803e3d6000fd5b5050506040513d6020811015611d5757600080fd5b810190808051906020019092919050505087600260048110611d7557fe5b60200201516040516020018085805190602001908083835b60208310611db05780518252602082019150602081019050602083039250611d8d565b6001836020036101000a03801982511681845116808217855250505050505090500184805190602001908083835b60208310611e015780518252602082019150602081019050602083039250611dde565b6001836020036101000a03801982511681845116808217855250505050505090500183815260200182805190602001908083835b60208310611e585780518252602082019150602081019050602083039250611e35565b6001836020036101000a03801982511681845116808217855250505050505090500194505050505060405160208183030381529060405280519060200120612af3565b8199505050505050505050509392505050565b600080611ece731d3b2638a7cc9f2cb3d298a3da7a90b67e5506ed611850565b1115611f7057731d3b2638a7cc9f2cb3d298a3da7a90b67e5506ed600260006101000a81548173ffffffffffffffffffffffffffffffffffffffff021916908373ffffffffffffffffffffffffffffffffffffffff160217905550611f676040518060400160405280600b81526020017f6574685f6d61696e6e6574000000000000000000000000000000000000000000815250612b0f565b60019050612402565b6000611f8f73c03a2615d5efaf5f49f60b7bb6583eaec212fdf1611850565b11156120315773c03a2615d5efaf5f49f60b7bb6583eaec212fdf1600260006101000a81548173ffffffffffffffffffffffffffffffffffffffff021916908373ffffffffffffffffffffffffffffffffffffffff1602179055506120286040518060400160405280600c81526020017f6574685f726f707374656e330000000000000000000000000000000000000000815250612b0f565b60019050612402565b600061205073b7a07bcf2ba2f2703b24c0691b5278999c59ac7e611850565b11156120f25773b7a07bcf2ba2f2703b24c0691b5278999c59ac7e600260006101000a81548173ffffffffffffffffffffffffffffffffffffffff021916908373ffffffffffffffffffffffffffffffffffffffff1602179055506120e96040518060400160405280600981526020017f6574685f6b6f76616e0000000000000000000000000000000000000000000000815250612b0f565b60019050612402565b600061211173146500cfd35b22e4a392fe0adc06de1a1368ed48611850565b11156121b35773146500cfd35b22e4a392fe0adc06de1a1368ed48600260006101000a81548173ffffffffffffffffffffffffffffffffffffffff021916908373ffffffffffffffffffffffffffffffffffffffff1602179055506121aa6040518060400160405280600b81526020017f6574685f72696e6b656279000000000000000000000000000000000000000000815250612b0f565b60019050612402565b60006121d273a2998efd205fb9d4b4963afb70778d6354ad3a41611850565b11156122745773a2998efd205fb9d4b4963afb70778d6354ad3a41600260006101000a81548173ffffffffffffffffffffffffffffffffffffffff021916908373ffffffffffffffffffffffffffffffffffffffff16021790555061226b6040518060400160405280600a81526020017f6574685f676f65726c6900000000000000000000000000000000000000000000815250612b0f565b60019050612402565b6000612293736f485c8bf6fc43ea212e93bbf8ce046c7f1cb475611850565b11156122f757736f485c8bf6fc43ea212e93bbf8ce046c7f1cb475600260006101000a81548173ffffffffffffffffffffffffffffffffffffffff021916908373ffffffffffffffffffffffffffffffffffffffff16021790555060019050612402565b60006123167320e12a1f859b3feae5fb2a0a32c18f5a65555bbf611850565b111561237a577320e12a1f859b3feae5fb2a0a32c18f5a65555bbf600260006101000a81548173ffffffffffffffffffffffffffffffffffffffff021916908373ffffffffffffffffffffffffffffffffffffffff16021790555060019050612402565b60006123997351efaf4c8b3c9afbd5ab9f4bbc82784ab6ef8faa611850565b11156123fd577351efaf4c8b3c9afbd5ab9f4bbc82784ab6ef8faa600260006101000a81548173ffffffffffffffffffffffffffffffffffffffff021916908373ffffffffffffffffffffffffffffffffffffffff16021790555060019050612402565b600090505b90565b60008073ffffffffffffffffffffffffffffffffffffffff16600260009054906101000a900473ffffffffffffffffffffffffffffffffffffffff1673ffffffffffffffffffffffffffffffffffffffff16148061248d5750600061248b600260009054906101000a900473ffffffffffffffffffffffffffffffffffffffff16611850565b145b1561249e5761249c600061185b565b505b600260009054906101000a900473ffffffffffffffffffffffffffffffffffffffff1673ffffffffffffffffffffffffffffffffffffffff166338cc48316040518163ffffffff1660e01b8152600401602060405180830381600087803b15801561250857600080fd5b505af115801561251c573d6000803e3d6000fd5b505050506040513d602081101561253257600080fd5b810190808051906020019092919050505073ffffffffffffffffffffffffffffffffffffffff16600160009054906101000a900473ffffffffffffffffffffffffffffffffffffffff1673ffffffffffffffffffffffffffffffffffffffff161461267d57600260009054906101000a900473ffffffffffffffffffffffffffffffffffffffff1673ffffffffffffffffffffffffffffffffffffffff166338cc48316040518163ffffffff1660e01b8152600401602060405180830381600087803b15801561260157600080fd5b505af1158015612615573d6000803e3d6000fd5b505050506040513d602081101561262b57600080fd5b8101908080519060200190929190505050600160006101000a81548173ffffffffffffffffffffffffffffffffffffffff021916908373ffffffffffffffffffffffffffffffffffffffff1602179055505b600160009054906101000a900473ffffffffffffffffffffffffffffffffffffffff1673ffffffffffffffffffffffffffffffffffffffff1663abaa5f3e6040518163ffffffff1660e01b815260040160206040518083038186803b1580156126e557600080fd5b505afa1580156126f9573d6000803e3d6000fd5b505050506040513d602081101561270f57600080fd5b8101908080519060200190929190505050905090565b606060008285019050808451101561273c57600080fd5b600086602001905060008460200190505b868860200101821015612775578189015180828801525060208201915060208101905061274d565b85935050505095945050505050565b60008073ffffffffffffffffffffffffffffffffffffffff16600260009054906101000a900473ffffffffffffffffffffffffffffffffffffffff1673ffffffffffffffffffffffffffffffffffffffff16148061280c5750600061280a600260009054906101000a900473ffffffffffffffffffffffffffffffffffffffff16611850565b145b1561281d5761281b600061185b565b505b600260009054906101000a900473ffffffffffffffffffffffffffffffffffffffff1673ffffffffffffffffffffffffffffffffffffffff166338cc48316040518163ffffffff1660e01b8152600401602060405180830381600087803b15801561288757600080fd5b505af115801561289b573d6000803e3d6000fd5b505050506040513d60208110156128b157600080fd5b810190808051906020019092919050505073ffffffffffffffffffffffffffffffffffffffff16600160009054906101000a900473ffffffffffffffffffffffffffffffffffffffff1673ffffffffffffffffffffffffffffffffffffffff16146129fc57600260009054906101000a900473ffffffffffffffffffffffffffffffffffffffff1673ffffffffffffffffffffffffffffffffffffffff166338cc48316040518163ffffffff1660e01b8152600401602060405180830381600087803b15801561298057600080fd5b505af1158015612994573d6000803e3d6000fd5b505050506040513d60208110156129aa57600080fd5b8101908080519060200190929190505050600160006101000a81548173ffffffffffffffffffffffffffffffffffffffff021916908373ffffffffffffffffffffffffffffffffffffffff1602179055505b60606004604051908082528060200260200182016040528015612a3357816020015b6060815260200190600190039081612a1e5790505b50905083600060048110612a4357fe5b602002015181600081518110612a5557fe5b602002602001018190525083600160048110612a6d57fe5b602002015181600181518110612a7f57fe5b602002602001018190525083600260048110612a9757fe5b602002015181600281518110612aa957fe5b602002602001018190525083600360048110612ac157fe5b602002015181600381518110612ad357fe5b6020026020010181905250612ae9858285612b29565b9150509392505050565b8060046000848152602001908152602001600020819055505050565b8060039080519060200190612b2592919061350e565b5050565b60008073ffffffffffffffffffffffffffffffffffffffff16600260009054906101000a900473ffffffffffffffffffffffffffffffffffffffff1673ffffffffffffffffffffffffffffffffffffffff161480612bb157506000612baf600260009054906101000a900473ffffffffffffffffffffffffffffffffffffffff16611850565b145b15612bc257612bc0600061185b565b505b600260009054906101000a900473ffffffffffffffffffffffffffffffffffffffff1673ffffffffffffffffffffffffffffffffffffffff166338cc48316040518163ffffffff1660e01b8152600401602060405180830381600087803b158015612c2c57600080fd5b505af1158015612c40573d6000803e3d6000fd5b505050506040513d6020811015612c5657600080fd5b810190808051906020019092919050505073ffffffffffffffffffffffffffffffffffffffff16600160009054906101000a900473ffffffffffffffffffffffffffffffffffffffff1673ffffffffffffffffffffffffffffffffffffffff1614612da157600260009054906101000a900473ffffffffffffffffffffffffffffffffffffffff1673ffffffffffffffffffffffffffffffffffffffff166338cc48316040518163ffffffff1660e01b8152600401602060405180830381600087803b158015612d2557600080fd5b505af1158015612d39573d6000803e3d6000fd5b505050506040513d6020811015612d4f57600080fd5b8101908080519060200190929190505050600160006101000a81548173ffffffffffffffffffffffffffffffffffffffff021916908373ffffffffffffffffffffffffffffffffffffffff1602179055505b6000600160009054906101000a900473ffffffffffffffffffffffffffffffffffffffff1673ffffffffffffffffffffffffffffffffffffffff16632ef3accc86856040518363ffffffff1660e01b81526004018080602001838152602001828103825284818151815260200191508051906020019080838360005b83811015612e38578082015181840152602081019050612e1d565b50505050905090810190601f168015612e655780820380516001836020036101000a031916815260200191505b509350505050602060405180830381600087803b158015612e8557600080fd5b505af1158015612e99573d6000803e3d6000fd5b505050506040513d6020811015612eaf57600080fd5b81019080805190602001909291905050509050823a02670de0b6b3a764000001811115612ee2576000801b915050613088565b6060612eed8561308f565b9050600160009054906101000a900473ffffffffffffffffffffffffffffffffffffffff1673ffffffffffffffffffffffffffffffffffffffff1663c55c1cb68360008985896040518663ffffffff1660e01b8152600401808581526020018060200180602001848152602001838103835286818151815260200191508051906020019080838360005b83811015612f92578082015181840152602081019050612f77565b50505050905090810190601f168015612fbf5780820380516001836020036101000a031916815260200191505b50838103825285818151815260200191508051906020019080838360005b83811015612ff8578082015181840152602081019050612fdd565b50505050905090810190601f1680156130255780820380516001836020036101000a031916815260200191505b5096505050505050506020604051808303818588803b15801561304757600080fd5b505af115801561305b573d6000803e3d6000fd5b50505050506040513d602081101561307257600080fd5b8101908080519060200190929190505050925050505b9392505050565b606061309961310f565b6130a161358e565b6130ad8161040061311b565b6130b681613165565b60008090505b83518110156130f8576130eb8482815181106130d457fe5b60200260200101518361317390919063ffffffff16565b80806001019150506130bc565b5061310281613198565b8060000151915050919050565b60405180590338823950565b600081905060006020828161312c57fe5b0614613145576020818161313c57fe5b06602003810190505b808360200181815250506040518084526000815281810160405250505050565b6131708160046131a6565b50565b61318082600283516131c7565b613193818361330790919063ffffffff16565b505050565b6131a38160076131a6565b50565b6131c3601f60058360ff16901b17836133b290919063ffffffff16565b5050565b601781116131f3576131ee8160058460ff16901b60ff1617846133b290919063ffffffff16565b613302565b60ff811161323457613218601860058460ff16901b17846133b290919063ffffffff16565b61322e816001856133f29092919063ffffffff16565b50613301565b61ffff81116132765761325a601960058460ff16901b17846133b290919063ffffffff16565b613270816002856133f29092919063ffffffff16565b50613300565b63ffffffff81116132ba5761329e601a60058460ff16901b17846133b290919063ffffffff16565b6132b4816004856133f29092919063ffffffff16565b506132ff565b67ffffffffffffffff81116132fe576132e6601b60058460ff16901b17846133b290919063ffffffff16565b6132fc816008856133f29092919063ffffffff16565b505b5b5b5b5b505050565b61330f61358e565b8260200151836000015151835101111561333f5761333e83600261333886602001518651613459565b02613475565b5b60008060008451905085518051602081830101945086518101825260208701935050505b602081106133865781518352602083019250602082019150602081039050613363565b60006001826020036101000a039050801983511681855116818117865250508694505050505092915050565b816020015160018360000151510111156133d8576133d7826002846020015102613475565b5b815180516020818301018381536001820183525050505050565b6133fa61358e565b83602001518460000151518301111561342857613427846002613421876020015186613459565b02613475565b5b60006001836101000a0390508451805184818301018684198251161781528582018352505050849150509392505050565b60008183111561346b5782905061346f565b8190505b92915050565b606082600001519050613488838361311b565b6134928382613307565b50505050565b6040518061012001604052806000815260200160008019168152602001600081526020016000815260200160008152602001600081526020016000815260200160008152602001600081525090565b60405180608001604052806004905b60608152602001906001900390816134f65790505090565b828054600181600116156101000203166002900490600052602060002090601f016020900481019282601f1061354f57805160ff191683800117855561357d565b8280016001018555821561357d579182015b8281111561357c578251825591602001919060010190613561565b5b50905061358a91906135a8565b5090565b604051806040016040528060608152602001600081525090565b6135ca91905b808211156135c65760008160009055506001016135ae565b5090565b9056fe50726f7661626c652071756572792073656e742c2077616974696e6720666f7220726573706f6e73652e2e2e52657175657374656420616d6f756e74206578656564732063757272656e742062616c616e636552616e646f6d204e756d626572206e6f742075706461746564202d20524553554c54204e4f542031204f522030a265627a7a72315820f8c6fff57a1cb42e9f2afe89b9aea5b143797fb188b8e877ee2410cdd226081a64736f6c634300050c0032",
  "source": "import \"./Ownable.sol\";\r\nimport \"./provableAPI.sol\";\r\npragma solidity 0.5.12;\r\n\r\ncontract Coinflip is Ownable, usingProvable{\r\n\r\n  struct Player{\r\n    uint id;\r\n    bytes32 queryId;\r\n    uint lastRandomNumber;\r\n    uint lastBetValue;\r\n    uint lastResult;\r\n    uint lastWin;\r\n    uint totalWin;\r\n    uint totalPlay;\r\n    uint totalWon;\r\n  }\r\n\r\n  event coinflipResult(uint result, uint winnings);\r\n  event uncoughtException(string message);\r\n  event hasBeenWithdrawn(uint toTransfer);\r\n  event playerCreated(string message);\r\n  event playerUpdated(uint lastResult, uint lastWin, uint totalWin, uint totalPlay, uint totalWon);\r\n  event playerQueryUpdate(string message);\r\n  event generatedRandomNumber(uint randomNumber);\r\n  event logNewProvableQuery(string message);\r\n  event logNewQueryResponse(string message);\r\n  event newPayoutInitiated(string message);\r\n  event showResult(uint res);\r\n\r\n  uint private balance;\r\n  mapping (address => Player) private player;\r\n  mapping (bytes32 => address) private queries;\r\n  address[] private players;\r\n  uint constant NUM_RANDOM_BYTES_REQUESTED = 1;\r\n\r\n  function createPlayer() private{\r\n    Player memory newPlayer;\r\n    newPlayer.id = 1;\r\n    newPlayer.queryId = 0;\r\n    newPlayer.lastRandomNumber = 0;\r\n    newPlayer.lastBetValue = 0;\r\n    newPlayer.lastWin = 0;\r\n    newPlayer.totalWin = 0;\r\n    newPlayer.totalPlay = 0;\r\n    newPlayer.totalWon = 0;\r\n\r\n    insertPlayer(newPlayer);\r\n    players.push(msg.sender);\r\n\r\n    emit playerCreated(\"New Player created\");\r\n  }\r\n\r\n  function insertPlayer(Player memory _newPlayer) private{\r\n    address creator = msg.sender;\r\n    player[creator] = _newPlayer;\r\n  }\r\n\r\n  function getPlayer() public view returns(uint lastResult, uint lastWin, uint totalWin, uint totalPlay, uint totalWon){\r\n    address creator = msg.sender;\r\n    return (player[creator].lastResult, player[creator].lastWin, player[creator].totalWin, player[creator].totalPlay, player[creator].totalWon);\r\n  }\r\n\r\n  function updatePlayer(uint _lastResult, uint _lastWin) private {\r\n    address _creator = msg.sender;\r\n    player[_creator].lastResult = _lastResult;\r\n    player[_creator].lastWin = _lastWin;\r\n    player[_creator].totalWin += _lastResult;\r\n    player[_creator].totalPlay += 1;\r\n    player[_creator].totalWon += _lastWin;\r\n    emit playerUpdated(player[_creator].lastResult, player[_creator].lastWin, player[_creator].totalWin, player[_creator].totalPlay, player[_creator].totalWon);\r\n  }\r\n\r\n  function updatePlayerQuery(address _creator, bytes32 _queryId, uint _randomNumber) private {\r\n    queries[_queryId] = _creator;\r\n    player[_creator].queryId = _queryId;\r\n    player[_creator].lastRandomNumber = _randomNumber;\r\n    emit playerQueryUpdate(\"Player query updated\");\r\n  }\r\n\r\n  function updateBetValue(address _creator, uint _betValue) private{\r\n    player[_creator].lastBetValue = _betValue;\r\n  }\r\n\r\n\r\n  function playerNotExists() private view returns (bool exists){\r\n    address creator = msg.sender;\r\n    if (player[creator].id != 0){\r\n      exists = false;\r\n    }\r\n    else{\r\n      exists = true;\r\n    }\r\n    return exists;\r\n  }\r\n\r\n  /*function random() private view returns(uint result){\r\n    uint res = block.timestamp % 2;\r\n    return res;\r\n  }*/\r\n\r\n  function __callback(bytes32 _queryId, string memory _result, bytes memory _proof) public {\r\n    require(msg.sender == provable_cbAddress());\r\n    address creator = queries[_queryId];\r\n\r\n    emit logNewQueryResponse(\"Query response received\");\r\n\r\n    uint randomNumber = uint(keccak256(abi.encodePacked(_result))) % 2;\r\n    updatePlayerQuery(creator, 0, randomNumber);\r\n    // payout(creator);\r\n    uint winnings;\r\n    uint winner;\r\n    address payable payCreator = address(uint160(creator));\r\n\r\n    if(randomNumber == 0){\r\n      winner = 0;\r\n      balance = balance + player[creator].lastBetValue;\r\n      winnings = 0;\r\n    }\r\n    else if(randomNumber == 1){\r\n      winner = 1;\r\n      winnings = 2* player[creator].lastBetValue;\r\n      balance = balance - player[creator].lastBetValue;\r\n      payCreator.transfer(winnings);\r\n    }\r\n    else{\r\n      emit uncoughtException(\"Random Number not updated - RESULT NOT 1 OR 0\");\r\n    }\r\n    updatePlayer(winner, winnings);\r\n    emit coinflipResult(randomNumber, winnings);\r\n\r\n    emit generatedRandomNumber(randomNumber);\r\n  }\r\n\r\n  function oracleRandom() private {\r\n    address creator = msg.sender;\r\n    uint QUERY_EXECUTION_DELAY = 0;\r\n    uint GAS_FOR_CALLBACK = 2000000;\r\n    bytes32 queryId = provable_newRandomDSQuery( QUERY_EXECUTION_DELAY, NUM_RANDOM_BYTES_REQUESTED, GAS_FOR_CALLBACK);\r\n    updatePlayerQuery(creator, queryId, 100);\r\n    balance = balance - GAS_FOR_CALLBACK;\r\n    emit logNewProvableQuery(\"Provable query sent, waiting for response...\");\r\n  }\r\n\r\n\r\n  function coinFlip() payable public{\r\n    uint bet_value = msg.value;\r\n    address creator = msg.sender;\r\n    //uint winnings;\r\n    //uint winner;\r\n    require(msg.value <= balance, \"Insufficient contract balance\");\r\n    require(player[creator].queryId == 0, \"Current result pending\");\r\n\r\n    if (playerNotExists()){\r\n      createPlayer();\r\n    }\r\n\r\n    updateBetValue(creator, bet_value);\r\n\r\n    oracleRandom();\r\n\r\n    //uint res = random();\r\n    //uint res = block.timestamp % 2;\r\n    /*if(res == 0){\r\n      winner = 0;\r\n      balance = balance + bet_value;\r\n      winnings = 0;\r\n      emit coinflipResult(res, winnings);\r\n    }\r\n    else if(res == 1){\r\n      winner = 1;\r\n      winnings = 2* bet_value;\r\n      balance = balance - bet_value;\r\n      msg.sender.transfer(winnings);\r\n      emit coinflipResult(res, winnings);\r\n    }\r\n    else{\r\n      emit uncoughtException(1);\r\n    }\r\n    updatePlayer(winner, winnings);\r\n    return (winner, winnings);\r\n    */\r\n  }\r\n\r\n  /* function payout(address _creator) private{\r\n    uint winnings;\r\n    uint winner;\r\n    address payable payCreator = address(uint160(_creator));\r\n    require(player[_creator].queryId == 0, \"No payout, query still pending\");\r\n\r\n    uint res = player[_creator].lastRandomNumber;\r\n    emit newPayoutInitiated(\"Payout initiated with resutl\");\r\n    emit showResult(res);\r\n\r\n    if(res == 0){\r\n      winner = 0;\r\n      balance = balance + player[_creator].lastBetValue;\r\n      winnings = 0;\r\n    }\r\n    else if(res == 1){\r\n      winner = 1;\r\n      winnings = 2* player[_creator].lastBetValue;\r\n      balance = balance - player[_creator].lastBetValue;\r\n      payCreator.transfer(winnings);\r\n    }\r\n    else{\r\n      emit uncoughtException(\"Random Number not updated - RESULT NOT 1 OR 0\");\r\n    }\r\n    updatePlayer(winner, winnings);\r\n    emit coinflipResult(res, winnings);\r\n  } */\r\n\r\n  function depositeBalance() public onlyOwner payable returns(uint) {\r\n      uint newBalance = balance + msg.value;\r\n      balance = newBalance;\r\n      return newBalance;\r\n  }\r\n\r\n  function withdrawAll() public onlyOwner payable returns(uint) {\r\n      uint toTransfer = balance;\r\n      balance = 0;\r\n      msg.sender.transfer(toTransfer);\r\n      emit hasBeenWithdrawn(toTransfer);\r\n      return toTransfer;\r\n  }\r\n\r\n  function withdrawAmount(uint _amount) public onlyOwner payable returns(uint) {\r\n      require(_amount <= balance, \"Requested amount exeeds current balance\");\r\n      balance = balance - _amount;\r\n      msg.sender.transfer(_amount);\r\n      emit hasBeenWithdrawn(_amount);\r\n      return _amount;\r\n  }\r\n\r\n  function getBalance() public view returns(uint){\r\n    return balance;\r\n  }\r\n\r\n  function isQueryPending() public view returns(uint){\r\n    address creator = msg.sender;\r\n    if(player[creator].queryId == 0){\r\n      return 0;\r\n    }\r\n    else{\r\n      return 1;\r\n    }\r\n  }\r\n\r\n}\r\n",
  "sourcePath": "D:\\Blockchain_Programming\\Solidity_201\\Coinflip\\contract\\contracts\\coinflip.sol",
  "compiler": {
    "name": "solc",
    "version": "0.5.12+commit.7709ece9.Emscripten.clang"
  },
  "schemaVersion": "3.0.23",
  "updatedAt": "2020-11-14T18:34:19.753Z",
  "networkType": "ethereum",
  "devdoc": {
    "methods": {
      "__callback(bytes32,string)": {
        "details": "The following `__callback` functions are just placeholders ideally     meant to be defined in child contract when proofs are used.     The function bodies simply silence compiler warnings."
      }
    }
  },
  "userdoc": {
    "methods": {}
  }
}