{
  "contractName": "Coinflip",
  "abi": [
    {
      "anonymous": false,
      "inputs": [
        {
          "indexed": false,
          "internalType": "uint256",
          "name": "result",
          "type": "uint256"
        },
        {
          "indexed": false,
          "internalType": "uint256",
          "name": "winnings",
          "type": "uint256"
        }
      ],
      "name": "coinflipResult",
      "type": "event"
    },
    {
      "anonymous": false,
      "inputs": [
        {
          "indexed": false,
          "internalType": "uint256",
          "name": "toTransfer",
          "type": "uint256"
        }
      ],
      "name": "hasBeenWithdrawn",
      "type": "event"
    },
    {
      "anonymous": false,
      "inputs": [
        {
          "indexed": false,
          "internalType": "string",
          "name": "message",
          "type": "string"
        }
      ],
      "name": "playerCreated",
      "type": "event"
    },
    {
      "anonymous": false,
      "inputs": [
        {
          "indexed": false,
          "internalType": "uint256",
          "name": "lastResult",
          "type": "uint256"
        },
        {
          "indexed": false,
          "internalType": "uint256",
          "name": "lastWin",
          "type": "uint256"
        },
        {
          "indexed": false,
          "internalType": "uint256",
          "name": "totalWin",
          "type": "uint256"
        },
        {
          "indexed": false,
          "internalType": "uint256",
          "name": "totalPlay",
          "type": "uint256"
        },
        {
          "indexed": false,
          "internalType": "uint256",
          "name": "totalWon",
          "type": "uint256"
        }
      ],
      "name": "playerUpdated",
      "type": "event"
    },
    {
      "anonymous": false,
      "inputs": [
        {
          "indexed": false,
          "internalType": "uint256",
          "name": "step",
          "type": "uint256"
        }
      ],
      "name": "uncoughtException",
      "type": "event"
    },
    {
      "constant": true,
      "inputs": [],
      "name": "owner",
      "outputs": [
        {
          "internalType": "address",
          "name": "",
          "type": "address"
        }
      ],
      "payable": false,
      "stateMutability": "view",
      "type": "function"
    },
    {
      "constant": true,
      "inputs": [],
      "name": "getPlayer",
      "outputs": [
        {
          "internalType": "uint256",
          "name": "lastResult",
          "type": "uint256"
        },
        {
          "internalType": "uint256",
          "name": "lastWin",
          "type": "uint256"
        },
        {
          "internalType": "uint256",
          "name": "totalWin",
          "type": "uint256"
        },
        {
          "internalType": "uint256",
          "name": "totalPlay",
          "type": "uint256"
        },
        {
          "internalType": "uint256",
          "name": "totalWon",
          "type": "uint256"
        }
      ],
      "payable": false,
      "stateMutability": "view",
      "type": "function"
    },
    {
      "constant": true,
      "inputs": [],
      "name": "playerNotExists",
      "outputs": [
        {
          "internalType": "bool",
          "name": "exists",
          "type": "bool"
        }
      ],
      "payable": false,
      "stateMutability": "view",
      "type": "function"
    },
    {
      "constant": false,
      "inputs": [],
      "name": "coinFlip",
      "outputs": [
        {
          "internalType": "uint256",
          "name": "won",
          "type": "uint256"
        },
        {
          "internalType": "uint256",
          "name": "win",
          "type": "uint256"
        }
      ],
      "payable": true,
      "stateMutability": "payable",
      "type": "function"
    },
    {
      "constant": false,
      "inputs": [],
      "name": "depositeBalance",
      "outputs": [
        {
          "internalType": "uint256",
          "name": "",
          "type": "uint256"
        }
      ],
      "payable": true,
      "stateMutability": "payable",
      "type": "function"
    },
    {
      "constant": false,
      "inputs": [],
      "name": "withdrawAll",
      "outputs": [
        {
          "internalType": "uint256",
          "name": "",
          "type": "uint256"
        }
      ],
      "payable": true,
      "stateMutability": "payable",
      "type": "function"
    },
    {
      "constant": false,
      "inputs": [
        {
          "internalType": "uint256",
          "name": "amount",
          "type": "uint256"
        }
      ],
      "name": "withdrawAmount",
      "outputs": [
        {
          "internalType": "uint256",
          "name": "",
          "type": "uint256"
        }
      ],
      "payable": true,
      "stateMutability": "payable",
      "type": "function"
    },
    {
      "constant": true,
      "inputs": [],
      "name": "getBalance",
      "outputs": [
        {
          "internalType": "uint256",
          "name": "",
          "type": "uint256"
        }
      ],
      "payable": false,
      "stateMutability": "view",
      "type": "function"
    }
  ],
  "bytecode": "0x6080604052336000806101000a81548173ffffffffffffffffffffffffffffffffffffffff021916908373ffffffffffffffffffffffffffffffffffffffff160217905550610e38806100536000396000f3fe60806040526004361061007b5760003560e01c806340462b5b1161004e57806340462b5b146101635780635ac947cb14610181578063853828b6146101a65780638da5cb5b146101c45761007b565b80630562b9f71461008057806312065fe0146100c25780632912d039146100ed5780633308f42d1461011c575b600080fd5b6100ac6004803603602081101561009657600080fd5b810190808035906020019092919050505061021b565b6040518082815260200191505060405180910390f35b3480156100ce57600080fd5b506100d7610362565b6040518082815260200191505060405180910390f35b3480156100f957600080fd5b5061010261036c565b604051808215151515815260200191505060405180910390f35b34801561012857600080fd5b506101316103d1565b604051808681526020018581526020018481526020018381526020018281526020019550505050505060405180910390f35b61016b61053e565b6040518082815260200191505060405180910390f35b6101896105b0565b604051808381526020018281526020019250505060405180910390f35b6101ae6107b0565b6040518082815260200191505060405180910390f35b3480156101d057600080fd5b506101d961089f565b604051808273ffffffffffffffffffffffffffffffffffffffff1673ffffffffffffffffffffffffffffffffffffffff16815260200191505060405180910390f35b60008060009054906101000a900473ffffffffffffffffffffffffffffffffffffffff1673ffffffffffffffffffffffffffffffffffffffff163373ffffffffffffffffffffffffffffffffffffffff161461027657600080fd5b6001548211156102d1576040517f08c379a0000000000000000000000000000000000000000000000000000000008152600401808060200182810382526027815260200180610ddd6027913960400191505060405180910390fd5b81600154036001819055503373ffffffffffffffffffffffffffffffffffffffff166108fc839081150290604051600060405180830381858888f19350505050158015610322573d6000803e3d6000fd5b507f7b69a3f83ed37f0277c8f1c570ca1f7e8bdf5e23b6a371f8d21b0266b7e280dc826040518082815260200191505060405180910390a1819050919050565b6000600154905090565b6000803390506000600260008373ffffffffffffffffffffffffffffffffffffffff1673ffffffffffffffffffffffffffffffffffffffff16815260200190815260200160002060000154146103c557600091506103ca565b600191505b8191505090565b600080600080600080339050600260008273ffffffffffffffffffffffffffffffffffffffff1673ffffffffffffffffffffffffffffffffffffffff16815260200190815260200160002060010154600260008373ffffffffffffffffffffffffffffffffffffffff1673ffffffffffffffffffffffffffffffffffffffff16815260200190815260200160002060020154600260008473ffffffffffffffffffffffffffffffffffffffff1673ffffffffffffffffffffffffffffffffffffffff16815260200190815260200160002060030154600260008573ffffffffffffffffffffffffffffffffffffffff1673ffffffffffffffffffffffffffffffffffffffff16815260200190815260200160002060040154600260008673ffffffffffffffffffffffffffffffffffffffff1673ffffffffffffffffffffffffffffffffffffffff1681526020019081526020016000206005015495509550955095509550509091929394565b60008060009054906101000a900473ffffffffffffffffffffffffffffffffffffffff1673ffffffffffffffffffffffffffffffffffffffff163373ffffffffffffffffffffffffffffffffffffffff161461059957600080fd5b600034600154019050806001819055508091505090565b6000806000349050600080600154341115610633576040517f08c379a000000000000000000000000000000000000000000000000000000000815260040180806020018281038252601d8152602001807f496e73756666696369656e7420636f6e74726163742062616c616e636500000081525060200191505060405180910390fd5b61063b61036c565b15610649576106486108c4565b5b60006106536109dd565b905060008114156106b557600091508360015401600181905550600092507fd68951acaf929d326631a5e35cb48f783ecddfd2cf58ddfe59b5b2ac35e3b2918184604051808381526020018281526020019250505060405180910390a1610798565b600181141561075e576001915083600202925083600154036001819055503373ffffffffffffffffffffffffffffffffffffffff166108fc849081150290604051600060405180830381858888f19350505050158015610719573d6000803e3d6000fd5b507fd68951acaf929d326631a5e35cb48f783ecddfd2cf58ddfe59b5b2ac35e3b2918184604051808381526020018281526020019250505060405180910390a1610797565b7f115e6b4f3671451b71c870703b05cf29979c45dbe4e199c019fa5fe99411380b60016040518082815260200191505060405180910390a15b5b6107a282846109f4565b818395509550505050509091565b60008060009054906101000a900473ffffffffffffffffffffffffffffffffffffffff1673ffffffffffffffffffffffffffffffffffffffff163373ffffffffffffffffffffffffffffffffffffffff161461080b57600080fd5b6000600154905060006001819055503373ffffffffffffffffffffffffffffffffffffffff166108fc829081150290604051600060405180830381858888f19350505050158015610860573d6000803e3d6000fd5b507f7b69a3f83ed37f0277c8f1c570ca1f7e8bdf5e23b6a371f8d21b0266b7e280dc816040518082815260200191505060405180910390a18091505090565b6000809054906101000a900473ffffffffffffffffffffffffffffffffffffffff1681565b6108cc610da6565b600181600001818152505060008160400181815250506000816060018181525050600081608001818152505060008160a001818152505061090c81610d1e565b60033390806001815401808255809150509060018203906000526020600020016000909192909190916101000a81548173ffffffffffffffffffffffffffffffffffffffff021916908373ffffffffffffffffffffffffffffffffffffffff160217905550507f3a3a2024ad24695510ed865ae6c90c126dd5ea7173c8dd02f2dc75e13c2b6ab16040518080602001828103825260128152602001807f4e657720506c617965722063726561746564000000000000000000000000000081525060200191505060405180910390a150565b600080600242816109ea57fe5b0690508091505090565b600033905082600260008373ffffffffffffffffffffffffffffffffffffffff1673ffffffffffffffffffffffffffffffffffffffff1681526020019081526020016000206001018190555081600260008373ffffffffffffffffffffffffffffffffffffffff1673ffffffffffffffffffffffffffffffffffffffff1681526020019081526020016000206002018190555082600260008373ffffffffffffffffffffffffffffffffffffffff1673ffffffffffffffffffffffffffffffffffffffff168152602001908152602001600020600301600082825401925050819055506001600260008373ffffffffffffffffffffffffffffffffffffffff1673ffffffffffffffffffffffffffffffffffffffff1681526020019081526020016000206004016000828254019250508190555081600260008373ffffffffffffffffffffffffffffffffffffffff1673ffffffffffffffffffffffffffffffffffffffff168152602001908152602001600020600501600082825401925050819055507f0d78e9af98d447f99fdeb1cb6c3d05b5414b1dc699bff636ae63523d3f28ce4a600260008373ffffffffffffffffffffffffffffffffffffffff1673ffffffffffffffffffffffffffffffffffffffff16815260200190815260200160002060010154600260008473ffffffffffffffffffffffffffffffffffffffff1673ffffffffffffffffffffffffffffffffffffffff16815260200190815260200160002060020154600260008573ffffffffffffffffffffffffffffffffffffffff1673ffffffffffffffffffffffffffffffffffffffff16815260200190815260200160002060030154600260008673ffffffffffffffffffffffffffffffffffffffff1673ffffffffffffffffffffffffffffffffffffffff16815260200190815260200160002060040154600260008773ffffffffffffffffffffffffffffffffffffffff1673ffffffffffffffffffffffffffffffffffffffff16815260200190815260200160002060050154604051808681526020018581526020018481526020018381526020018281526020019550505050505060405180910390a1505050565b600033905081600260008373ffffffffffffffffffffffffffffffffffffffff1673ffffffffffffffffffffffffffffffffffffffff168152602001908152602001600020600082015181600001556020820151816001015560408201518160020155606082015181600301556080820151816004015560a082015181600501559050505050565b6040518060c00160405280600081526020016000815260200160008152602001600081526020016000815260200160008152509056fe52657175657374656420616d6f756e74206578656564732063757272656e742062616c616e6365a265627a7a72315820a37eccd7e5e9d40f21554996401e53afbe5de402a0b3201cc8bab2cd3d2e324a64736f6c634300050c0032",
  "source": "import \"./Ownable.sol\";\r\npragma solidity 0.5.12;\r\n\r\ncontract Coinflip is Ownable{\r\n\r\n  struct Player{\r\n    uint id;\r\n    uint lastResult;\r\n    uint lastWin;\r\n    uint totalWin;\r\n    uint totalPlay;\r\n    uint totalWon;\r\n  }\r\n\r\n  event coinflipResult(uint result, uint winnings);\r\n  event uncoughtException(uint step);\r\n  event hasBeenWithdrawn(uint toTransfer);\r\n  event playerCreated(string message);\r\n  event playerUpdated(uint lastResult, uint lastWin, uint totalWin, uint totalPlay, uint totalWon);\r\n\r\n  uint private balance;\r\n  mapping (address => Player) private player;\r\n  address[] private players;\r\n\r\n  function createPlayer() private{\r\n    Player memory newPlayer;\r\n    newPlayer.id = 1;\r\n    newPlayer.lastWin = 0;\r\n    newPlayer.totalWin = 0;\r\n    newPlayer.totalPlay = 0;\r\n    newPlayer.totalWon = 0;\r\n\r\n    insertPlayer(newPlayer);\r\n    players.push(msg.sender);\r\n\r\n    emit playerCreated(\"New Player created\");\r\n  }\r\n\r\n  function insertPlayer(Player memory newPlayer) private{\r\n    address creator = msg.sender;\r\n    player[creator] = newPlayer;\r\n  }\r\n\r\n  function getPlayer() public view returns(uint lastResult, uint lastWin, uint totalWin, uint totalPlay, uint totalWon){\r\n    address creator = msg.sender;\r\n    return (player[creator].lastResult, player[creator].lastWin, player[creator].totalWin, player[creator].totalPlay, player[creator].totalWon);\r\n  }\r\n\r\n  function updatePlayer(uint lastResult, uint lastWin) private {\r\n    address creator = msg.sender;\r\n    player[creator].lastResult = lastResult;\r\n    player[creator].lastWin = lastWin;\r\n    player[creator].totalWin += lastResult;\r\n    player[creator].totalPlay += 1;\r\n    player[creator].totalWon += lastWin;\r\n    emit playerUpdated(player[creator].lastResult, player[creator].lastWin, player[creator].totalWin, player[creator].totalPlay, player[creator].totalWon);\r\n  }\r\n\r\n  function playerNotExists() public view returns (bool exists){\r\n    address creator = msg.sender;\r\n    if (player[creator].id != 0){\r\n      exists = false;\r\n    }\r\n    else{\r\n      exists = true;\r\n    }\r\n    return exists;\r\n  }\r\n\r\n  function random() private view returns(uint result){\r\n    uint res = block.timestamp % 2;\r\n    return res;\r\n  }\r\n\r\n  function coinFlip() public payable returns(uint won, uint win){\r\n    uint bet_value = msg.value;\r\n    uint winnings;\r\n    uint winner;\r\n    require(msg.value <= balance, \"Insufficient contract balance\");\r\n\r\n    if (playerNotExists()){\r\n      createPlayer();\r\n    }\r\n\r\n    uint res = random();\r\n    //uint res = block.timestamp % 2;\r\n    if(res == 0){\r\n      winner = 0;\r\n      balance = balance + bet_value;\r\n      winnings = 0;\r\n      emit coinflipResult(res, winnings);\r\n    }\r\n    else if(res == 1){\r\n      winner = 1;\r\n      winnings = 2* bet_value;\r\n      balance = balance - bet_value;\r\n      msg.sender.transfer(winnings);\r\n      emit coinflipResult(res, winnings);\r\n    }\r\n    else{\r\n      emit uncoughtException(1);\r\n    }\r\n    updatePlayer(winner, winnings);\r\n    return (winner, winnings);\r\n  }\r\n\r\n  function depositeBalance() public onlyOwner payable returns(uint) {\r\n      uint newBalance = balance + msg.value;\r\n      balance = newBalance;\r\n      return newBalance;\r\n  }\r\n\r\n  function withdrawAll() public onlyOwner payable returns(uint) {\r\n      uint toTransfer = balance;\r\n      balance = 0;\r\n      msg.sender.transfer(toTransfer);\r\n      emit hasBeenWithdrawn(toTransfer);\r\n      return toTransfer;\r\n  }\r\n\r\n  function withdrawAmount(uint amount) public onlyOwner payable returns(uint) {\r\n      require(amount <= balance, \"Requested amount exeeds current balance\");\r\n      balance = balance - amount;\r\n      msg.sender.transfer(amount);\r\n      emit hasBeenWithdrawn(amount);\r\n      return amount;\r\n  }\r\n\r\n  function getBalance() public view returns(uint){\r\n    return balance;\r\n  }\r\n\r\n}\r\n",
  "sourcePath": "D:\\Blockchain_Programming\\Solidity_201\\Coinflip\\contract\\contracts\\coinflip.sol",
  "compiler": {
    "name": "solc",
    "version": "0.5.12+commit.7709ece9.Emscripten.clang"
  },
  "schemaVersion": "3.0.23",
  "updatedAt": "2020-09-23T18:11:35.634Z",
  "networkType": "ethereum",
  "devdoc": {
    "methods": {}
  },
  "userdoc": {
    "methods": {}
  }
}