{
  "contractName": "Coinflip",
  "abi": [
    {
      "anonymous": false,
      "inputs": [
        {
          "indexed": false,
          "internalType": "uint256",
          "name": "result",
          "type": "uint256"
        },
        {
          "indexed": false,
          "internalType": "uint256",
          "name": "winnings",
          "type": "uint256"
        }
      ],
      "name": "coinflipResult",
      "type": "event"
    },
    {
      "anonymous": false,
      "inputs": [
        {
          "indexed": false,
          "internalType": "uint256",
          "name": "randomNumber",
          "type": "uint256"
        }
      ],
      "name": "generatedRandomNumber",
      "type": "event"
    },
    {
      "anonymous": false,
      "inputs": [
        {
          "indexed": false,
          "internalType": "uint256",
          "name": "toTransfer",
          "type": "uint256"
        }
      ],
      "name": "hasBeenWithdrawn",
      "type": "event"
    },
    {
      "anonymous": false,
      "inputs": [
        {
          "indexed": false,
          "internalType": "string",
          "name": "message",
          "type": "string"
        }
      ],
      "name": "logNewProvableQuery",
      "type": "event"
    },
    {
      "anonymous": false,
      "inputs": [
        {
          "indexed": false,
          "internalType": "string",
          "name": "message",
          "type": "string"
        }
      ],
      "name": "playerCreated",
      "type": "event"
    },
    {
      "anonymous": false,
      "inputs": [
        {
          "indexed": false,
          "internalType": "string",
          "name": "message",
          "type": "string"
        }
      ],
      "name": "playerQueryUpdate",
      "type": "event"
    },
    {
      "anonymous": false,
      "inputs": [
        {
          "indexed": false,
          "internalType": "uint256",
          "name": "lastResult",
          "type": "uint256"
        },
        {
          "indexed": false,
          "internalType": "uint256",
          "name": "lastWin",
          "type": "uint256"
        },
        {
          "indexed": false,
          "internalType": "uint256",
          "name": "totalWin",
          "type": "uint256"
        },
        {
          "indexed": false,
          "internalType": "uint256",
          "name": "totalPlay",
          "type": "uint256"
        },
        {
          "indexed": false,
          "internalType": "uint256",
          "name": "totalWon",
          "type": "uint256"
        }
      ],
      "name": "playerUpdated",
      "type": "event"
    },
    {
      "anonymous": false,
      "inputs": [
        {
          "indexed": false,
          "internalType": "string",
          "name": "message",
          "type": "string"
        }
      ],
      "name": "uncoughtException",
      "type": "event"
    },
    {
      "constant": true,
      "inputs": [],
      "name": "owner",
      "outputs": [
        {
          "internalType": "address",
          "name": "",
          "type": "address"
        }
      ],
      "payable": false,
      "stateMutability": "view",
      "type": "function"
    },
    {
      "constant": true,
      "inputs": [],
      "name": "getPlayer",
      "outputs": [
        {
          "internalType": "uint256",
          "name": "lastResult",
          "type": "uint256"
        },
        {
          "internalType": "uint256",
          "name": "lastWin",
          "type": "uint256"
        },
        {
          "internalType": "uint256",
          "name": "totalWin",
          "type": "uint256"
        },
        {
          "internalType": "uint256",
          "name": "totalPlay",
          "type": "uint256"
        },
        {
          "internalType": "uint256",
          "name": "totalWon",
          "type": "uint256"
        }
      ],
      "payable": false,
      "stateMutability": "view",
      "type": "function"
    },
    {
      "constant": false,
      "inputs": [
        {
          "internalType": "bytes32",
          "name": "_myid",
          "type": "bytes32"
        },
        {
          "internalType": "string",
          "name": "_result",
          "type": "string"
        }
      ],
      "name": "__callback",
      "outputs": [],
      "payable": false,
      "stateMutability": "nonpayable",
      "type": "function"
    },
    {
      "constant": false,
      "inputs": [
        {
          "internalType": "bytes32",
          "name": "_queryId",
          "type": "bytes32"
        },
        {
          "internalType": "string",
          "name": "_result",
          "type": "string"
        },
        {
          "internalType": "bytes",
          "name": "_proof",
          "type": "bytes"
        }
      ],
      "name": "__callback",
      "outputs": [],
      "payable": false,
      "stateMutability": "nonpayable",
      "type": "function"
    },
    {
      "constant": false,
      "inputs": [],
      "name": "coinFlip",
      "outputs": [],
      "payable": true,
      "stateMutability": "payable",
      "type": "function"
    },
    {
      "constant": false,
      "inputs": [],
      "name": "depositeBalance",
      "outputs": [
        {
          "internalType": "uint256",
          "name": "",
          "type": "uint256"
        }
      ],
      "payable": true,
      "stateMutability": "payable",
      "type": "function"
    },
    {
      "constant": false,
      "inputs": [],
      "name": "withdrawAll",
      "outputs": [
        {
          "internalType": "uint256",
          "name": "",
          "type": "uint256"
        }
      ],
      "payable": true,
      "stateMutability": "payable",
      "type": "function"
    },
    {
      "constant": false,
      "inputs": [
        {
          "internalType": "uint256",
          "name": "_amount",
          "type": "uint256"
        }
      ],
      "name": "withdrawAmount",
      "outputs": [
        {
          "internalType": "uint256",
          "name": "",
          "type": "uint256"
        }
      ],
      "payable": true,
      "stateMutability": "payable",
      "type": "function"
    },
    {
      "constant": true,
      "inputs": [],
      "name": "getBalance",
      "outputs": [
        {
          "internalType": "uint256",
          "name": "",
          "type": "uint256"
        }
      ],
      "payable": false,
      "stateMutability": "view",
      "type": "function"
    },
    {
      "constant": true,
      "inputs": [],
      "name": "isQueryPending",
      "outputs": [
        {
          "internalType": "uint256",
          "name": "",
          "type": "uint256"
        }
      ],
      "payable": false,
      "stateMutability": "view",
      "type": "function"
    }
  ],
  "bytecode": "0x6080604052336000806101000a81548173ffffffffffffffffffffffffffffffffffffffff021916908373ffffffffffffffffffffffffffffffffffffffff16021790555061371d806100536000396000f3fe6080604052600436106100915760003560e01c806338bbfa501161005957806338bbfa501461024757806340462b5b146103b05780635ac947cb146103ce578063853828b6146103d85780638da5cb5b146103f657610091565b80630562b9f71461009657806312065fe0146100d857806327dc297e146101035780633308f42d146101d557806337a4cb951461021c575b600080fd5b6100c2600480360360208110156100ac57600080fd5b810190808035906020019092919050505061044d565b6040518082815260200191505060405180910390f35b3480156100e457600080fd5b506100ed610594565b6040518082815260200191505060405180910390f35b34801561010f57600080fd5b506101d36004803603604081101561012657600080fd5b81019080803590602001909291908035906020019064010000000081111561014d57600080fd5b82018360208201111561015f57600080fd5b8035906020019184600183028401116401000000008311171561018157600080fd5b91908080601f016020809104026020016040519081016040528093929190818152602001838380828437600081840152601f19601f82011690508083019250505050505050919291929050505061059e565b005b3480156101e157600080fd5b506101ea6105e1565b604051808681526020018581526020018481526020018381526020018281526020019550505050505060405180910390f35b34801561022857600080fd5b5061023161074e565b6040518082815260200191505060405180910390f35b34801561025357600080fd5b506103ae6004803603606081101561026a57600080fd5b81019080803590602001909291908035906020019064010000000081111561029157600080fd5b8201836020820111156102a357600080fd5b803590602001918460018302840111640100000000831117156102c557600080fd5b91908080601f016020809104026020016040519081016040528093929190818152602001838380828437600081840152601f19601f8201169050808301925050505050505091929192908035906020019064010000000081111561032857600080fd5b82018360208201111561033a57600080fd5b8035906020019184600183028401116401000000008311171561035c57600080fd5b91908080601f016020809104026020016040519081016040528093929190818152602001838380828437600081840152601f19601f8201169050808301925050505050505091929192905050506107b4565b005b6103b8610903565b6040518082815260200191505060405180910390f35b6103d6610975565b005b6103e0610add565b6040518082815260200191505060405180910390f35b34801561040257600080fd5b5061040b610bcc565b604051808273ffffffffffffffffffffffffffffffffffffffff1673ffffffffffffffffffffffffffffffffffffffff16815260200191505060405180910390f35b60008060009054906101000a900473ffffffffffffffffffffffffffffffffffffffff1673ffffffffffffffffffffffffffffffffffffffff163373ffffffffffffffffffffffffffffffffffffffff16146104a857600080fd5b600654821115610503576040517f08c379a00000000000000000000000000000000000000000000000000000000081526004018080602001828103825260278152602001806136956027913960400191505060405180910390fd5b81600654036006819055503373ffffffffffffffffffffffffffffffffffffffff166108fc839081150290604051600060405180830381858888f19350505050158015610554573d6000803e3d6000fd5b507f7b69a3f83ed37f0277c8f1c570ca1f7e8bdf5e23b6a371f8d21b0266b7e280dc826040518082815260200191505060405180910390a1819050919050565b6000600654905090565b6105dd828260006040519080825280601f01601f1916602001820160405280156105d75781602001600182028038833980820191505090505b506107b4565b5050565b600080600080600080339050600760008273ffffffffffffffffffffffffffffffffffffffff1673ffffffffffffffffffffffffffffffffffffffff16815260200190815260200160002060040154600760008373ffffffffffffffffffffffffffffffffffffffff1673ffffffffffffffffffffffffffffffffffffffff16815260200190815260200160002060050154600760008473ffffffffffffffffffffffffffffffffffffffff1673ffffffffffffffffffffffffffffffffffffffff16815260200190815260200160002060060154600760008573ffffffffffffffffffffffffffffffffffffffff1673ffffffffffffffffffffffffffffffffffffffff16815260200190815260200160002060070154600760008673ffffffffffffffffffffffffffffffffffffffff1673ffffffffffffffffffffffffffffffffffffffff1681526020019081526020016000206008015495509550955095509550509091929394565b6000803390506000801b600760008373ffffffffffffffffffffffffffffffffffffffff1673ffffffffffffffffffffffffffffffffffffffff1681526020019081526020016000206001015414156107ab5760009150506107b1565b60019150505b90565b6107bc610bf1565b73ffffffffffffffffffffffffffffffffffffffff163373ffffffffffffffffffffffffffffffffffffffff16146107f357600080fd5b60006008600085815260200190815260200160002060009054906101000a900473ffffffffffffffffffffffffffffffffffffffff16905060006002846040516020018082805190602001908083835b602083106108665780518252602082019150602081019050602083039250610843565b6001836020036101000a0380198251168184511680821785525050505050509050019150506040516020818303038152906040528051906020012060001c816108ab57fe5b0690506108bc826000801b83610f11565b6108c58261105e565b7fc13d60fe9dffdb6908d2d446cd18134373a51db0738ee04f296eeb9128121cbc816040518082815260200191505060405180910390a15050505050565b60008060009054906101000a900473ffffffffffffffffffffffffffffffffffffffff1673ffffffffffffffffffffffffffffffffffffffff163373ffffffffffffffffffffffffffffffffffffffff161461095e57600080fd5b600034600654019050806006819055508091505090565b600034905060003390506006543411156109f7576040517f08c379a000000000000000000000000000000000000000000000000000000000815260040180806020018281038252601d8152602001807f496e73756666696369656e7420636f6e74726163742062616c616e636500000081525060200191505060405180910390fd5b6000801b600760008373ffffffffffffffffffffffffffffffffffffffff1673ffffffffffffffffffffffffffffffffffffffff1681526020019081526020016000206001015414610ab1576040517f08c379a00000000000000000000000000000000000000000000000000000000081526004018080602001828103825260168152602001807f43757272656e7420726573756c742070656e64696e670000000000000000000081525060200191505060405180910390fd5b610ab9611355565b15610ac757610ac66113ba565b5b610ad181836114f7565b610ad9611542565b5050565b60008060009054906101000a900473ffffffffffffffffffffffffffffffffffffffff1673ffffffffffffffffffffffffffffffffffffffff163373ffffffffffffffffffffffffffffffffffffffff1614610b3857600080fd5b6000600654905060006006819055503373ffffffffffffffffffffffffffffffffffffffff166108fc829081150290604051600060405180830381858888f19350505050158015610b8d573d6000803e3d6000fd5b507f7b69a3f83ed37f0277c8f1c570ca1f7e8bdf5e23b6a371f8d21b0266b7e280dc816040518082815260200191505060405180910390a18091505090565b6000809054906101000a900473ffffffffffffffffffffffffffffffffffffffff1681565b60008073ffffffffffffffffffffffffffffffffffffffff16600260009054906101000a900473ffffffffffffffffffffffffffffffffffffffff1673ffffffffffffffffffffffffffffffffffffffff161480610c7957506000610c77600260009054906101000a900473ffffffffffffffffffffffffffffffffffffffff166115c1565b145b15610c8a57610c8860006115cc565b505b600260009054906101000a900473ffffffffffffffffffffffffffffffffffffffff1673ffffffffffffffffffffffffffffffffffffffff166338cc48316040518163ffffffff1660e01b8152600401602060405180830381600087803b158015610cf457600080fd5b505af1158015610d08573d6000803e3d6000fd5b505050506040513d6020811015610d1e57600080fd5b810190808051906020019092919050505073ffffffffffffffffffffffffffffffffffffffff16600160009054906101000a900473ffffffffffffffffffffffffffffffffffffffff1673ffffffffffffffffffffffffffffffffffffffff1614610e6957600260009054906101000a900473ffffffffffffffffffffffffffffffffffffffff1673ffffffffffffffffffffffffffffffffffffffff166338cc48316040518163ffffffff1660e01b8152600401602060405180830381600087803b158015610ded57600080fd5b505af1158015610e01573d6000803e3d6000fd5b505050506040513d6020811015610e1757600080fd5b8101908080519060200190929190505050600160006101000a81548173ffffffffffffffffffffffffffffffffffffffff021916908373ffffffffffffffffffffffffffffffffffffffff1602179055505b600160009054906101000a900473ffffffffffffffffffffffffffffffffffffffff1673ffffffffffffffffffffffffffffffffffffffff1663c281d19e6040518163ffffffff1660e01b815260040160206040518083038186803b158015610ed157600080fd5b505afa158015610ee5573d6000803e3d6000fd5b505050506040513d6020811015610efb57600080fd5b8101908080519060200190929190505050905090565b826008600084815260200190815260200160002060006101000a81548173ffffffffffffffffffffffffffffffffffffffff021916908373ffffffffffffffffffffffffffffffffffffffff16021790555081600760008573ffffffffffffffffffffffffffffffffffffffff1673ffffffffffffffffffffffffffffffffffffffff1681526020019081526020016000206001018190555080600760008573ffffffffffffffffffffffffffffffffffffffff1673ffffffffffffffffffffffffffffffffffffffff168152602001908152602001600020600201819055507fb3a497502c339b7c91a10dcf9aef53509ee253bbe392f047ee3eef859cede28e6040518080602001828103825260148152602001807f506c61796572207175657279207570646174656400000000000000000000000081525060200191505060405180910390a1505050565b60008060008390506000801b600760008673ffffffffffffffffffffffffffffffffffffffff1673ffffffffffffffffffffffffffffffffffffffff1681526020019081526020016000206001015414611120576040517f08c379a000000000000000000000000000000000000000000000000000000000815260040180806020018281038252601e8152602001807f4e6f207061796f75742c207175657279207374696c6c2070656e64696e67000081525060200191505060405180910390fd5b6000600760008673ffffffffffffffffffffffffffffffffffffffff1673ffffffffffffffffffffffffffffffffffffffff16815260200190815260200160002060020154905060008114156111ca5760009250600760008673ffffffffffffffffffffffffffffffffffffffff1673ffffffffffffffffffffffffffffffffffffffff168152602001908152602001600020600301546006540160068190555060009350611305565b60018114156112b85760019250600760008673ffffffffffffffffffffffffffffffffffffffff1673ffffffffffffffffffffffffffffffffffffffff168152602001908152602001600020600301546002029350600760008673ffffffffffffffffffffffffffffffffffffffff1673ffffffffffffffffffffffffffffffffffffffff16815260200190815260200160002060030154600654036006819055508173ffffffffffffffffffffffffffffffffffffffff166108fc859081150290604051600060405180830381858888f193505050501580156112b2573d6000803e3d6000fd5b50611304565b7fd62c4431442a1e9b9872b398bb104c4e56bffa7ec85d0a8d7723320c78dc198360405180806020018281038252602d8152602001806136bc602d913960400191505060405180910390a15b5b61130f83856115dd565b7fd68951acaf929d326631a5e35cb48f783ecddfd2cf58ddfe59b5b2ac35e3b2918185604051808381526020018281526020019250505060405180910390a15050505050565b6000803390506000600760008373ffffffffffffffffffffffffffffffffffffffff1673ffffffffffffffffffffffffffffffffffffffff16815260200190815260200160002060000154146113ae57600091506113b3565b600191505b8191505090565b6113c2613533565b60018160000181815250506000801b8160200181815250506000816040018181525050600081606001818152505060008160a001818152505060008160c001818152505060008160e001818152505060008161010001818152505061142681611907565b60093390806001815401808255809150509060018203906000526020600020016000909192909190916101000a81548173ffffffffffffffffffffffffffffffffffffffff021916908373ffffffffffffffffffffffffffffffffffffffff160217905550507f3a3a2024ad24695510ed865ae6c90c126dd5ea7173c8dd02f2dc75e13c2b6ab16040518080602001828103825260128152602001807f4e657720506c617965722063726561746564000000000000000000000000000081525060200191505060405180910390a150565b80600760008473ffffffffffffffffffffffffffffffffffffffff1673ffffffffffffffffffffffffffffffffffffffff168152602001908152602001600020600301819055505050565b600033905060008090506000621e848090506000611562836001846119ae565b905061157084826064610f11565b7f94f2559b5e2b297de3db1587daf2352e872ada3dad01dab9ee3733592fa22ed360405180806020018281038252602c815260200180613669602c913960400191505060405180910390a150505050565b6000813b9050919050565b60006115d6611f49565b9050919050565b600033905082600760008373ffffffffffffffffffffffffffffffffffffffff1673ffffffffffffffffffffffffffffffffffffffff1681526020019081526020016000206004018190555081600760008373ffffffffffffffffffffffffffffffffffffffff1673ffffffffffffffffffffffffffffffffffffffff1681526020019081526020016000206005018190555082600760008373ffffffffffffffffffffffffffffffffffffffff1673ffffffffffffffffffffffffffffffffffffffff168152602001908152602001600020600601600082825401925050819055506001600760008373ffffffffffffffffffffffffffffffffffffffff1673ffffffffffffffffffffffffffffffffffffffff1681526020019081526020016000206007016000828254019250508190555081600760008373ffffffffffffffffffffffffffffffffffffffff1673ffffffffffffffffffffffffffffffffffffffff168152602001908152602001600020600801600082825401925050819055507f0d78e9af98d447f99fdeb1cb6c3d05b5414b1dc699bff636ae63523d3f28ce4a600760008373ffffffffffffffffffffffffffffffffffffffff1673ffffffffffffffffffffffffffffffffffffffff16815260200190815260200160002060040154600760008473ffffffffffffffffffffffffffffffffffffffff1673ffffffffffffffffffffffffffffffffffffffff16815260200190815260200160002060050154600760008573ffffffffffffffffffffffffffffffffffffffff1673ffffffffffffffffffffffffffffffffffffffff16815260200190815260200160002060060154600760008673ffffffffffffffffffffffffffffffffffffffff1673ffffffffffffffffffffffffffffffffffffffff16815260200190815260200160002060070154600760008773ffffffffffffffffffffffffffffffffffffffff1673ffffffffffffffffffffffffffffffffffffffff16815260200190815260200160002060080154604051808681526020018581526020018481526020018381526020018281526020019550505050505060405180910390a1505050565b600033905081600760008373ffffffffffffffffffffffffffffffffffffffff1673ffffffffffffffffffffffffffffffffffffffff168152602001908152602001600020600082015181600001556020820151816001015560408201518160020155606082015181600301556080820151816004015560a0820151816005015560c0820151816006015560e0820151816007015561010082015181600801559050505050565b600080831180156119c0575060208311155b6119c957600080fd5b600a84029350606060016040519080825280601f01601f191660200182016040528015611a055781602001600182028038833980820191505090505b5090508360f81b81600081518110611a1957fe5b60200101907effffffffffffffffffffffffffffffffffffffffffffffffffffffffffffff1916908160001a905350606060206040519080825280601f01601f191660200182016040528015611a7e5781602001600182028038833980820191505090505b509050606060206040519080825280601f01601f191660200182016040528015611ab75781602001600182028038833980820191505090505b5090506000611ac46124a0565b905060208352424118600143034018602084015260208252806020830152606060206040519080825280601f01601f191660200182016040528015611b185781602001600182028038833980820191505090505b509050886020820152606060086040519080825280601f01601f191660200182016040528015611b575781602001600182028038833980820191505090505b509050611b6a82601860088460006127c0565b50611b73613582565b60405180608001604052808781526020018881526020018681526020018481525090506000611bd86040518060400160405280600681526020017f72616e646f6d0000000000000000000000000000000000000000000000000000815250838c61281f565b9050606060086040519080825280601f01601f191660200182016040528015611c105781602001600182028038833980820191505090505b50905060208401517f0100000000000000000000000000000000000000000000000000000000000000810460278301537e01000000000000000000000000000000000000000000000000000000000000810460268301537d010000000000000000000000000000000000000000000000000000000000810460258301537c0100000000000000000000000000000000000000000000000000000000810460248301537b01000000000000000000000000000000000000000000000000000000810460238301537a010000000000000000000000000000000000000000000000000000810460228301537901000000000000000000000000000000000000000000000000008104602183015378010000000000000000000000000000000000000000000000008104602083015350611f36828285600160048110611d4f57fe5b6020020151600287600060048110611d6357fe5b60200201516040518082805190602001908083835b60208310611d9b5780518252602082019150602081019050602083039250611d78565b6001836020036101000a038019825116818451168082178552505050505050905001915050602060405180830381855afa158015611ddd573d6000803e3d6000fd5b5050506040513d6020811015611df257600080fd5b810190808051906020019092919050505087600260048110611e1057fe5b60200201516040516020018085805190602001908083835b60208310611e4b5780518252602082019150602081019050602083039250611e28565b6001836020036101000a03801982511681845116808217855250505050505090500184805190602001908083835b60208310611e9c5780518252602082019150602081019050602083039250611e79565b6001836020036101000a03801982511681845116808217855250505050505090500183815260200182805190602001908083835b60208310611ef35780518252602082019150602081019050602083039250611ed0565b6001836020036101000a03801982511681845116808217855250505050505090500194505050505060405160208183030381529060405280519060200120612b8e565b8199505050505050505050509392505050565b600080611f69731d3b2638a7cc9f2cb3d298a3da7a90b67e5506ed6115c1565b111561200b57731d3b2638a7cc9f2cb3d298a3da7a90b67e5506ed600260006101000a81548173ffffffffffffffffffffffffffffffffffffffff021916908373ffffffffffffffffffffffffffffffffffffffff1602179055506120026040518060400160405280600b81526020017f6574685f6d61696e6e6574000000000000000000000000000000000000000000815250612baa565b6001905061249d565b600061202a73c03a2615d5efaf5f49f60b7bb6583eaec212fdf16115c1565b11156120cc5773c03a2615d5efaf5f49f60b7bb6583eaec212fdf1600260006101000a81548173ffffffffffffffffffffffffffffffffffffffff021916908373ffffffffffffffffffffffffffffffffffffffff1602179055506120c36040518060400160405280600c81526020017f6574685f726f707374656e330000000000000000000000000000000000000000815250612baa565b6001905061249d565b60006120eb73b7a07bcf2ba2f2703b24c0691b5278999c59ac7e6115c1565b111561218d5773b7a07bcf2ba2f2703b24c0691b5278999c59ac7e600260006101000a81548173ffffffffffffffffffffffffffffffffffffffff021916908373ffffffffffffffffffffffffffffffffffffffff1602179055506121846040518060400160405280600981526020017f6574685f6b6f76616e0000000000000000000000000000000000000000000000815250612baa565b6001905061249d565b60006121ac73146500cfd35b22e4a392fe0adc06de1a1368ed486115c1565b111561224e5773146500cfd35b22e4a392fe0adc06de1a1368ed48600260006101000a81548173ffffffffffffffffffffffffffffffffffffffff021916908373ffffffffffffffffffffffffffffffffffffffff1602179055506122456040518060400160405280600b81526020017f6574685f72696e6b656279000000000000000000000000000000000000000000815250612baa565b6001905061249d565b600061226d73a2998efd205fb9d4b4963afb70778d6354ad3a416115c1565b111561230f5773a2998efd205fb9d4b4963afb70778d6354ad3a41600260006101000a81548173ffffffffffffffffffffffffffffffffffffffff021916908373ffffffffffffffffffffffffffffffffffffffff1602179055506123066040518060400160405280600a81526020017f6574685f676f65726c6900000000000000000000000000000000000000000000815250612baa565b6001905061249d565b600061232e736f485c8bf6fc43ea212e93bbf8ce046c7f1cb4756115c1565b111561239257736f485c8bf6fc43ea212e93bbf8ce046c7f1cb475600260006101000a81548173ffffffffffffffffffffffffffffffffffffffff021916908373ffffffffffffffffffffffffffffffffffffffff1602179055506001905061249d565b60006123b17320e12a1f859b3feae5fb2a0a32c18f5a65555bbf6115c1565b1115612415577320e12a1f859b3feae5fb2a0a32c18f5a65555bbf600260006101000a81548173ffffffffffffffffffffffffffffffffffffffff021916908373ffffffffffffffffffffffffffffffffffffffff1602179055506001905061249d565b60006124347351efaf4c8b3c9afbd5ab9f4bbc82784ab6ef8faa6115c1565b1115612498577351efaf4c8b3c9afbd5ab9f4bbc82784ab6ef8faa600260006101000a81548173ffffffffffffffffffffffffffffffffffffffff021916908373ffffffffffffffffffffffffffffffffffffffff1602179055506001905061249d565b600090505b90565b60008073ffffffffffffffffffffffffffffffffffffffff16600260009054906101000a900473ffffffffffffffffffffffffffffffffffffffff1673ffffffffffffffffffffffffffffffffffffffff16148061252857506000612526600260009054906101000a900473ffffffffffffffffffffffffffffffffffffffff166115c1565b145b156125395761253760006115cc565b505b600260009054906101000a900473ffffffffffffffffffffffffffffffffffffffff1673ffffffffffffffffffffffffffffffffffffffff166338cc48316040518163ffffffff1660e01b8152600401602060405180830381600087803b1580156125a357600080fd5b505af11580156125b7573d6000803e3d6000fd5b505050506040513d60208110156125cd57600080fd5b810190808051906020019092919050505073ffffffffffffffffffffffffffffffffffffffff16600160009054906101000a900473ffffffffffffffffffffffffffffffffffffffff1673ffffffffffffffffffffffffffffffffffffffff161461271857600260009054906101000a900473ffffffffffffffffffffffffffffffffffffffff1673ffffffffffffffffffffffffffffffffffffffff166338cc48316040518163ffffffff1660e01b8152600401602060405180830381600087803b15801561269c57600080fd5b505af11580156126b0573d6000803e3d6000fd5b505050506040513d60208110156126c657600080fd5b8101908080519060200190929190505050600160006101000a81548173ffffffffffffffffffffffffffffffffffffffff021916908373ffffffffffffffffffffffffffffffffffffffff1602179055505b600160009054906101000a900473ffffffffffffffffffffffffffffffffffffffff1673ffffffffffffffffffffffffffffffffffffffff1663abaa5f3e6040518163ffffffff1660e01b815260040160206040518083038186803b15801561278057600080fd5b505afa158015612794573d6000803e3d6000fd5b505050506040513d60208110156127aa57600080fd5b8101908080519060200190929190505050905090565b60606000828501905080845110156127d757600080fd5b600086602001905060008460200190505b86886020010182101561281057818901518082880152506020820191506020810190506127e8565b85935050505095945050505050565b60008073ffffffffffffffffffffffffffffffffffffffff16600260009054906101000a900473ffffffffffffffffffffffffffffffffffffffff1673ffffffffffffffffffffffffffffffffffffffff1614806128a7575060006128a5600260009054906101000a900473ffffffffffffffffffffffffffffffffffffffff166115c1565b145b156128b8576128b660006115cc565b505b600260009054906101000a900473ffffffffffffffffffffffffffffffffffffffff1673ffffffffffffffffffffffffffffffffffffffff166338cc48316040518163ffffffff1660e01b8152600401602060405180830381600087803b15801561292257600080fd5b505af1158015612936573d6000803e3d6000fd5b505050506040513d602081101561294c57600080fd5b810190808051906020019092919050505073ffffffffffffffffffffffffffffffffffffffff16600160009054906101000a900473ffffffffffffffffffffffffffffffffffffffff1673ffffffffffffffffffffffffffffffffffffffff1614612a9757600260009054906101000a900473ffffffffffffffffffffffffffffffffffffffff1673ffffffffffffffffffffffffffffffffffffffff166338cc48316040518163ffffffff1660e01b8152600401602060405180830381600087803b158015612a1b57600080fd5b505af1158015612a2f573d6000803e3d6000fd5b505050506040513d6020811015612a4557600080fd5b8101908080519060200190929190505050600160006101000a81548173ffffffffffffffffffffffffffffffffffffffff021916908373ffffffffffffffffffffffffffffffffffffffff1602179055505b60606004604051908082528060200260200182016040528015612ace57816020015b6060815260200190600190039081612ab95790505b50905083600060048110612ade57fe5b602002015181600081518110612af057fe5b602002602001018190525083600160048110612b0857fe5b602002015181600181518110612b1a57fe5b602002602001018190525083600260048110612b3257fe5b602002015181600281518110612b4457fe5b602002602001018190525083600360048110612b5c57fe5b602002015181600381518110612b6e57fe5b6020026020010181905250612b84858285612bc4565b9150509392505050565b8060046000848152602001908152602001600020819055505050565b8060039080519060200190612bc09291906135a9565b5050565b60008073ffffffffffffffffffffffffffffffffffffffff16600260009054906101000a900473ffffffffffffffffffffffffffffffffffffffff1673ffffffffffffffffffffffffffffffffffffffff161480612c4c57506000612c4a600260009054906101000a900473ffffffffffffffffffffffffffffffffffffffff166115c1565b145b15612c5d57612c5b60006115cc565b505b600260009054906101000a900473ffffffffffffffffffffffffffffffffffffffff1673ffffffffffffffffffffffffffffffffffffffff166338cc48316040518163ffffffff1660e01b8152600401602060405180830381600087803b158015612cc757600080fd5b505af1158015612cdb573d6000803e3d6000fd5b505050506040513d6020811015612cf157600080fd5b810190808051906020019092919050505073ffffffffffffffffffffffffffffffffffffffff16600160009054906101000a900473ffffffffffffffffffffffffffffffffffffffff1673ffffffffffffffffffffffffffffffffffffffff1614612e3c57600260009054906101000a900473ffffffffffffffffffffffffffffffffffffffff1673ffffffffffffffffffffffffffffffffffffffff166338cc48316040518163ffffffff1660e01b8152600401602060405180830381600087803b158015612dc057600080fd5b505af1158015612dd4573d6000803e3d6000fd5b505050506040513d6020811015612dea57600080fd5b8101908080519060200190929190505050600160006101000a81548173ffffffffffffffffffffffffffffffffffffffff021916908373ffffffffffffffffffffffffffffffffffffffff1602179055505b6000600160009054906101000a900473ffffffffffffffffffffffffffffffffffffffff1673ffffffffffffffffffffffffffffffffffffffff16632ef3accc86856040518363ffffffff1660e01b81526004018080602001838152602001828103825284818151815260200191508051906020019080838360005b83811015612ed3578082015181840152602081019050612eb8565b50505050905090810190601f168015612f005780820380516001836020036101000a031916815260200191505b509350505050602060405180830381600087803b158015612f2057600080fd5b505af1158015612f34573d6000803e3d6000fd5b505050506040513d6020811015612f4a57600080fd5b81019080805190602001909291905050509050823a02670de0b6b3a764000001811115612f7d576000801b915050613123565b6060612f888561312a565b9050600160009054906101000a900473ffffffffffffffffffffffffffffffffffffffff1673ffffffffffffffffffffffffffffffffffffffff1663c55c1cb68360008985896040518663ffffffff1660e01b8152600401808581526020018060200180602001848152602001838103835286818151815260200191508051906020019080838360005b8381101561302d578082015181840152602081019050613012565b50505050905090810190601f16801561305a5780820380516001836020036101000a031916815260200191505b50838103825285818151815260200191508051906020019080838360005b83811015613093578082015181840152602081019050613078565b50505050905090810190601f1680156130c05780820380516001836020036101000a031916815260200191505b5096505050505050506020604051808303818588803b1580156130e257600080fd5b505af11580156130f6573d6000803e3d6000fd5b50505050506040513d602081101561310d57600080fd5b8101908080519060200190929190505050925050505b9392505050565b60606131346131aa565b61313c613629565b613148816104006131b6565b61315181613200565b60008090505b83518110156131935761318684828151811061316f57fe5b60200260200101518361320e90919063ffffffff16565b8080600101915050613157565b5061319d81613233565b8060000151915050919050565b60405180590338823950565b60008190506000602082816131c757fe5b06146131e057602081816131d757fe5b06602003810190505b808360200181815250506040518084526000815281810160405250505050565b61320b816004613241565b50565b61321b8260028351613262565b61322e81836133a290919063ffffffff16565b505050565b61323e816007613241565b50565b61325e601f60058360ff16901b178361344d90919063ffffffff16565b5050565b6017811161328e576132898160058460ff16901b60ff16178461344d90919063ffffffff16565b61339d565b60ff81116132cf576132b3601860058460ff16901b178461344d90919063ffffffff16565b6132c98160018561348d9092919063ffffffff16565b5061339c565b61ffff8111613311576132f5601960058460ff16901b178461344d90919063ffffffff16565b61330b8160028561348d9092919063ffffffff16565b5061339b565b63ffffffff811161335557613339601a60058460ff16901b178461344d90919063ffffffff16565b61334f8160048561348d9092919063ffffffff16565b5061339a565b67ffffffffffffffff811161339957613381601b60058460ff16901b178461344d90919063ffffffff16565b6133978160088561348d9092919063ffffffff16565b505b5b5b5b5b505050565b6133aa613629565b826020015183600001515183510111156133da576133d98360026133d3866020015186516134f4565b02613510565b5b60008060008451905085518051602081830101945086518101825260208701935050505b6020811061342157815183526020830192506020820191506020810390506133fe565b60006001826020036101000a039050801983511681855116818117865250508694505050505092915050565b8160200151600183600001515101111561347357613472826002846020015102613510565b5b815180516020818301018381536001820183525050505050565b613495613629565b8360200151846000015151830111156134c3576134c28460026134bc8760200151866134f4565b02613510565b5b60006001836101000a0390508451805184818301018684198251161781528582018352505050849150509392505050565b6000818311156135065782905061350a565b8190505b92915050565b60608260000151905061352383836131b6565b61352d83826133a2565b50505050565b6040518061012001604052806000815260200160008019168152602001600081526020016000815260200160008152602001600081526020016000815260200160008152602001600081525090565b60405180608001604052806004905b60608152602001906001900390816135915790505090565b828054600181600116156101000203166002900490600052602060002090601f016020900481019282601f106135ea57805160ff1916838001178555613618565b82800160010185558215613618579182015b828111156136175782518255916020019190600101906135fc565b5b5090506136259190613643565b5090565b604051806040016040528060608152602001600081525090565b61366591905b80821115613661576000816000905550600101613649565b5090565b9056fe50726f7661626c652071756572792073656e742c2077616974696e6720666f7220726573706f6e73652e2e2e52657175657374656420616d6f756e74206578656564732063757272656e742062616c616e636552616e646f6d204e756d626572206e6f742075706461746564202d20524553554c54204e4f542031204f522030a265627a7a723158205806d40cbb9dc161aa3b170c6f8fbb140d5410c943ccd3ce902cd3d1d940894d64736f6c634300050c0032",
  "source": "import \"./Ownable.sol\";\r\nimport \"./provableAPI.sol\";\r\npragma solidity 0.5.12;\r\n\r\ncontract Coinflip is Ownable, usingProvable{\r\n\r\n  struct Player{\r\n    uint id;\r\n    bytes32 queryId;\r\n    uint lastRandomNumber;\r\n    uint lastBetValue;\r\n    uint lastResult;\r\n    uint lastWin;\r\n    uint totalWin;\r\n    uint totalPlay;\r\n    uint totalWon;\r\n  }\r\n\r\n  event coinflipResult(uint result, uint winnings);\r\n  event uncoughtException(string message);\r\n  event hasBeenWithdrawn(uint toTransfer);\r\n  event playerCreated(string message);\r\n  event playerUpdated(uint lastResult, uint lastWin, uint totalWin, uint totalPlay, uint totalWon);\r\n  event playerQueryUpdate(string message);\r\n  event generatedRandomNumber(uint randomNumber);\r\n  event logNewProvableQuery(string message);\r\n\r\n  uint private balance;\r\n  mapping (address => Player) private player;\r\n  mapping (bytes32 => address) private queries;\r\n  address[] private players;\r\n  uint constant NUM_RANDOM_BYTES_REQUESTED = 1;\r\n\r\n  function createPlayer() private{\r\n    Player memory newPlayer;\r\n    newPlayer.id = 1;\r\n    newPlayer.queryId = 0;\r\n    newPlayer.lastRandomNumber = 0;\r\n    newPlayer.lastBetValue = 0;\r\n    newPlayer.lastWin = 0;\r\n    newPlayer.totalWin = 0;\r\n    newPlayer.totalPlay = 0;\r\n    newPlayer.totalWon = 0;\r\n\r\n    insertPlayer(newPlayer);\r\n    players.push(msg.sender);\r\n\r\n    emit playerCreated(\"New Player created\");\r\n  }\r\n\r\n  function insertPlayer(Player memory _newPlayer) private{\r\n    address creator = msg.sender;\r\n    player[creator] = _newPlayer;\r\n  }\r\n\r\n  function getPlayer() public view returns(uint lastResult, uint lastWin, uint totalWin, uint totalPlay, uint totalWon){\r\n    address creator = msg.sender;\r\n    return (player[creator].lastResult, player[creator].lastWin, player[creator].totalWin, player[creator].totalPlay, player[creator].totalWon);\r\n  }\r\n\r\n  function updatePlayer(uint _lastResult, uint _lastWin) private {\r\n    address _creator = msg.sender;\r\n    player[_creator].lastResult = _lastResult;\r\n    player[_creator].lastWin = _lastWin;\r\n    player[_creator].totalWin += _lastResult;\r\n    player[_creator].totalPlay += 1;\r\n    player[_creator].totalWon += _lastWin;\r\n    emit playerUpdated(player[_creator].lastResult, player[_creator].lastWin, player[_creator].totalWin, player[_creator].totalPlay, player[_creator].totalWon);\r\n  }\r\n\r\n  function updatePlayerQuery(address _creator, bytes32 _queryId, uint _randomNumber) private {\r\n    queries[_queryId] = _creator;\r\n    player[_creator].queryId = _queryId;\r\n    player[_creator].lastRandomNumber = _randomNumber;\r\n    emit playerQueryUpdate(\"Player query updated\");\r\n  }\r\n\r\n  function updateBetValue(address _creator, uint _betValue) private{\r\n    player[_creator].lastBetValue = _betValue;\r\n  }\r\n\r\n\r\n  function playerNotExists() private view returns (bool exists){\r\n    address creator = msg.sender;\r\n    if (player[creator].id != 0){\r\n      exists = false;\r\n    }\r\n    else{\r\n      exists = true;\r\n    }\r\n    return exists;\r\n  }\r\n\r\n  /*function random() private view returns(uint result){\r\n    uint res = block.timestamp % 2;\r\n    return res;\r\n  }*/\r\n\r\n  function __callback(bytes32 _queryId, string memory _result, bytes memory _proof) public {\r\n    require(msg.sender == provable_cbAddress());\r\n    address creator = queries[_queryId];\r\n\r\n    uint randomNumber = uint(keccak256(abi.encodePacked(_result))) % 2;\r\n    updatePlayerQuery(creator, 0, randomNumber);\r\n    payout(creator);\r\n    emit generatedRandomNumber(randomNumber);\r\n  }\r\n\r\n  function oracleRandom() private {\r\n    address creator = msg.sender;\r\n    uint QUERY_EXECUTION_DELAY = 0;\r\n    uint GAS_FOR_CALLBACK = 2000000;\r\n    bytes32 queryId = provable_newRandomDSQuery( QUERY_EXECUTION_DELAY, NUM_RANDOM_BYTES_REQUESTED, GAS_FOR_CALLBACK);\r\n    updatePlayerQuery(creator, queryId, 100);\r\n    emit logNewProvableQuery(\"Provable query sent, waiting for response...\");\r\n  }\r\n\r\n\r\n  function coinFlip() payable public{\r\n    uint bet_value = msg.value;\r\n    address creator = msg.sender;\r\n    //uint winnings;\r\n    //uint winner;\r\n    require(msg.value <= balance, \"Insufficient contract balance\");\r\n    require(player[creator].queryId == 0, \"Current result pending\");\r\n\r\n    if (playerNotExists()){\r\n      createPlayer();\r\n    }\r\n\r\n    updateBetValue(creator, bet_value);\r\n\r\n    oracleRandom();\r\n\r\n    //uint res = random();\r\n    //uint res = block.timestamp % 2;\r\n    /*if(res == 0){\r\n      winner = 0;\r\n      balance = balance + bet_value;\r\n      winnings = 0;\r\n      emit coinflipResult(res, winnings);\r\n    }\r\n    else if(res == 1){\r\n      winner = 1;\r\n      winnings = 2* bet_value;\r\n      balance = balance - bet_value;\r\n      msg.sender.transfer(winnings);\r\n      emit coinflipResult(res, winnings);\r\n    }\r\n    else{\r\n      emit uncoughtException(1);\r\n    }\r\n    updatePlayer(winner, winnings);\r\n    return (winner, winnings);\r\n    */\r\n  }\r\n\r\n  function payout(address _creator) private{\r\n    uint winnings;\r\n    uint winner;\r\n    address payable payCreator = address(uint160(_creator));\r\n    require(player[_creator].queryId == 0, \"No payout, query still pending\");\r\n\r\n    uint res = player[_creator].lastRandomNumber;\r\n\r\n    if(res == 0){\r\n      winner = 0;\r\n      balance = balance + player[_creator].lastBetValue;\r\n      winnings = 0;\r\n    }\r\n    else if(res == 1){\r\n      winner = 1;\r\n      winnings = 2* player[_creator].lastBetValue;\r\n      balance = balance - player[_creator].lastBetValue;\r\n      payCreator.transfer(winnings);\r\n    }\r\n    else{\r\n      emit uncoughtException(\"Random Number not updated - RESULT NOT 1 OR 0\");\r\n    }\r\n    updatePlayer(winner, winnings);\r\n    emit coinflipResult(res, winnings);\r\n  }\r\n\r\n  function depositeBalance() public onlyOwner payable returns(uint) {\r\n      uint newBalance = balance + msg.value;\r\n      balance = newBalance;\r\n      return newBalance;\r\n  }\r\n\r\n  function withdrawAll() public onlyOwner payable returns(uint) {\r\n      uint toTransfer = balance;\r\n      balance = 0;\r\n      msg.sender.transfer(toTransfer);\r\n      emit hasBeenWithdrawn(toTransfer);\r\n      return toTransfer;\r\n  }\r\n\r\n  function withdrawAmount(uint _amount) public onlyOwner payable returns(uint) {\r\n      require(_amount <= balance, \"Requested amount exeeds current balance\");\r\n      balance = balance - _amount;\r\n      msg.sender.transfer(_amount);\r\n      emit hasBeenWithdrawn(_amount);\r\n      return _amount;\r\n  }\r\n\r\n  function getBalance() public view returns(uint){\r\n    return balance;\r\n  }\r\n\r\n  function isQueryPending() public view returns(uint){\r\n    address creator = msg.sender;\r\n    if(player[creator].queryId == 0){\r\n      return 0;\r\n    }\r\n    else{\r\n      return 1;\r\n    }\r\n  }\r\n\r\n}\r\n",
  "sourcePath": "D:\\Blockchain_Programming\\Solidity_201\\Coinflip\\contract\\contracts\\coinflip.sol",
  "compiler": {
    "name": "solc",
    "version": "0.5.12+commit.7709ece9.Emscripten.clang"
  },
  "schemaVersion": "3.0.23",
  "updatedAt": "2020-11-03T19:34:10.883Z",
  "networkType": "ethereum",
  "devdoc": {
    "methods": {
      "__callback(bytes32,string)": {
        "details": "The following `__callback` functions are just placeholders ideally     meant to be defined in child contract when proofs are used.     The function bodies simply silence compiler warnings."
      }
    }
  },
  "userdoc": {
    "methods": {}
  }
}