{
  "contractName": "Coinflip",
  "abi": [
    {
      "anonymous": false,
      "inputs": [
        {
          "indexed": false,
          "internalType": "uint256",
          "name": "value",
          "type": "uint256"
        }
      ],
      "name": "currentBetValue",
      "type": "event"
    },
    {
      "anonymous": false,
      "inputs": [
        {
          "indexed": false,
          "internalType": "uint256",
          "name": "randomNumber",
          "type": "uint256"
        }
      ],
      "name": "generatedRandomNumber",
      "type": "event"
    },
    {
      "anonymous": false,
      "inputs": [
        {
          "indexed": false,
          "internalType": "uint256",
          "name": "toTransfer",
          "type": "uint256"
        }
      ],
      "name": "hasBeenWithdrawn",
      "type": "event"
    },
    {
      "anonymous": false,
      "inputs": [
        {
          "indexed": false,
          "internalType": "string",
          "name": "message",
          "type": "string"
        }
      ],
      "name": "logNewProvableQuery",
      "type": "event"
    },
    {
      "anonymous": false,
      "inputs": [
        {
          "indexed": false,
          "internalType": "string",
          "name": "message",
          "type": "string"
        }
      ],
      "name": "logNewQueryResponse",
      "type": "event"
    },
    {
      "anonymous": false,
      "inputs": [
        {
          "indexed": false,
          "internalType": "string",
          "name": "message",
          "type": "string"
        }
      ],
      "name": "newPayoutInitiated",
      "type": "event"
    },
    {
      "anonymous": false,
      "inputs": [
        {
          "indexed": false,
          "internalType": "uint256",
          "name": "payout",
          "type": "uint256"
        }
      ],
      "name": "payedOut",
      "type": "event"
    },
    {
      "anonymous": false,
      "inputs": [
        {
          "indexed": false,
          "internalType": "string",
          "name": "message",
          "type": "string"
        }
      ],
      "name": "playerCreated",
      "type": "event"
    },
    {
      "anonymous": false,
      "inputs": [
        {
          "indexed": false,
          "internalType": "string",
          "name": "message",
          "type": "string"
        }
      ],
      "name": "playerQueryUpdate",
      "type": "event"
    },
    {
      "anonymous": false,
      "inputs": [
        {
          "indexed": false,
          "internalType": "uint256",
          "name": "lastResult",
          "type": "uint256"
        },
        {
          "indexed": false,
          "internalType": "uint256",
          "name": "lastWin",
          "type": "uint256"
        },
        {
          "indexed": false,
          "internalType": "uint256",
          "name": "totalWin",
          "type": "uint256"
        },
        {
          "indexed": false,
          "internalType": "uint256",
          "name": "totalPlay",
          "type": "uint256"
        },
        {
          "indexed": false,
          "internalType": "uint256",
          "name": "totalWon",
          "type": "uint256"
        }
      ],
      "name": "playerUpdated",
      "type": "event"
    },
    {
      "anonymous": false,
      "inputs": [
        {
          "indexed": false,
          "internalType": "string",
          "name": "message",
          "type": "string"
        }
      ],
      "name": "uncoughtException",
      "type": "event"
    },
    {
      "constant": true,
      "inputs": [],
      "name": "owner",
      "outputs": [
        {
          "internalType": "address",
          "name": "",
          "type": "address"
        }
      ],
      "payable": false,
      "stateMutability": "view",
      "type": "function"
    },
    {
      "constant": true,
      "inputs": [],
      "name": "getPlayer",
      "outputs": [
        {
          "internalType": "uint256",
          "name": "lastRandomNumber",
          "type": "uint256"
        },
        {
          "internalType": "uint256",
          "name": "lastResult",
          "type": "uint256"
        },
        {
          "internalType": "uint256",
          "name": "lastBetValue",
          "type": "uint256"
        },
        {
          "internalType": "uint256",
          "name": "lastWin",
          "type": "uint256"
        },
        {
          "internalType": "uint256",
          "name": "totalWin",
          "type": "uint256"
        },
        {
          "internalType": "uint256",
          "name": "totalPlay",
          "type": "uint256"
        },
        {
          "internalType": "uint256",
          "name": "totalWon",
          "type": "uint256"
        },
        {
          "internalType": "uint256",
          "name": "lastWinPayed",
          "type": "uint256"
        },
        {
          "internalType": "uint256",
          "name": "unpayedWinnings",
          "type": "uint256"
        }
      ],
      "payable": false,
      "stateMutability": "view",
      "type": "function"
    },
    {
      "constant": false,
      "inputs": [
        {
          "internalType": "bytes32",
          "name": "_myid",
          "type": "bytes32"
        },
        {
          "internalType": "string",
          "name": "_result",
          "type": "string"
        }
      ],
      "name": "__callback",
      "outputs": [],
      "payable": false,
      "stateMutability": "nonpayable",
      "type": "function"
    },
    {
      "constant": false,
      "inputs": [
        {
          "internalType": "bytes32",
          "name": "_queryId",
          "type": "bytes32"
        },
        {
          "internalType": "string",
          "name": "_result",
          "type": "string"
        },
        {
          "internalType": "bytes",
          "name": "_proof",
          "type": "bytes"
        }
      ],
      "name": "__callback",
      "outputs": [],
      "payable": false,
      "stateMutability": "nonpayable",
      "type": "function"
    },
    {
      "constant": false,
      "inputs": [],
      "name": "coinFlip",
      "outputs": [],
      "payable": true,
      "stateMutability": "payable",
      "type": "function"
    },
    {
      "constant": false,
      "inputs": [],
      "name": "payout",
      "outputs": [
        {
          "internalType": "uint256",
          "name": "",
          "type": "uint256"
        }
      ],
      "payable": true,
      "stateMutability": "payable",
      "type": "function"
    },
    {
      "constant": false,
      "inputs": [],
      "name": "depositeBalance",
      "outputs": [
        {
          "internalType": "uint256",
          "name": "",
          "type": "uint256"
        }
      ],
      "payable": true,
      "stateMutability": "payable",
      "type": "function"
    },
    {
      "constant": false,
      "inputs": [],
      "name": "withdrawAll",
      "outputs": [
        {
          "internalType": "uint256",
          "name": "",
          "type": "uint256"
        }
      ],
      "payable": true,
      "stateMutability": "payable",
      "type": "function"
    },
    {
      "constant": false,
      "inputs": [
        {
          "internalType": "uint256",
          "name": "_amount",
          "type": "uint256"
        }
      ],
      "name": "withdrawAmount",
      "outputs": [
        {
          "internalType": "uint256",
          "name": "",
          "type": "uint256"
        }
      ],
      "payable": true,
      "stateMutability": "payable",
      "type": "function"
    },
    {
      "constant": true,
      "inputs": [],
      "name": "getBalance",
      "outputs": [
        {
          "internalType": "uint256",
          "name": "",
          "type": "uint256"
        }
      ],
      "payable": false,
      "stateMutability": "view",
      "type": "function"
    },
    {
      "constant": true,
      "inputs": [],
      "name": "isQueryPending",
      "outputs": [
        {
          "internalType": "uint256",
          "name": "",
          "type": "uint256"
        }
      ],
      "payable": false,
      "stateMutability": "view",
      "type": "function"
    }
  ],
  "bytecode": "0x6080604052336000806101000a81548173ffffffffffffffffffffffffffffffffffffffff021916908373ffffffffffffffffffffffffffffffffffffffff160217905550613b3b806100536000396000f3fe60806040526004361061009c5760003560e01c806338bbfa501161006457806338bbfa501461026e57806340462b5b146103d75780635ac947cb146103f557806363bd1d4a146103ff578063853828b61461041d5780638da5cb5b1461043b5761009c565b80630562b9f7146100a157806312065fe0146100e357806327dc297e1461010e5780633308f42d146101e057806337a4cb9514610243575b600080fd5b6100cd600480360360208110156100b757600080fd5b8101908080359060200190929190505050610492565b6040518082815260200191505060405180910390f35b3480156100ef57600080fd5b506100f8610603565b6040518082815260200191505060405180910390f35b34801561011a57600080fd5b506101de6004803603604081101561013157600080fd5b81019080803590602001909291908035906020019064010000000081111561015857600080fd5b82018360208201111561016a57600080fd5b8035906020019184600183028401116401000000008311171561018c57600080fd5b91908080601f016020809104026020016040519081016040528093929190818152602001838380828437600081840152601f19601f820116905080830192505050505050509192919290505050610622565b005b3480156101ec57600080fd5b506101f5610665565b604051808a8152602001898152602001888152602001878152602001868152602001858152602001848152602001838152602001828152602001995050505050505050505060405180910390f35b34801561024f57600080fd5b506102586108f0565b6040518082815260200191505060405180910390f35b34801561027a57600080fd5b506103d56004803603606081101561029157600080fd5b8101908080359060200190929190803590602001906401000000008111156102b857600080fd5b8201836020820111156102ca57600080fd5b803590602001918460018302840111640100000000831117156102ec57600080fd5b91908080601f016020809104026020016040519081016040528093929190818152602001838380828437600081840152601f19601f8201169050808301925050505050505091929192908035906020019064010000000081111561034f57600080fd5b82018360208201111561036157600080fd5b8035906020019184600183028401116401000000008311171561038357600080fd5b91908080601f016020809104026020016040519081016040528093929190818152602001838380828437600081840152601f19601f820116905080830192505050505050509192919290505050610956565b005b6103df610b7d565b6040518082815260200191505060405180910390f35b6103fd610c04565b005b610407610db8565b6040518082815260200191505060405180910390f35b61042561107c565b6040518082815260200191505060405180910390f35b34801561044757600080fd5b50610450611180565b604051808273ffffffffffffffffffffffffffffffffffffffff1673ffffffffffffffffffffffffffffffffffffffff16815260200191505060405180910390f35b60008060009054906101000a900473ffffffffffffffffffffffffffffffffffffffff1673ffffffffffffffffffffffffffffffffffffffff163373ffffffffffffffffffffffffffffffffffffffff16146104ed57600080fd5b3073ffffffffffffffffffffffffffffffffffffffff163182111561055d576040517f08c379a0000000000000000000000000000000000000000000000000000000008152600401808060200182810382526027815260200180613ae06027913960400191505060405180910390fd5b813073ffffffffffffffffffffffffffffffffffffffff1631036006819055503373ffffffffffffffffffffffffffffffffffffffff166108fc839081150290604051600060405180830381858888f193505050501580156105c3573d6000803e3d6000fd5b507f7b69a3f83ed37f0277c8f1c570ca1f7e8bdf5e23b6a371f8d21b0266b7e280dc826040518082815260200191505060405180910390a1819050919050565b60003073ffffffffffffffffffffffffffffffffffffffff1631905090565b610661828260006040519080825280601f01601f19166020018201604052801561065b5781602001600182028038833980820191505090505b50610956565b5050565b600080600080600080600080600080339050600760008273ffffffffffffffffffffffffffffffffffffffff1673ffffffffffffffffffffffffffffffffffffffff16815260200190815260200160002060020154600760008373ffffffffffffffffffffffffffffffffffffffff1673ffffffffffffffffffffffffffffffffffffffff16815260200190815260200160002060040154600760008473ffffffffffffffffffffffffffffffffffffffff1673ffffffffffffffffffffffffffffffffffffffff16815260200190815260200160002060030154600760008573ffffffffffffffffffffffffffffffffffffffff1673ffffffffffffffffffffffffffffffffffffffff16815260200190815260200160002060050154600760008673ffffffffffffffffffffffffffffffffffffffff1673ffffffffffffffffffffffffffffffffffffffff16815260200190815260200160002060060154600760008773ffffffffffffffffffffffffffffffffffffffff1673ffffffffffffffffffffffffffffffffffffffff16815260200190815260200160002060070154600760008873ffffffffffffffffffffffffffffffffffffffff1673ffffffffffffffffffffffffffffffffffffffff16815260200190815260200160002060080154600760008973ffffffffffffffffffffffffffffffffffffffff1673ffffffffffffffffffffffffffffffffffffffff16815260200190815260200160002060090154600760008a73ffffffffffffffffffffffffffffffffffffffff1673ffffffffffffffffffffffffffffffffffffffff168152602001908152602001600020600a015499509950995099509950995099509950995050909192939495969798565b6000803390506000801b600760008373ffffffffffffffffffffffffffffffffffffffff1673ffffffffffffffffffffffffffffffffffffffff16815260200190815260200160002060010154141561094d576000915050610953565b60019150505b90565b61095e6111a5565b73ffffffffffffffffffffffffffffffffffffffff163373ffffffffffffffffffffffffffffffffffffffff161461099557600080fd5b60006008600085815260200190815260200160002060009054906101000a900473ffffffffffffffffffffffffffffffffffffffff1690507fe80e89978b593ab4072e6ca63de1dcd5e2e982a30ed2c2e68b056a496237ed4a6040518080602001828103825260178152602001807f517565727920726573706f6e736520726563656976656400000000000000000081525060200191505060405180910390a160006002846040516020018082805190602001908083835b60208310610a705780518252602082019150602081019050602083039250610a4d565b6001836020036101000a0380198251168184511680821785525050505050509050019150506040516020818303038152906040528051906020012060001c81610ab557fe5b069050610ac6826000801b836114c5565b6001811415610b27576000600760008473ffffffffffffffffffffffffffffffffffffffff1673ffffffffffffffffffffffffffffffffffffffff168152602001908152602001600020600301549050610b21838383611612565b50610b34565b610b3382826000611612565b5b7fc13d60fe9dffdb6908d2d446cd18134373a51db0738ee04f296eeb9128121cbc816040518082815260200191505060405180910390a1610b76826000611a25565b5050505050565b60008060009054906101000a900473ffffffffffffffffffffffffffffffffffffffff1673ffffffffffffffffffffffffffffffffffffffff163373ffffffffffffffffffffffffffffffffffffffff1614610bd857600080fd5b6000343073ffffffffffffffffffffffffffffffffffffffff1631019050806006819055508091505090565b600034905060003390507fbd084f378aa981dc0c073e8919d9c673b9650a92252f0d0fef72a951fe34a7f7826040518082815260200191505060405180910390a13073ffffffffffffffffffffffffffffffffffffffff1631341115610cd2576040517f08c379a000000000000000000000000000000000000000000000000000000000815260040180806020018281038252601d8152602001807f496e73756666696369656e7420636f6e74726163742062616c616e636500000081525060200191505060405180910390fd5b6000801b600760008373ffffffffffffffffffffffffffffffffffffffff1673ffffffffffffffffffffffffffffffffffffffff1681526020019081526020016000206001015414610d8c576040517f08c379a00000000000000000000000000000000000000000000000000000000081526004018080602001828103825260168152602001807f43757272656e7420726573756c742070656e64696e670000000000000000000081525060200191505060405180910390fd5b610d94611a70565b15610da257610da1611ad5565b5b610dac8183611c2a565b610db4611c75565b5050565b6000803390506000600760008373ffffffffffffffffffffffffffffffffffffffff1673ffffffffffffffffffffffffffffffffffffffff1681526020019081526020016000206009015414610e76576040517f08c379a00000000000000000000000000000000000000000000000000000000081526004018080602001828103825260138152602001807f4e6f207061796f757420617661696c61626c650000000000000000000000000081525060200191505060405180910390fd5b6000600760008373ffffffffffffffffffffffffffffffffffffffff1673ffffffffffffffffffffffffffffffffffffffff1681526020019081526020016000206002015490507f15a5ee7679db7f4ed3d927d0d4272e28f603ea24efb99f628384d9a7e1c743736040518080602001828103825260108152602001807f5061796f757420696e697469617465640000000000000000000000000000000081525060200191505060405180910390a18173ffffffffffffffffffffffffffffffffffffffff166108fc600760008573ffffffffffffffffffffffffffffffffffffffff1673ffffffffffffffffffffffffffffffffffffffff168152602001908152602001600020600a01549081150290604051600060405180830381858888f19350505050158015610fad573d6000803e3d6000fd5b50610fb9826001611a25565b7f68123c33881765c9f12f1be41125cace484d053266e8316f232daa2a02205e90600760008473ffffffffffffffffffffffffffffffffffffffff1673ffffffffffffffffffffffffffffffffffffffff168152602001908152602001600020600a01546040518082815260200191505060405180910390a1600760008373ffffffffffffffffffffffffffffffffffffffff1673ffffffffffffffffffffffffffffffffffffffff168152602001908152602001600020600a01549250505090565b60008060009054906101000a900473ffffffffffffffffffffffffffffffffffffffff1673ffffffffffffffffffffffffffffffffffffffff163373ffffffffffffffffffffffffffffffffffffffff16146110d757600080fd5b60003073ffffffffffffffffffffffffffffffffffffffff1631905060006006819055503373ffffffffffffffffffffffffffffffffffffffff166108fc829081150290604051600060405180830381858888f19350505050158015611141573d6000803e3d6000fd5b507f7b69a3f83ed37f0277c8f1c570ca1f7e8bdf5e23b6a371f8d21b0266b7e280dc816040518082815260200191505060405180910390a18091505090565b6000809054906101000a900473ffffffffffffffffffffffffffffffffffffffff1681565b60008073ffffffffffffffffffffffffffffffffffffffff16600260009054906101000a900473ffffffffffffffffffffffffffffffffffffffff1673ffffffffffffffffffffffffffffffffffffffff16148061122d5750600061122b600260009054906101000a900473ffffffffffffffffffffffffffffffffffffffff16611d12565b145b1561123e5761123c6000611d1d565b505b600260009054906101000a900473ffffffffffffffffffffffffffffffffffffffff1673ffffffffffffffffffffffffffffffffffffffff166338cc48316040518163ffffffff1660e01b8152600401602060405180830381600087803b1580156112a857600080fd5b505af11580156112bc573d6000803e3d6000fd5b505050506040513d60208110156112d257600080fd5b810190808051906020019092919050505073ffffffffffffffffffffffffffffffffffffffff16600160009054906101000a900473ffffffffffffffffffffffffffffffffffffffff1673ffffffffffffffffffffffffffffffffffffffff161461141d57600260009054906101000a900473ffffffffffffffffffffffffffffffffffffffff1673ffffffffffffffffffffffffffffffffffffffff166338cc48316040518163ffffffff1660e01b8152600401602060405180830381600087803b1580156113a157600080fd5b505af11580156113b5573d6000803e3d6000fd5b505050506040513d60208110156113cb57600080fd5b8101908080519060200190929190505050600160006101000a81548173ffffffffffffffffffffffffffffffffffffffff021916908373ffffffffffffffffffffffffffffffffffffffff1602179055505b600160009054906101000a900473ffffffffffffffffffffffffffffffffffffffff1673ffffffffffffffffffffffffffffffffffffffff1663c281d19e6040518163ffffffff1660e01b815260040160206040518083038186803b15801561148557600080fd5b505afa158015611499573d6000803e3d6000fd5b505050506040513d60208110156114af57600080fd5b8101908080519060200190929190505050905090565b826008600084815260200190815260200160002060006101000a81548173ffffffffffffffffffffffffffffffffffffffff021916908373ffffffffffffffffffffffffffffffffffffffff16021790555081600760008573ffffffffffffffffffffffffffffffffffffffff1673ffffffffffffffffffffffffffffffffffffffff1681526020019081526020016000206001018190555080600760008573ffffffffffffffffffffffffffffffffffffffff1673ffffffffffffffffffffffffffffffffffffffff168152602001908152602001600020600201819055507fb3a497502c339b7c91a10dcf9aef53509ee253bbe392f047ee3eef859cede28e6040518080602001828103825260148152602001807f506c61796572207175657279207570646174656400000000000000000000000081525060200191505060405180910390a1505050565b81600760008573ffffffffffffffffffffffffffffffffffffffff1673ffffffffffffffffffffffffffffffffffffffff1681526020019081526020016000206004018190555080600760008573ffffffffffffffffffffffffffffffffffffffff1673ffffffffffffffffffffffffffffffffffffffff1681526020019081526020016000206005018190555081600760008573ffffffffffffffffffffffffffffffffffffffff1673ffffffffffffffffffffffffffffffffffffffff168152602001908152602001600020600601600082825401925050819055506001600760008573ffffffffffffffffffffffffffffffffffffffff1673ffffffffffffffffffffffffffffffffffffffff1681526020019081526020016000206007016000828254019250508190555080600760008573ffffffffffffffffffffffffffffffffffffffff1673ffffffffffffffffffffffffffffffffffffffff168152602001908152602001600020600801600082825401925050819055506000600760008573ffffffffffffffffffffffffffffffffffffffff1673ffffffffffffffffffffffffffffffffffffffff1681526020019081526020016000206009015414156118345780600202600760008573ffffffffffffffffffffffffffffffffffffffff1673ffffffffffffffffffffffffffffffffffffffff168152602001908152602001600020600a016000828254019250508190555061187f565b80600202600760008573ffffffffffffffffffffffffffffffffffffffff1673ffffffffffffffffffffffffffffffffffffffff168152602001908152602001600020600a01819055505b7f0d78e9af98d447f99fdeb1cb6c3d05b5414b1dc699bff636ae63523d3f28ce4a600760008573ffffffffffffffffffffffffffffffffffffffff1673ffffffffffffffffffffffffffffffffffffffff16815260200190815260200160002060040154600760008673ffffffffffffffffffffffffffffffffffffffff1673ffffffffffffffffffffffffffffffffffffffff16815260200190815260200160002060050154600760008773ffffffffffffffffffffffffffffffffffffffff1673ffffffffffffffffffffffffffffffffffffffff16815260200190815260200160002060060154600760008873ffffffffffffffffffffffffffffffffffffffff1673ffffffffffffffffffffffffffffffffffffffff16815260200190815260200160002060070154600760008973ffffffffffffffffffffffffffffffffffffffff1673ffffffffffffffffffffffffffffffffffffffff16815260200190815260200160002060080154604051808681526020018581526020018481526020018381526020018281526020019550505050505060405180910390a1505050565b80600760008473ffffffffffffffffffffffffffffffffffffffff1673ffffffffffffffffffffffffffffffffffffffff168152602001908152602001600020600901819055505050565b6000803390506000600760008373ffffffffffffffffffffffffffffffffffffffff1673ffffffffffffffffffffffffffffffffffffffff1681526020019081526020016000206000015414611ac95760009150611ace565b600191505b8191505090565b611add613970565b60018160000181815250506000801b8160200181815250506063816040018181525050600081606001818152505060008160a001818152505060008160c001818152505060008160e0018181525050600081610100018181525050600181610120018181525050600081610140018181525050611b5981611d2e565b60093390806001815401808255809150509060018203906000526020600020016000909192909190916101000a81548173ffffffffffffffffffffffffffffffffffffffff021916908373ffffffffffffffffffffffffffffffffffffffff160217905550507f3a3a2024ad24695510ed865ae6c90c126dd5ea7173c8dd02f2dc75e13c2b6ab16040518080602001828103825260128152602001807f4e657720506c617965722063726561746564000000000000000000000000000081525060200191505060405180910390a150565b80600760008473ffffffffffffffffffffffffffffffffffffffff1673ffffffffffffffffffffffffffffffffffffffff168152602001908152602001600020600301819055505050565b600033905060008090506000621e848090506000611c9583600184611deb565b9050611ca3848260646114c5565b3073ffffffffffffffffffffffffffffffffffffffff16316006819055507f94f2559b5e2b297de3db1587daf2352e872ada3dad01dab9ee3733592fa22ed360405180806020018281038252602c815260200180613ab4602c913960400191505060405180910390a150505050565b6000813b9050919050565b6000611d27612386565b9050919050565b600033905081600760008373ffffffffffffffffffffffffffffffffffffffff1673ffffffffffffffffffffffffffffffffffffffff168152602001908152602001600020600082015181600001556020820151816001015560408201518160020155606082015181600301556080820151816004015560a0820151816005015560c0820151816006015560e082015181600701556101008201518160080155610120820151816009015561014082015181600a01559050505050565b60008083118015611dfd575060208311155b611e0657600080fd5b600a84029350606060016040519080825280601f01601f191660200182016040528015611e425781602001600182028038833980820191505090505b5090508360f81b81600081518110611e5657fe5b60200101907effffffffffffffffffffffffffffffffffffffffffffffffffffffffffffff1916908160001a905350606060206040519080825280601f01601f191660200182016040528015611ebb5781602001600182028038833980820191505090505b509050606060206040519080825280601f01601f191660200182016040528015611ef45781602001600182028038833980820191505090505b5090506000611f016128dd565b905060208352424118600143034018602084015260208252806020830152606060206040519080825280601f01601f191660200182016040528015611f555781602001600182028038833980820191505090505b509050886020820152606060086040519080825280601f01601f191660200182016040528015611f945781602001600182028038833980820191505090505b509050611fa78260186008846000612bfd565b50611fb06139cd565b604051806080016040528087815260200188815260200186815260200184815250905060006120156040518060400160405280600681526020017f72616e646f6d0000000000000000000000000000000000000000000000000000815250838c612c5c565b9050606060086040519080825280601f01601f19166020018201604052801561204d5781602001600182028038833980820191505090505b50905060208401517f0100000000000000000000000000000000000000000000000000000000000000810460278301537e01000000000000000000000000000000000000000000000000000000000000810460268301537d010000000000000000000000000000000000000000000000000000000000810460258301537c0100000000000000000000000000000000000000000000000000000000810460248301537b01000000000000000000000000000000000000000000000000000000810460238301537a01000000000000000000000000000000000000000000000000000081046022830153790100000000000000000000000000000000000000000000000000810460218301537801000000000000000000000000000000000000000000000000810460208301535061237382828560016004811061218c57fe5b60200201516002876000600481106121a057fe5b60200201516040518082805190602001908083835b602083106121d857805182526020820191506020810190506020830392506121b5565b6001836020036101000a038019825116818451168082178552505050505050905001915050602060405180830381855afa15801561221a573d6000803e3d6000fd5b5050506040513d602081101561222f57600080fd5b81019080805190602001909291905050508760026004811061224d57fe5b60200201516040516020018085805190602001908083835b602083106122885780518252602082019150602081019050602083039250612265565b6001836020036101000a03801982511681845116808217855250505050505090500184805190602001908083835b602083106122d957805182526020820191506020810190506020830392506122b6565b6001836020036101000a03801982511681845116808217855250505050505090500183815260200182805190602001908083835b60208310612330578051825260208201915060208101905060208303925061230d565b6001836020036101000a03801982511681845116808217855250505050505090500194505050505060405160208183030381529060405280519060200120612fcb565b8199505050505050505050509392505050565b6000806123a6731d3b2638a7cc9f2cb3d298a3da7a90b67e5506ed611d12565b111561244857731d3b2638a7cc9f2cb3d298a3da7a90b67e5506ed600260006101000a81548173ffffffffffffffffffffffffffffffffffffffff021916908373ffffffffffffffffffffffffffffffffffffffff16021790555061243f6040518060400160405280600b81526020017f6574685f6d61696e6e6574000000000000000000000000000000000000000000815250612fe7565b600190506128da565b600061246773c03a2615d5efaf5f49f60b7bb6583eaec212fdf1611d12565b11156125095773c03a2615d5efaf5f49f60b7bb6583eaec212fdf1600260006101000a81548173ffffffffffffffffffffffffffffffffffffffff021916908373ffffffffffffffffffffffffffffffffffffffff1602179055506125006040518060400160405280600c81526020017f6574685f726f707374656e330000000000000000000000000000000000000000815250612fe7565b600190506128da565b600061252873b7a07bcf2ba2f2703b24c0691b5278999c59ac7e611d12565b11156125ca5773b7a07bcf2ba2f2703b24c0691b5278999c59ac7e600260006101000a81548173ffffffffffffffffffffffffffffffffffffffff021916908373ffffffffffffffffffffffffffffffffffffffff1602179055506125c16040518060400160405280600981526020017f6574685f6b6f76616e0000000000000000000000000000000000000000000000815250612fe7565b600190506128da565b60006125e973146500cfd35b22e4a392fe0adc06de1a1368ed48611d12565b111561268b5773146500cfd35b22e4a392fe0adc06de1a1368ed48600260006101000a81548173ffffffffffffffffffffffffffffffffffffffff021916908373ffffffffffffffffffffffffffffffffffffffff1602179055506126826040518060400160405280600b81526020017f6574685f72696e6b656279000000000000000000000000000000000000000000815250612fe7565b600190506128da565b60006126aa73a2998efd205fb9d4b4963afb70778d6354ad3a41611d12565b111561274c5773a2998efd205fb9d4b4963afb70778d6354ad3a41600260006101000a81548173ffffffffffffffffffffffffffffffffffffffff021916908373ffffffffffffffffffffffffffffffffffffffff1602179055506127436040518060400160405280600a81526020017f6574685f676f65726c6900000000000000000000000000000000000000000000815250612fe7565b600190506128da565b600061276b736f485c8bf6fc43ea212e93bbf8ce046c7f1cb475611d12565b11156127cf57736f485c8bf6fc43ea212e93bbf8ce046c7f1cb475600260006101000a81548173ffffffffffffffffffffffffffffffffffffffff021916908373ffffffffffffffffffffffffffffffffffffffff160217905550600190506128da565b60006127ee7320e12a1f859b3feae5fb2a0a32c18f5a65555bbf611d12565b1115612852577320e12a1f859b3feae5fb2a0a32c18f5a65555bbf600260006101000a81548173ffffffffffffffffffffffffffffffffffffffff021916908373ffffffffffffffffffffffffffffffffffffffff160217905550600190506128da565b60006128717351efaf4c8b3c9afbd5ab9f4bbc82784ab6ef8faa611d12565b11156128d5577351efaf4c8b3c9afbd5ab9f4bbc82784ab6ef8faa600260006101000a81548173ffffffffffffffffffffffffffffffffffffffff021916908373ffffffffffffffffffffffffffffffffffffffff160217905550600190506128da565b600090505b90565b60008073ffffffffffffffffffffffffffffffffffffffff16600260009054906101000a900473ffffffffffffffffffffffffffffffffffffffff1673ffffffffffffffffffffffffffffffffffffffff16148061296557506000612963600260009054906101000a900473ffffffffffffffffffffffffffffffffffffffff16611d12565b145b15612976576129746000611d1d565b505b600260009054906101000a900473ffffffffffffffffffffffffffffffffffffffff1673ffffffffffffffffffffffffffffffffffffffff166338cc48316040518163ffffffff1660e01b8152600401602060405180830381600087803b1580156129e057600080fd5b505af11580156129f4573d6000803e3d6000fd5b505050506040513d6020811015612a0a57600080fd5b810190808051906020019092919050505073ffffffffffffffffffffffffffffffffffffffff16600160009054906101000a900473ffffffffffffffffffffffffffffffffffffffff1673ffffffffffffffffffffffffffffffffffffffff1614612b5557600260009054906101000a900473ffffffffffffffffffffffffffffffffffffffff1673ffffffffffffffffffffffffffffffffffffffff166338cc48316040518163ffffffff1660e01b8152600401602060405180830381600087803b158015612ad957600080fd5b505af1158015612aed573d6000803e3d6000fd5b505050506040513d6020811015612b0357600080fd5b8101908080519060200190929190505050600160006101000a81548173ffffffffffffffffffffffffffffffffffffffff021916908373ffffffffffffffffffffffffffffffffffffffff1602179055505b600160009054906101000a900473ffffffffffffffffffffffffffffffffffffffff1673ffffffffffffffffffffffffffffffffffffffff1663abaa5f3e6040518163ffffffff1660e01b815260040160206040518083038186803b158015612bbd57600080fd5b505afa158015612bd1573d6000803e3d6000fd5b505050506040513d6020811015612be757600080fd5b8101908080519060200190929190505050905090565b6060600082850190508084511015612c1457600080fd5b600086602001905060008460200190505b868860200101821015612c4d5781890151808288015250602082019150602081019050612c25565b85935050505095945050505050565b60008073ffffffffffffffffffffffffffffffffffffffff16600260009054906101000a900473ffffffffffffffffffffffffffffffffffffffff1673ffffffffffffffffffffffffffffffffffffffff161480612ce457506000612ce2600260009054906101000a900473ffffffffffffffffffffffffffffffffffffffff16611d12565b145b15612cf557612cf36000611d1d565b505b600260009054906101000a900473ffffffffffffffffffffffffffffffffffffffff1673ffffffffffffffffffffffffffffffffffffffff166338cc48316040518163ffffffff1660e01b8152600401602060405180830381600087803b158015612d5f57600080fd5b505af1158015612d73573d6000803e3d6000fd5b505050506040513d6020811015612d8957600080fd5b810190808051906020019092919050505073ffffffffffffffffffffffffffffffffffffffff16600160009054906101000a900473ffffffffffffffffffffffffffffffffffffffff1673ffffffffffffffffffffffffffffffffffffffff1614612ed457600260009054906101000a900473ffffffffffffffffffffffffffffffffffffffff1673ffffffffffffffffffffffffffffffffffffffff166338cc48316040518163ffffffff1660e01b8152600401602060405180830381600087803b158015612e5857600080fd5b505af1158015612e6c573d6000803e3d6000fd5b505050506040513d6020811015612e8257600080fd5b8101908080519060200190929190505050600160006101000a81548173ffffffffffffffffffffffffffffffffffffffff021916908373ffffffffffffffffffffffffffffffffffffffff1602179055505b60606004604051908082528060200260200182016040528015612f0b57816020015b6060815260200190600190039081612ef65790505b50905083600060048110612f1b57fe5b602002015181600081518110612f2d57fe5b602002602001018190525083600160048110612f4557fe5b602002015181600181518110612f5757fe5b602002602001018190525083600260048110612f6f57fe5b602002015181600281518110612f8157fe5b602002602001018190525083600360048110612f9957fe5b602002015181600381518110612fab57fe5b6020026020010181905250612fc1858285613001565b9150509392505050565b8060046000848152602001908152602001600020819055505050565b8060039080519060200190612ffd9291906139f4565b5050565b60008073ffffffffffffffffffffffffffffffffffffffff16600260009054906101000a900473ffffffffffffffffffffffffffffffffffffffff1673ffffffffffffffffffffffffffffffffffffffff16148061308957506000613087600260009054906101000a900473ffffffffffffffffffffffffffffffffffffffff16611d12565b145b1561309a576130986000611d1d565b505b600260009054906101000a900473ffffffffffffffffffffffffffffffffffffffff1673ffffffffffffffffffffffffffffffffffffffff166338cc48316040518163ffffffff1660e01b8152600401602060405180830381600087803b15801561310457600080fd5b505af1158015613118573d6000803e3d6000fd5b505050506040513d602081101561312e57600080fd5b810190808051906020019092919050505073ffffffffffffffffffffffffffffffffffffffff16600160009054906101000a900473ffffffffffffffffffffffffffffffffffffffff1673ffffffffffffffffffffffffffffffffffffffff161461327957600260009054906101000a900473ffffffffffffffffffffffffffffffffffffffff1673ffffffffffffffffffffffffffffffffffffffff166338cc48316040518163ffffffff1660e01b8152600401602060405180830381600087803b1580156131fd57600080fd5b505af1158015613211573d6000803e3d6000fd5b505050506040513d602081101561322757600080fd5b8101908080519060200190929190505050600160006101000a81548173ffffffffffffffffffffffffffffffffffffffff021916908373ffffffffffffffffffffffffffffffffffffffff1602179055505b6000600160009054906101000a900473ffffffffffffffffffffffffffffffffffffffff1673ffffffffffffffffffffffffffffffffffffffff16632ef3accc86856040518363ffffffff1660e01b81526004018080602001838152602001828103825284818151815260200191508051906020019080838360005b838110156133105780820151818401526020810190506132f5565b50505050905090810190601f16801561333d5780820380516001836020036101000a031916815260200191505b509350505050602060405180830381600087803b15801561335d57600080fd5b505af1158015613371573d6000803e3d6000fd5b505050506040513d602081101561338757600080fd5b81019080805190602001909291905050509050823a02670de0b6b3a7640000018111156133ba576000801b915050613560565b60606133c585613567565b9050600160009054906101000a900473ffffffffffffffffffffffffffffffffffffffff1673ffffffffffffffffffffffffffffffffffffffff1663c55c1cb68360008985896040518663ffffffff1660e01b8152600401808581526020018060200180602001848152602001838103835286818151815260200191508051906020019080838360005b8381101561346a57808201518184015260208101905061344f565b50505050905090810190601f1680156134975780820380516001836020036101000a031916815260200191505b50838103825285818151815260200191508051906020019080838360005b838110156134d05780820151818401526020810190506134b5565b50505050905090810190601f1680156134fd5780820380516001836020036101000a031916815260200191505b5096505050505050506020604051808303818588803b15801561351f57600080fd5b505af1158015613533573d6000803e3d6000fd5b50505050506040513d602081101561354a57600080fd5b8101908080519060200190929190505050925050505b9392505050565b60606135716135e7565b613579613a74565b613585816104006135f3565b61358e8161363d565b60008090505b83518110156135d0576135c38482815181106135ac57fe5b60200260200101518361364b90919063ffffffff16565b8080600101915050613594565b506135da81613670565b8060000151915050919050565b60405180590338823950565b600081905060006020828161360457fe5b061461361d576020818161361457fe5b06602003810190505b808360200181815250506040518084526000815281810160405250505050565b61364881600461367e565b50565b613658826002835161369f565b61366b81836137df90919063ffffffff16565b505050565b61367b81600761367e565b50565b61369b601f60058360ff16901b178361388a90919063ffffffff16565b5050565b601781116136cb576136c68160058460ff16901b60ff16178461388a90919063ffffffff16565b6137da565b60ff811161370c576136f0601860058460ff16901b178461388a90919063ffffffff16565b613706816001856138ca9092919063ffffffff16565b506137d9565b61ffff811161374e57613732601960058460ff16901b178461388a90919063ffffffff16565b613748816002856138ca9092919063ffffffff16565b506137d8565b63ffffffff811161379257613776601a60058460ff16901b178461388a90919063ffffffff16565b61378c816004856138ca9092919063ffffffff16565b506137d7565b67ffffffffffffffff81116137d6576137be601b60058460ff16901b178461388a90919063ffffffff16565b6137d4816008856138ca9092919063ffffffff16565b505b5b5b5b5b505050565b6137e7613a74565b826020015183600001515183510111156138175761381683600261381086602001518651613931565b0261394d565b5b60008060008451905085518051602081830101945086518101825260208701935050505b6020811061385e578151835260208301925060208201915060208103905061383b565b60006001826020036101000a039050801983511681855116818117865250508694505050505092915050565b816020015160018360000151510111156138b0576138af82600284602001510261394d565b5b815180516020818301018381536001820183525050505050565b6138d2613a74565b836020015184600001515183011115613900576138ff8460026138f9876020015186613931565b0261394d565b5b60006001836101000a0390508451805184818301018684198251161781528582018352505050849150509392505050565b60008183111561394357829050613947565b8190505b92915050565b60608260000151905061396083836135f3565b61396a83826137df565b50505050565b60405180610160016040528060008152602001600080191681526020016000815260200160008152602001600081526020016000815260200160008152602001600081526020016000815260200160008152602001600081525090565b60405180608001604052806004905b60608152602001906001900390816139dc5790505090565b828054600181600116156101000203166002900490600052602060002090601f016020900481019282601f10613a3557805160ff1916838001178555613a63565b82800160010185558215613a63579182015b82811115613a62578251825591602001919060010190613a47565b5b509050613a709190613a8e565b5090565b604051806040016040528060608152602001600081525090565b613ab091905b80821115613aac576000816000905550600101613a94565b5090565b9056fe50726f7661626c652071756572792073656e742c2077616974696e6720666f7220726573706f6e73652e2e2e52657175657374656420616d6f756e74206578656564732063757272656e742062616c616e6365a265627a7a72315820b4e342bbadfe14c185613e964853dd95a04354a44127a07518c8648fc7b80fb064736f6c634300050c0032",
  "source": "import \"./Ownable.sol\";\r\nimport \"./provableAPI.sol\";\r\npragma solidity 0.5.12;\r\n\r\ncontract Coinflip is Ownable, usingProvable{\r\n\r\n  struct Player{\r\n    uint id;\r\n    bytes32 queryId;\r\n    uint lastRandomNumber;\r\n    uint lastBetValue;\r\n    uint lastResult;\r\n    uint lastWin;\r\n    uint totalWin;\r\n    uint totalPlay;\r\n    uint totalWon;\r\n    uint lastWinPayed;\r\n    uint unpayedWinnings;\r\n  }\r\n\r\n  event payedOut(uint payout);\r\n  event uncoughtException(string message);\r\n  event hasBeenWithdrawn(uint toTransfer);\r\n  event playerCreated(string message);\r\n  event playerUpdated(uint lastResult, uint lastWin, uint totalWin, uint totalPlay, uint totalWon);\r\n  event playerQueryUpdate(string message);\r\n  event generatedRandomNumber(uint randomNumber);\r\n  event logNewProvableQuery(string message);\r\n  event logNewQueryResponse(string message);\r\n  event newPayoutInitiated(string message);\r\n  event currentBetValue(uint value);\r\n\r\n  uint private balance;\r\n  mapping (address => Player) private player;\r\n  mapping (bytes32 => address) private queries;\r\n  address[] private players;\r\n  uint constant NUM_RANDOM_BYTES_REQUESTED = 1;\r\n\r\n  function createPlayer() private{\r\n    Player memory newPlayer;\r\n    newPlayer.id = 1;\r\n    newPlayer.queryId = 0;\r\n    newPlayer.lastRandomNumber = 99;\r\n    newPlayer.lastBetValue = 0;\r\n    newPlayer.lastWin = 0;\r\n    newPlayer.totalWin = 0;\r\n    newPlayer.totalPlay = 0;\r\n    newPlayer.totalWon = 0;\r\n    newPlayer.lastWinPayed = 1;\r\n    newPlayer.unpayedWinnings = 0;\r\n\r\n    insertPlayer(newPlayer);\r\n    players.push(msg.sender);\r\n\r\n    emit playerCreated(\"New Player created\");\r\n  }\r\n\r\n  function insertPlayer(Player memory _newPlayer) private{\r\n    address creator = msg.sender;\r\n    player[creator] = _newPlayer;\r\n  }\r\n\r\n  function getPlayer() public view returns(uint lastRandomNumber, uint lastResult, uint lastBetValue, uint lastWin, uint totalWin, uint totalPlay, uint totalWon, uint lastWinPayed, uint unpayedWinnings){\r\n    address creator = msg.sender;\r\n    return (player[creator].lastRandomNumber, player[creator].lastResult, player[creator].lastBetValue,\r\n      player[creator].lastWin, player[creator].totalWin, player[creator].totalPlay, player[creator].totalWon,\r\n      player[creator].lastWinPayed, player[creator].unpayedWinnings);\r\n  }\r\n\r\n  function updatePlayer(address _creator, uint _lastResult, uint _lastWin) private {\r\n    player[_creator].lastResult = _lastResult;\r\n    player[_creator].lastWin = _lastWin;\r\n    player[_creator].totalWin += _lastResult;\r\n    player[_creator].totalPlay += 1;\r\n    player[_creator].totalWon += _lastWin;\r\n    if (player[_creator].lastWinPayed == 0){\r\n      player[_creator].unpayedWinnings += 2*_lastWin;\r\n    }\r\n    else{\r\n      player[_creator].unpayedWinnings = 2*_lastWin;\r\n    }\r\n    emit playerUpdated(player[_creator].lastResult, player[_creator].lastWin, player[_creator].totalWin, player[_creator].totalPlay, player[_creator].totalWon);\r\n  }\r\n\r\n  function updatePlayerPayout(address _creator, uint _lastWinPayed) private{\r\n    player[_creator].lastWinPayed = _lastWinPayed;\r\n  }\r\n\r\n  function updatePlayerQuery(address _creator, bytes32 _queryId, uint _randomNumber) private {\r\n    queries[_queryId] = _creator;\r\n    player[_creator].queryId = _queryId;\r\n    player[_creator].lastRandomNumber = _randomNumber;\r\n    emit playerQueryUpdate(\"Player query updated\");\r\n  }\r\n\r\n  function updateBetValue(address _creator, uint _betValue) private{\r\n    player[_creator].lastBetValue = _betValue;\r\n  }\r\n\r\n\r\n  function playerNotExists() private view returns (bool exists){\r\n    address creator = msg.sender;\r\n    if (player[creator].id != 0){\r\n      exists = false;\r\n    }\r\n    else{\r\n      exists = true;\r\n    }\r\n    return exists;\r\n  }\r\n\r\n  /*function random() private view returns(uint result){\r\n    uint res = block.timestamp % 2;\r\n    return res;\r\n  }*/\r\n\r\n  function __callback(bytes32 _queryId, string memory _result, bytes memory _proof) public {\r\n    require(msg.sender == provable_cbAddress());\r\n    address creator = queries[_queryId];\r\n\r\n    emit logNewQueryResponse(\"Query response received\");\r\n\r\n    uint randomNumber = uint(keccak256(abi.encodePacked(_result))) % 2;\r\n    updatePlayerQuery(creator, 0, randomNumber);\r\n    if (randomNumber == 1){\r\n      uint winnings = player[creator].lastBetValue;\r\n      updatePlayer(creator, randomNumber, winnings);\r\n    }\r\n    else{\r\n      updatePlayer(creator, randomNumber, 0);\r\n    }\r\n    emit generatedRandomNumber(randomNumber);\r\n    updatePlayerPayout(creator, 0);\r\n  }\r\n\r\n  function oracleRandom() private {\r\n    address creator = msg.sender;\r\n    uint QUERY_EXECUTION_DELAY = 0;\r\n    uint GAS_FOR_CALLBACK = 2000000;\r\n    bytes32 queryId = provable_newRandomDSQuery( QUERY_EXECUTION_DELAY, NUM_RANDOM_BYTES_REQUESTED, GAS_FOR_CALLBACK);\r\n    updatePlayerQuery(creator, queryId, 100);\r\n    balance = address(this).balance;\r\n    emit logNewProvableQuery(\"Provable query sent, waiting for response...\");\r\n  }\r\n\r\n\r\n  function coinFlip() payable public{\r\n    uint bet_value = msg.value;\r\n    address creator = msg.sender;\r\n    //uint winnings;\r\n    //uint winner;\r\n    emit currentBetValue(bet_value);\r\n    require(msg.value <= address(this).balance, \"Insufficient contract balance\");\r\n    require(player[creator].queryId == 0, \"Current result pending\");\r\n\r\n    if (playerNotExists()){\r\n      createPlayer();\r\n    }\r\n\r\n    updateBetValue(creator, bet_value);\r\n\r\n    oracleRandom();\r\n\r\n    //uint res = random();\r\n    //uint res = block.timestamp % 2;\r\n    /*if(res == 0){\r\n      winner = 0;\r\n      balance = balance + bet_value;\r\n      winnings = 0;\r\n      emit coinflipResult(res, winnings);\r\n    }\r\n    else if(res == 1){\r\n      winner = 1;\r\n      winnings = 2* bet_value;\r\n      balance = balance - bet_value;\r\n      msg.sender.transfer(winnings);\r\n      emit coinflipResult(res, winnings);\r\n    }\r\n    else{\r\n      emit uncoughtException(1);\r\n    }\r\n    updatePlayer(winner, winnings);\r\n    return (winner, winnings);\r\n    */\r\n  }\r\n\r\n  function payout() public payable returns(uint){\r\n    address payable payCreator = msg.sender;\r\n    require(player[payCreator].lastWinPayed == 0, \"No payout available\");\r\n\r\n    uint res = player[payCreator].lastRandomNumber;\r\n    emit newPayoutInitiated(\"Payout initiated\");\r\n\r\n    payCreator.transfer(player[payCreator].unpayedWinnings);\r\n\r\n    updatePlayerPayout(payCreator, 1);\r\n    emit payedOut(player[payCreator].unpayedWinnings);\r\n\r\n    return player[payCreator].unpayedWinnings;\r\n  }\r\n\r\n  function depositeBalance() public onlyOwner payable returns(uint) {\r\n      uint newBalance = address(this).balance + msg.value;\r\n      balance = newBalance;\r\n      return newBalance;\r\n  }\r\n\r\n  function withdrawAll() public onlyOwner payable returns(uint) {\r\n      uint toTransfer = address(this).balance;\r\n      balance = 0;\r\n      msg.sender.transfer(toTransfer);\r\n      emit hasBeenWithdrawn(toTransfer);\r\n      return toTransfer;\r\n  }\r\n\r\n  function withdrawAmount(uint _amount) public onlyOwner payable returns(uint) {\r\n      require(_amount <= address(this).balance, \"Requested amount exeeds current balance\");\r\n      balance = address(this).balance - _amount;\r\n      msg.sender.transfer(_amount);\r\n      emit hasBeenWithdrawn(_amount);\r\n      return _amount;\r\n  }\r\n\r\n  function getBalance() public view returns(uint){\r\n    return address(this).balance;\r\n  }\r\n\r\n  function isQueryPending() public view returns(uint){\r\n    address creator = msg.sender;\r\n    if(player[creator].queryId == 0){\r\n      return 0;\r\n    }\r\n    else{\r\n      return 1;\r\n    }\r\n  }\r\n\r\n}\r\n",
  "sourcePath": "D:\\Blockchain_Programming\\Solidity_201\\Coinflip\\contract\\contracts\\coinflip.sol",
  "compiler": {
    "name": "solc",
    "version": "0.5.12+commit.7709ece9.Emscripten.clang"
  },
  "schemaVersion": "3.0.23",
  "updatedAt": "2020-12-07T10:53:52.585Z",
  "networkType": "ethereum",
  "devdoc": {
    "methods": {
      "__callback(bytes32,string)": {
        "details": "The following `__callback` functions are just placeholders ideally     meant to be defined in child contract when proofs are used.     The function bodies simply silence compiler warnings."
      }
    }
  },
  "userdoc": {
    "methods": {}
  }
}