{
  "contractName": "Coinflip",
  "abi": [
    {
      "anonymous": false,
      "inputs": [
        {
          "indexed": false,
          "internalType": "uint256",
          "name": "result",
          "type": "uint256"
        },
        {
          "indexed": false,
          "internalType": "uint256",
          "name": "winnings",
          "type": "uint256"
        }
      ],
      "name": "coinflipResult",
      "type": "event"
    },
    {
      "anonymous": false,
      "inputs": [
        {
          "indexed": false,
          "internalType": "uint256",
          "name": "value",
          "type": "uint256"
        }
      ],
      "name": "currentBetValue",
      "type": "event"
    },
    {
      "anonymous": false,
      "inputs": [
        {
          "indexed": false,
          "internalType": "uint256",
          "name": "randomNumber",
          "type": "uint256"
        }
      ],
      "name": "generatedRandomNumber",
      "type": "event"
    },
    {
      "anonymous": false,
      "inputs": [
        {
          "indexed": false,
          "internalType": "uint256",
          "name": "toTransfer",
          "type": "uint256"
        }
      ],
      "name": "hasBeenWithdrawn",
      "type": "event"
    },
    {
      "anonymous": false,
      "inputs": [
        {
          "indexed": false,
          "internalType": "string",
          "name": "message",
          "type": "string"
        }
      ],
      "name": "logNewProvableQuery",
      "type": "event"
    },
    {
      "anonymous": false,
      "inputs": [
        {
          "indexed": false,
          "internalType": "string",
          "name": "message",
          "type": "string"
        }
      ],
      "name": "logNewQueryResponse",
      "type": "event"
    },
    {
      "anonymous": false,
      "inputs": [
        {
          "indexed": false,
          "internalType": "string",
          "name": "message",
          "type": "string"
        }
      ],
      "name": "newPayoutInitiated",
      "type": "event"
    },
    {
      "anonymous": false,
      "inputs": [
        {
          "indexed": false,
          "internalType": "string",
          "name": "message",
          "type": "string"
        }
      ],
      "name": "playerCreated",
      "type": "event"
    },
    {
      "anonymous": false,
      "inputs": [
        {
          "indexed": false,
          "internalType": "string",
          "name": "message",
          "type": "string"
        }
      ],
      "name": "playerQueryUpdate",
      "type": "event"
    },
    {
      "anonymous": false,
      "inputs": [
        {
          "indexed": false,
          "internalType": "uint256",
          "name": "lastResult",
          "type": "uint256"
        },
        {
          "indexed": false,
          "internalType": "uint256",
          "name": "lastWin",
          "type": "uint256"
        },
        {
          "indexed": false,
          "internalType": "uint256",
          "name": "totalWin",
          "type": "uint256"
        },
        {
          "indexed": false,
          "internalType": "uint256",
          "name": "totalPlay",
          "type": "uint256"
        },
        {
          "indexed": false,
          "internalType": "uint256",
          "name": "totalWon",
          "type": "uint256"
        }
      ],
      "name": "playerUpdated",
      "type": "event"
    },
    {
      "anonymous": false,
      "inputs": [
        {
          "indexed": false,
          "internalType": "uint256",
          "name": "res",
          "type": "uint256"
        }
      ],
      "name": "showResult",
      "type": "event"
    },
    {
      "anonymous": false,
      "inputs": [
        {
          "indexed": false,
          "internalType": "string",
          "name": "message",
          "type": "string"
        }
      ],
      "name": "uncoughtException",
      "type": "event"
    },
    {
      "constant": true,
      "inputs": [],
      "name": "owner",
      "outputs": [
        {
          "internalType": "address",
          "name": "",
          "type": "address"
        }
      ],
      "payable": false,
      "stateMutability": "view",
      "type": "function"
    },
    {
      "constant": true,
      "inputs": [],
      "name": "getPlayer",
      "outputs": [
        {
          "internalType": "uint256",
          "name": "lastResult",
          "type": "uint256"
        },
        {
          "internalType": "uint256",
          "name": "lastBetValue",
          "type": "uint256"
        },
        {
          "internalType": "uint256",
          "name": "lastWin",
          "type": "uint256"
        },
        {
          "internalType": "uint256",
          "name": "totalWin",
          "type": "uint256"
        },
        {
          "internalType": "uint256",
          "name": "totalPlay",
          "type": "uint256"
        },
        {
          "internalType": "uint256",
          "name": "totalWon",
          "type": "uint256"
        }
      ],
      "payable": false,
      "stateMutability": "view",
      "type": "function"
    },
    {
      "constant": false,
      "inputs": [
        {
          "internalType": "bytes32",
          "name": "_myid",
          "type": "bytes32"
        },
        {
          "internalType": "string",
          "name": "_result",
          "type": "string"
        }
      ],
      "name": "__callback",
      "outputs": [],
      "payable": false,
      "stateMutability": "nonpayable",
      "type": "function"
    },
    {
      "constant": false,
      "inputs": [
        {
          "internalType": "bytes32",
          "name": "_queryId",
          "type": "bytes32"
        },
        {
          "internalType": "string",
          "name": "_result",
          "type": "string"
        },
        {
          "internalType": "bytes",
          "name": "_proof",
          "type": "bytes"
        }
      ],
      "name": "__callback",
      "outputs": [],
      "payable": false,
      "stateMutability": "nonpayable",
      "type": "function"
    },
    {
      "constant": false,
      "inputs": [],
      "name": "coinFlip",
      "outputs": [],
      "payable": true,
      "stateMutability": "payable",
      "type": "function"
    },
    {
      "constant": false,
      "inputs": [],
      "name": "payout",
      "outputs": [
        {
          "internalType": "uint256",
          "name": "",
          "type": "uint256"
        }
      ],
      "payable": true,
      "stateMutability": "payable",
      "type": "function"
    },
    {
      "constant": false,
      "inputs": [],
      "name": "depositeBalance",
      "outputs": [
        {
          "internalType": "uint256",
          "name": "",
          "type": "uint256"
        }
      ],
      "payable": true,
      "stateMutability": "payable",
      "type": "function"
    },
    {
      "constant": false,
      "inputs": [],
      "name": "withdrawAll",
      "outputs": [
        {
          "internalType": "uint256",
          "name": "",
          "type": "uint256"
        }
      ],
      "payable": true,
      "stateMutability": "payable",
      "type": "function"
    },
    {
      "constant": false,
      "inputs": [
        {
          "internalType": "uint256",
          "name": "_amount",
          "type": "uint256"
        }
      ],
      "name": "withdrawAmount",
      "outputs": [
        {
          "internalType": "uint256",
          "name": "",
          "type": "uint256"
        }
      ],
      "payable": true,
      "stateMutability": "payable",
      "type": "function"
    },
    {
      "constant": true,
      "inputs": [],
      "name": "getBalance",
      "outputs": [
        {
          "internalType": "uint256",
          "name": "",
          "type": "uint256"
        }
      ],
      "payable": false,
      "stateMutability": "view",
      "type": "function"
    },
    {
      "constant": true,
      "inputs": [],
      "name": "isQueryPending",
      "outputs": [
        {
          "internalType": "uint256",
          "name": "",
          "type": "uint256"
        }
      ],
      "payable": false,
      "stateMutability": "view",
      "type": "function"
    }
  ],
  "bytecode": "0x6080604052336000806101000a81548173ffffffffffffffffffffffffffffffffffffffff021916908373ffffffffffffffffffffffffffffffffffffffff160217905550613a5f806100536000396000f3fe60806040526004361061009c5760003560e01c806338bbfa501161006457806338bbfa501461025957806340462b5b146103c25780635ac947cb146103e057806363bd1d4a146103ea578063853828b6146104085780638da5cb5b146104265761009c565b80630562b9f7146100a157806312065fe0146100e357806327dc297e1461010e5780633308f42d146101e057806337a4cb951461022e575b600080fd5b6100cd600480360360208110156100b757600080fd5b810190808035906020019092919050505061047d565b6040518082815260200191505060405180910390f35b3480156100ef57600080fd5b506100f86105ee565b6040518082815260200191505060405180910390f35b34801561011a57600080fd5b506101de6004803603604081101561013157600080fd5b81019080803590602001909291908035906020019064010000000081111561015857600080fd5b82018360208201111561016a57600080fd5b8035906020019184600183028401116401000000008311171561018c57600080fd5b91908080601f016020809104026020016040519081016040528093929190818152602001838380828437600081840152601f19601f82011690508083019250505050505050919291929050505061060d565b005b3480156101ec57600080fd5b506101f5610650565b60405180878152602001868152602001858152602001848152602001838152602001828152602001965050505050505060405180910390f35b34801561023a57600080fd5b50610243610805565b6040518082815260200191505060405180910390f35b34801561026557600080fd5b506103c06004803603606081101561027c57600080fd5b8101908080359060200190929190803590602001906401000000008111156102a357600080fd5b8201836020820111156102b557600080fd5b803590602001918460018302840111640100000000831117156102d757600080fd5b91908080601f016020809104026020016040519081016040528093929190818152602001838380828437600081840152601f19601f8201169050808301925050505050505091929192908035906020019064010000000081111561033a57600080fd5b82018360208201111561034c57600080fd5b8035906020019184600183028401116401000000008311171561036e57600080fd5b91908080601f016020809104026020016040519081016040528093929190818152602001838380828437600081840152601f19601f82011690508083019250505050505050919291929050505061086b565b005b6103ca610a24565b6040518082815260200191505060405180910390f35b6103e8610aab565b005b6103f2610c5f565b6040518082815260200191505060405180910390f35b61041061107a565b6040518082815260200191505060405180910390f35b34801561043257600080fd5b5061043b61117e565b604051808273ffffffffffffffffffffffffffffffffffffffff1673ffffffffffffffffffffffffffffffffffffffff16815260200191505060405180910390f35b60008060009054906101000a900473ffffffffffffffffffffffffffffffffffffffff1673ffffffffffffffffffffffffffffffffffffffff163373ffffffffffffffffffffffffffffffffffffffff16146104d857600080fd5b3073ffffffffffffffffffffffffffffffffffffffff1631821115610548576040517f08c379a00000000000000000000000000000000000000000000000000000000081526004018080602001828103825260278152602001806139d76027913960400191505060405180910390fd5b813073ffffffffffffffffffffffffffffffffffffffff1631036006819055503373ffffffffffffffffffffffffffffffffffffffff166108fc839081150290604051600060405180830381858888f193505050501580156105ae573d6000803e3d6000fd5b507f7b69a3f83ed37f0277c8f1c570ca1f7e8bdf5e23b6a371f8d21b0266b7e280dc826040518082815260200191505060405180910390a1819050919050565b60003073ffffffffffffffffffffffffffffffffffffffff1631905090565b61064c828260006040519080825280601f01601f1916602001820160405280156106465781602001600182028038833980820191505090505b5061086b565b5050565b6000806000806000806000339050600760008273ffffffffffffffffffffffffffffffffffffffff1673ffffffffffffffffffffffffffffffffffffffff16815260200190815260200160002060040154600760008373ffffffffffffffffffffffffffffffffffffffff1673ffffffffffffffffffffffffffffffffffffffff16815260200190815260200160002060030154600760008473ffffffffffffffffffffffffffffffffffffffff1673ffffffffffffffffffffffffffffffffffffffff16815260200190815260200160002060050154600760008573ffffffffffffffffffffffffffffffffffffffff1673ffffffffffffffffffffffffffffffffffffffff16815260200190815260200160002060060154600760008673ffffffffffffffffffffffffffffffffffffffff1673ffffffffffffffffffffffffffffffffffffffff16815260200190815260200160002060070154600760008773ffffffffffffffffffffffffffffffffffffffff1673ffffffffffffffffffffffffffffffffffffffff1681526020019081526020016000206008015496509650965096509650965050909192939495565b6000803390506000801b600760008373ffffffffffffffffffffffffffffffffffffffff1673ffffffffffffffffffffffffffffffffffffffff168152602001908152602001600020600101541415610862576000915050610868565b60019150505b90565b6108736111a3565b73ffffffffffffffffffffffffffffffffffffffff163373ffffffffffffffffffffffffffffffffffffffff16146108aa57600080fd5b60006008600085815260200190815260200160002060009054906101000a900473ffffffffffffffffffffffffffffffffffffffff1690506108ed8160006114c3565b7fe80e89978b593ab4072e6ca63de1dcd5e2e982a30ed2c2e68b056a496237ed4a6040518080602001828103825260178152602001807f517565727920726573706f6e736520726563656976656400000000000000000081525060200191505060405180910390a160006002846040516020018082805190602001908083835b60208310610990578051825260208201915060208101905060208303925061096d565b6001836020036101000a0380198251168184511680821785525050505050509050019150506040516020818303038152906040528051906020012060001c816109d557fe5b0690506109e6826000801b8361150e565b7fc13d60fe9dffdb6908d2d446cd18134373a51db0738ee04f296eeb9128121cbc816040518082815260200191505060405180910390a15050505050565b60008060009054906101000a900473ffffffffffffffffffffffffffffffffffffffff1673ffffffffffffffffffffffffffffffffffffffff163373ffffffffffffffffffffffffffffffffffffffff1614610a7f57600080fd5b6000343073ffffffffffffffffffffffffffffffffffffffff1631019050806006819055508091505090565b600034905060003390507fbd084f378aa981dc0c073e8919d9c673b9650a92252f0d0fef72a951fe34a7f7826040518082815260200191505060405180910390a13073ffffffffffffffffffffffffffffffffffffffff1631341115610b79576040517f08c379a000000000000000000000000000000000000000000000000000000000815260040180806020018281038252601d8152602001807f496e73756666696369656e7420636f6e74726163742062616c616e636500000081525060200191505060405180910390fd5b6000801b600760008373ffffffffffffffffffffffffffffffffffffffff1673ffffffffffffffffffffffffffffffffffffffff1681526020019081526020016000206001015414610c33576040517f08c379a00000000000000000000000000000000000000000000000000000000081526004018080602001828103825260168152602001807f43757272656e7420726573756c742070656e64696e670000000000000000000081525060200191505060405180910390fd5b610c3b61165b565b15610c4957610c486116c0565b5b610c538183611809565b610c5b611854565b5050565b6000806000803390506000801b600760008373ffffffffffffffffffffffffffffffffffffffff1673ffffffffffffffffffffffffffffffffffffffff1681526020019081526020016000206001015414610d22576040517f08c379a000000000000000000000000000000000000000000000000000000000815260040180806020018281038252601e8152602001807f4e6f207061796f75742c207175657279207374696c6c2070656e64696e67000081525060200191505060405180910390fd5b6000600760008373ffffffffffffffffffffffffffffffffffffffff1673ffffffffffffffffffffffffffffffffffffffff1681526020019081526020016000206002015490507f15a5ee7679db7f4ed3d927d0d4272e28f603ea24efb99f628384d9a7e1c7437360405180806020018281038252601c8152602001807f5061796f757420696e69746961746564207769746820726573756c740000000081525060200191505060405180910390a17fed6ad2f84ff9379c0261f2ba89850d87d385f1f35c6d1254dd6b54f946a0567e816040518082815260200191505060405180910390a16000811415610e805760009250600760008373ffffffffffffffffffffffffffffffffffffffff1673ffffffffffffffffffffffffffffffffffffffff168152602001908152602001600020600301543073ffffffffffffffffffffffffffffffffffffffff1631016006819055506000935061101c565b6001811415610fcf5760019250600760008373ffffffffffffffffffffffffffffffffffffffff1673ffffffffffffffffffffffffffffffffffffffff168152602001908152602001600020600301546002029350600760008373ffffffffffffffffffffffffffffffffffffffff1673ffffffffffffffffffffffffffffffffffffffff168152602001908152602001600020600301543073ffffffffffffffffffffffffffffffffffffffff1631036006819055506000600760008473ffffffffffffffffffffffffffffffffffffffff1673ffffffffffffffffffffffffffffffffffffffff168152602001908152602001600020600901541415610fca578173ffffffffffffffffffffffffffffffffffffffff166108fc859081150290604051600060405180830381858888f19350505050158015610fc8573d6000803e3d6000fd5b505b61101b565b7fd62c4431442a1e9b9872b398bb104c4e56bffa7ec85d0a8d7723320c78dc198360405180806020018281038252602d8152602001806139fe602d913960400191505060405180910390a15b5b61102683856118f1565b6110318260016114c3565b7fd68951acaf929d326631a5e35cb48f783ecddfd2cf58ddfe59b5b2ac35e3b2918185604051808381526020018281526020019250505060405180910390a18394505050505090565b60008060009054906101000a900473ffffffffffffffffffffffffffffffffffffffff1673ffffffffffffffffffffffffffffffffffffffff163373ffffffffffffffffffffffffffffffffffffffff16146110d557600080fd5b60003073ffffffffffffffffffffffffffffffffffffffff1631905060006006819055503373ffffffffffffffffffffffffffffffffffffffff166108fc829081150290604051600060405180830381858888f1935050505015801561113f573d6000803e3d6000fd5b507f7b69a3f83ed37f0277c8f1c570ca1f7e8bdf5e23b6a371f8d21b0266b7e280dc816040518082815260200191505060405180910390a18091505090565b6000809054906101000a900473ffffffffffffffffffffffffffffffffffffffff1681565b60008073ffffffffffffffffffffffffffffffffffffffff16600260009054906101000a900473ffffffffffffffffffffffffffffffffffffffff1673ffffffffffffffffffffffffffffffffffffffff16148061122b57506000611229600260009054906101000a900473ffffffffffffffffffffffffffffffffffffffff16611c1b565b145b1561123c5761123a6000611c26565b505b600260009054906101000a900473ffffffffffffffffffffffffffffffffffffffff1673ffffffffffffffffffffffffffffffffffffffff166338cc48316040518163ffffffff1660e01b8152600401602060405180830381600087803b1580156112a657600080fd5b505af11580156112ba573d6000803e3d6000fd5b505050506040513d60208110156112d057600080fd5b810190808051906020019092919050505073ffffffffffffffffffffffffffffffffffffffff16600160009054906101000a900473ffffffffffffffffffffffffffffffffffffffff1673ffffffffffffffffffffffffffffffffffffffff161461141b57600260009054906101000a900473ffffffffffffffffffffffffffffffffffffffff1673ffffffffffffffffffffffffffffffffffffffff166338cc48316040518163ffffffff1660e01b8152600401602060405180830381600087803b15801561139f57600080fd5b505af11580156113b3573d6000803e3d6000fd5b505050506040513d60208110156113c957600080fd5b8101908080519060200190929190505050600160006101000a81548173ffffffffffffffffffffffffffffffffffffffff021916908373ffffffffffffffffffffffffffffffffffffffff1602179055505b600160009054906101000a900473ffffffffffffffffffffffffffffffffffffffff1673ffffffffffffffffffffffffffffffffffffffff1663c281d19e6040518163ffffffff1660e01b815260040160206040518083038186803b15801561148357600080fd5b505afa158015611497573d6000803e3d6000fd5b505050506040513d60208110156114ad57600080fd5b8101908080519060200190929190505050905090565b80600760008473ffffffffffffffffffffffffffffffffffffffff1673ffffffffffffffffffffffffffffffffffffffff168152602001908152602001600020600901819055505050565b826008600084815260200190815260200160002060006101000a81548173ffffffffffffffffffffffffffffffffffffffff021916908373ffffffffffffffffffffffffffffffffffffffff16021790555081600760008573ffffffffffffffffffffffffffffffffffffffff1673ffffffffffffffffffffffffffffffffffffffff1681526020019081526020016000206001018190555080600760008573ffffffffffffffffffffffffffffffffffffffff1673ffffffffffffffffffffffffffffffffffffffff168152602001908152602001600020600201819055507fb3a497502c339b7c91a10dcf9aef53509ee253bbe392f047ee3eef859cede28e6040518080602001828103825260148152602001807f506c61796572207175657279207570646174656400000000000000000000000081525060200191505060405180910390a1505050565b6000803390506000600760008373ffffffffffffffffffffffffffffffffffffffff1673ffffffffffffffffffffffffffffffffffffffff16815260200190815260200160002060000154146116b457600091506116b9565b600191505b8191505090565b6116c861386e565b60018160000181815250506000801b8160200181815250506063816040018181525050600081606001818152505060008160a001818152505060008160c001818152505060008160e001818152505060008161010001818152505060018161012001818152505061173881611c37565b60093390806001815401808255809150509060018203906000526020600020016000909192909190916101000a81548173ffffffffffffffffffffffffffffffffffffffff021916908373ffffffffffffffffffffffffffffffffffffffff160217905550507f3a3a2024ad24695510ed865ae6c90c126dd5ea7173c8dd02f2dc75e13c2b6ab16040518080602001828103825260128152602001807f4e657720506c617965722063726561746564000000000000000000000000000081525060200191505060405180910390a150565b80600760008473ffffffffffffffffffffffffffffffffffffffff1673ffffffffffffffffffffffffffffffffffffffff168152602001908152602001600020600301819055505050565b600033905060008090506000621e84809050600061187483600184611ce9565b90506118828482606461150e565b3073ffffffffffffffffffffffffffffffffffffffff16316006819055507f94f2559b5e2b297de3db1587daf2352e872ada3dad01dab9ee3733592fa22ed360405180806020018281038252602c8152602001806139ab602c913960400191505060405180910390a150505050565b600033905082600760008373ffffffffffffffffffffffffffffffffffffffff1673ffffffffffffffffffffffffffffffffffffffff1681526020019081526020016000206004018190555081600760008373ffffffffffffffffffffffffffffffffffffffff1673ffffffffffffffffffffffffffffffffffffffff1681526020019081526020016000206005018190555082600760008373ffffffffffffffffffffffffffffffffffffffff1673ffffffffffffffffffffffffffffffffffffffff168152602001908152602001600020600601600082825401925050819055506001600760008373ffffffffffffffffffffffffffffffffffffffff1673ffffffffffffffffffffffffffffffffffffffff1681526020019081526020016000206007016000828254019250508190555081600760008373ffffffffffffffffffffffffffffffffffffffff1673ffffffffffffffffffffffffffffffffffffffff168152602001908152602001600020600801600082825401925050819055507f0d78e9af98d447f99fdeb1cb6c3d05b5414b1dc699bff636ae63523d3f28ce4a600760008373ffffffffffffffffffffffffffffffffffffffff1673ffffffffffffffffffffffffffffffffffffffff16815260200190815260200160002060040154600760008473ffffffffffffffffffffffffffffffffffffffff1673ffffffffffffffffffffffffffffffffffffffff16815260200190815260200160002060050154600760008573ffffffffffffffffffffffffffffffffffffffff1673ffffffffffffffffffffffffffffffffffffffff16815260200190815260200160002060060154600760008673ffffffffffffffffffffffffffffffffffffffff1673ffffffffffffffffffffffffffffffffffffffff16815260200190815260200160002060070154600760008773ffffffffffffffffffffffffffffffffffffffff1673ffffffffffffffffffffffffffffffffffffffff16815260200190815260200160002060080154604051808681526020018581526020018481526020018381526020018281526020019550505050505060405180910390a1505050565b6000813b9050919050565b6000611c30612284565b9050919050565b600033905081600760008373ffffffffffffffffffffffffffffffffffffffff1673ffffffffffffffffffffffffffffffffffffffff168152602001908152602001600020600082015181600001556020820151816001015560408201518160020155606082015181600301556080820151816004015560a0820151816005015560c0820151816006015560e08201518160070155610100820151816008015561012082015181600901559050505050565b60008083118015611cfb575060208311155b611d0457600080fd5b600a84029350606060016040519080825280601f01601f191660200182016040528015611d405781602001600182028038833980820191505090505b5090508360f81b81600081518110611d5457fe5b60200101907effffffffffffffffffffffffffffffffffffffffffffffffffffffffffffff1916908160001a905350606060206040519080825280601f01601f191660200182016040528015611db95781602001600182028038833980820191505090505b509050606060206040519080825280601f01601f191660200182016040528015611df25781602001600182028038833980820191505090505b5090506000611dff6127db565b905060208352424118600143034018602084015260208252806020830152606060206040519080825280601f01601f191660200182016040528015611e535781602001600182028038833980820191505090505b509050886020820152606060086040519080825280601f01601f191660200182016040528015611e925781602001600182028038833980820191505090505b509050611ea58260186008846000612afb565b50611eae6138c4565b60405180608001604052808781526020018881526020018681526020018481525090506000611f136040518060400160405280600681526020017f72616e646f6d0000000000000000000000000000000000000000000000000000815250838c612b5a565b9050606060086040519080825280601f01601f191660200182016040528015611f4b5781602001600182028038833980820191505090505b50905060208401517f0100000000000000000000000000000000000000000000000000000000000000810460278301537e01000000000000000000000000000000000000000000000000000000000000810460268301537d010000000000000000000000000000000000000000000000000000000000810460258301537c0100000000000000000000000000000000000000000000000000000000810460248301537b01000000000000000000000000000000000000000000000000000000810460238301537a01000000000000000000000000000000000000000000000000000081046022830153790100000000000000000000000000000000000000000000000000810460218301537801000000000000000000000000000000000000000000000000810460208301535061227182828560016004811061208a57fe5b602002015160028760006004811061209e57fe5b60200201516040518082805190602001908083835b602083106120d657805182526020820191506020810190506020830392506120b3565b6001836020036101000a038019825116818451168082178552505050505050905001915050602060405180830381855afa158015612118573d6000803e3d6000fd5b5050506040513d602081101561212d57600080fd5b81019080805190602001909291905050508760026004811061214b57fe5b60200201516040516020018085805190602001908083835b602083106121865780518252602082019150602081019050602083039250612163565b6001836020036101000a03801982511681845116808217855250505050505090500184805190602001908083835b602083106121d757805182526020820191506020810190506020830392506121b4565b6001836020036101000a03801982511681845116808217855250505050505090500183815260200182805190602001908083835b6020831061222e578051825260208201915060208101905060208303925061220b565b6001836020036101000a03801982511681845116808217855250505050505090500194505050505060405160208183030381529060405280519060200120612ec9565b8199505050505050505050509392505050565b6000806122a4731d3b2638a7cc9f2cb3d298a3da7a90b67e5506ed611c1b565b111561234657731d3b2638a7cc9f2cb3d298a3da7a90b67e5506ed600260006101000a81548173ffffffffffffffffffffffffffffffffffffffff021916908373ffffffffffffffffffffffffffffffffffffffff16021790555061233d6040518060400160405280600b81526020017f6574685f6d61696e6e6574000000000000000000000000000000000000000000815250612ee5565b600190506127d8565b600061236573c03a2615d5efaf5f49f60b7bb6583eaec212fdf1611c1b565b11156124075773c03a2615d5efaf5f49f60b7bb6583eaec212fdf1600260006101000a81548173ffffffffffffffffffffffffffffffffffffffff021916908373ffffffffffffffffffffffffffffffffffffffff1602179055506123fe6040518060400160405280600c81526020017f6574685f726f707374656e330000000000000000000000000000000000000000815250612ee5565b600190506127d8565b600061242673b7a07bcf2ba2f2703b24c0691b5278999c59ac7e611c1b565b11156124c85773b7a07bcf2ba2f2703b24c0691b5278999c59ac7e600260006101000a81548173ffffffffffffffffffffffffffffffffffffffff021916908373ffffffffffffffffffffffffffffffffffffffff1602179055506124bf6040518060400160405280600981526020017f6574685f6b6f76616e0000000000000000000000000000000000000000000000815250612ee5565b600190506127d8565b60006124e773146500cfd35b22e4a392fe0adc06de1a1368ed48611c1b565b11156125895773146500cfd35b22e4a392fe0adc06de1a1368ed48600260006101000a81548173ffffffffffffffffffffffffffffffffffffffff021916908373ffffffffffffffffffffffffffffffffffffffff1602179055506125806040518060400160405280600b81526020017f6574685f72696e6b656279000000000000000000000000000000000000000000815250612ee5565b600190506127d8565b60006125a873a2998efd205fb9d4b4963afb70778d6354ad3a41611c1b565b111561264a5773a2998efd205fb9d4b4963afb70778d6354ad3a41600260006101000a81548173ffffffffffffffffffffffffffffffffffffffff021916908373ffffffffffffffffffffffffffffffffffffffff1602179055506126416040518060400160405280600a81526020017f6574685f676f65726c6900000000000000000000000000000000000000000000815250612ee5565b600190506127d8565b6000612669736f485c8bf6fc43ea212e93bbf8ce046c7f1cb475611c1b565b11156126cd57736f485c8bf6fc43ea212e93bbf8ce046c7f1cb475600260006101000a81548173ffffffffffffffffffffffffffffffffffffffff021916908373ffffffffffffffffffffffffffffffffffffffff160217905550600190506127d8565b60006126ec7320e12a1f859b3feae5fb2a0a32c18f5a65555bbf611c1b565b1115612750577320e12a1f859b3feae5fb2a0a32c18f5a65555bbf600260006101000a81548173ffffffffffffffffffffffffffffffffffffffff021916908373ffffffffffffffffffffffffffffffffffffffff160217905550600190506127d8565b600061276f7351efaf4c8b3c9afbd5ab9f4bbc82784ab6ef8faa611c1b565b11156127d3577351efaf4c8b3c9afbd5ab9f4bbc82784ab6ef8faa600260006101000a81548173ffffffffffffffffffffffffffffffffffffffff021916908373ffffffffffffffffffffffffffffffffffffffff160217905550600190506127d8565b600090505b90565b60008073ffffffffffffffffffffffffffffffffffffffff16600260009054906101000a900473ffffffffffffffffffffffffffffffffffffffff1673ffffffffffffffffffffffffffffffffffffffff16148061286357506000612861600260009054906101000a900473ffffffffffffffffffffffffffffffffffffffff16611c1b565b145b15612874576128726000611c26565b505b600260009054906101000a900473ffffffffffffffffffffffffffffffffffffffff1673ffffffffffffffffffffffffffffffffffffffff166338cc48316040518163ffffffff1660e01b8152600401602060405180830381600087803b1580156128de57600080fd5b505af11580156128f2573d6000803e3d6000fd5b505050506040513d602081101561290857600080fd5b810190808051906020019092919050505073ffffffffffffffffffffffffffffffffffffffff16600160009054906101000a900473ffffffffffffffffffffffffffffffffffffffff1673ffffffffffffffffffffffffffffffffffffffff1614612a5357600260009054906101000a900473ffffffffffffffffffffffffffffffffffffffff1673ffffffffffffffffffffffffffffffffffffffff166338cc48316040518163ffffffff1660e01b8152600401602060405180830381600087803b1580156129d757600080fd5b505af11580156129eb573d6000803e3d6000fd5b505050506040513d6020811015612a0157600080fd5b8101908080519060200190929190505050600160006101000a81548173ffffffffffffffffffffffffffffffffffffffff021916908373ffffffffffffffffffffffffffffffffffffffff1602179055505b600160009054906101000a900473ffffffffffffffffffffffffffffffffffffffff1673ffffffffffffffffffffffffffffffffffffffff1663abaa5f3e6040518163ffffffff1660e01b815260040160206040518083038186803b158015612abb57600080fd5b505afa158015612acf573d6000803e3d6000fd5b505050506040513d6020811015612ae557600080fd5b8101908080519060200190929190505050905090565b6060600082850190508084511015612b1257600080fd5b600086602001905060008460200190505b868860200101821015612b4b5781890151808288015250602082019150602081019050612b23565b85935050505095945050505050565b60008073ffffffffffffffffffffffffffffffffffffffff16600260009054906101000a900473ffffffffffffffffffffffffffffffffffffffff1673ffffffffffffffffffffffffffffffffffffffff161480612be257506000612be0600260009054906101000a900473ffffffffffffffffffffffffffffffffffffffff16611c1b565b145b15612bf357612bf16000611c26565b505b600260009054906101000a900473ffffffffffffffffffffffffffffffffffffffff1673ffffffffffffffffffffffffffffffffffffffff166338cc48316040518163ffffffff1660e01b8152600401602060405180830381600087803b158015612c5d57600080fd5b505af1158015612c71573d6000803e3d6000fd5b505050506040513d6020811015612c8757600080fd5b810190808051906020019092919050505073ffffffffffffffffffffffffffffffffffffffff16600160009054906101000a900473ffffffffffffffffffffffffffffffffffffffff1673ffffffffffffffffffffffffffffffffffffffff1614612dd257600260009054906101000a900473ffffffffffffffffffffffffffffffffffffffff1673ffffffffffffffffffffffffffffffffffffffff166338cc48316040518163ffffffff1660e01b8152600401602060405180830381600087803b158015612d5657600080fd5b505af1158015612d6a573d6000803e3d6000fd5b505050506040513d6020811015612d8057600080fd5b8101908080519060200190929190505050600160006101000a81548173ffffffffffffffffffffffffffffffffffffffff021916908373ffffffffffffffffffffffffffffffffffffffff1602179055505b60606004604051908082528060200260200182016040528015612e0957816020015b6060815260200190600190039081612df45790505b50905083600060048110612e1957fe5b602002015181600081518110612e2b57fe5b602002602001018190525083600160048110612e4357fe5b602002015181600181518110612e5557fe5b602002602001018190525083600260048110612e6d57fe5b602002015181600281518110612e7f57fe5b602002602001018190525083600360048110612e9757fe5b602002015181600381518110612ea957fe5b6020026020010181905250612ebf858285612eff565b9150509392505050565b8060046000848152602001908152602001600020819055505050565b8060039080519060200190612efb9291906138eb565b5050565b60008073ffffffffffffffffffffffffffffffffffffffff16600260009054906101000a900473ffffffffffffffffffffffffffffffffffffffff1673ffffffffffffffffffffffffffffffffffffffff161480612f8757506000612f85600260009054906101000a900473ffffffffffffffffffffffffffffffffffffffff16611c1b565b145b15612f9857612f966000611c26565b505b600260009054906101000a900473ffffffffffffffffffffffffffffffffffffffff1673ffffffffffffffffffffffffffffffffffffffff166338cc48316040518163ffffffff1660e01b8152600401602060405180830381600087803b15801561300257600080fd5b505af1158015613016573d6000803e3d6000fd5b505050506040513d602081101561302c57600080fd5b810190808051906020019092919050505073ffffffffffffffffffffffffffffffffffffffff16600160009054906101000a900473ffffffffffffffffffffffffffffffffffffffff1673ffffffffffffffffffffffffffffffffffffffff161461317757600260009054906101000a900473ffffffffffffffffffffffffffffffffffffffff1673ffffffffffffffffffffffffffffffffffffffff166338cc48316040518163ffffffff1660e01b8152600401602060405180830381600087803b1580156130fb57600080fd5b505af115801561310f573d6000803e3d6000fd5b505050506040513d602081101561312557600080fd5b8101908080519060200190929190505050600160006101000a81548173ffffffffffffffffffffffffffffffffffffffff021916908373ffffffffffffffffffffffffffffffffffffffff1602179055505b6000600160009054906101000a900473ffffffffffffffffffffffffffffffffffffffff1673ffffffffffffffffffffffffffffffffffffffff16632ef3accc86856040518363ffffffff1660e01b81526004018080602001838152602001828103825284818151815260200191508051906020019080838360005b8381101561320e5780820151818401526020810190506131f3565b50505050905090810190601f16801561323b5780820380516001836020036101000a031916815260200191505b509350505050602060405180830381600087803b15801561325b57600080fd5b505af115801561326f573d6000803e3d6000fd5b505050506040513d602081101561328557600080fd5b81019080805190602001909291905050509050823a02670de0b6b3a7640000018111156132b8576000801b91505061345e565b60606132c385613465565b9050600160009054906101000a900473ffffffffffffffffffffffffffffffffffffffff1673ffffffffffffffffffffffffffffffffffffffff1663c55c1cb68360008985896040518663ffffffff1660e01b8152600401808581526020018060200180602001848152602001838103835286818151815260200191508051906020019080838360005b8381101561336857808201518184015260208101905061334d565b50505050905090810190601f1680156133955780820380516001836020036101000a031916815260200191505b50838103825285818151815260200191508051906020019080838360005b838110156133ce5780820151818401526020810190506133b3565b50505050905090810190601f1680156133fb5780820380516001836020036101000a031916815260200191505b5096505050505050506020604051808303818588803b15801561341d57600080fd5b505af1158015613431573d6000803e3d6000fd5b50505050506040513d602081101561344857600080fd5b8101908080519060200190929190505050925050505b9392505050565b606061346f6134e5565b61347761396b565b613483816104006134f1565b61348c8161353b565b60008090505b83518110156134ce576134c18482815181106134aa57fe5b60200260200101518361354990919063ffffffff16565b8080600101915050613492565b506134d88161356e565b8060000151915050919050565b60405180590338823950565b600081905060006020828161350257fe5b061461351b576020818161351257fe5b06602003810190505b808360200181815250506040518084526000815281810160405250505050565b61354681600461357c565b50565b613556826002835161359d565b61356981836136dd90919063ffffffff16565b505050565b61357981600761357c565b50565b613599601f60058360ff16901b178361378890919063ffffffff16565b5050565b601781116135c9576135c48160058460ff16901b60ff16178461378890919063ffffffff16565b6136d8565b60ff811161360a576135ee601860058460ff16901b178461378890919063ffffffff16565b613604816001856137c89092919063ffffffff16565b506136d7565b61ffff811161364c57613630601960058460ff16901b178461378890919063ffffffff16565b613646816002856137c89092919063ffffffff16565b506136d6565b63ffffffff811161369057613674601a60058460ff16901b178461378890919063ffffffff16565b61368a816004856137c89092919063ffffffff16565b506136d5565b67ffffffffffffffff81116136d4576136bc601b60058460ff16901b178461378890919063ffffffff16565b6136d2816008856137c89092919063ffffffff16565b505b5b5b5b5b505050565b6136e561396b565b826020015183600001515183510111156137155761371483600261370e8660200151865161382f565b0261384b565b5b60008060008451905085518051602081830101945086518101825260208701935050505b6020811061375c5781518352602083019250602082019150602081039050613739565b60006001826020036101000a039050801983511681855116818117865250508694505050505092915050565b816020015160018360000151510111156137ae576137ad82600284602001510261384b565b5b815180516020818301018381536001820183525050505050565b6137d061396b565b8360200151846000015151830111156137fe576137fd8460026137f787602001518661382f565b0261384b565b5b60006001836101000a0390508451805184818301018684198251161781528582018352505050849150509392505050565b60008183111561384157829050613845565b8190505b92915050565b60608260000151905061385e83836134f1565b61386883826136dd565b50505050565b604051806101400160405280600081526020016000801916815260200160008152602001600081526020016000815260200160008152602001600081526020016000815260200160008152602001600081525090565b60405180608001604052806004905b60608152602001906001900390816138d35790505090565b828054600181600116156101000203166002900490600052602060002090601f016020900481019282601f1061392c57805160ff191683800117855561395a565b8280016001018555821561395a579182015b8281111561395957825182559160200191906001019061393e565b5b5090506139679190613985565b5090565b604051806040016040528060608152602001600081525090565b6139a791905b808211156139a357600081600090555060010161398b565b5090565b9056fe50726f7661626c652071756572792073656e742c2077616974696e6720666f7220726573706f6e73652e2e2e52657175657374656420616d6f756e74206578656564732063757272656e742062616c616e636552616e646f6d204e756d626572206e6f742075706461746564202d20524553554c54204e4f542031204f522030a265627a7a72315820479639ab876a366bc8918cf97e58c53c01dbc541a348ac18222b79d3017db84b64736f6c634300050c0032",
  "source": "import \"./Ownable.sol\";\r\nimport \"./provableAPI.sol\";\r\npragma solidity 0.5.12;\r\n\r\ncontract Coinflip is Ownable, usingProvable{\r\n\r\n  struct Player{\r\n    uint id;\r\n    bytes32 queryId;\r\n    uint lastRandomNumber;\r\n    uint lastBetValue;\r\n    uint lastResult;\r\n    uint lastWin;\r\n    uint totalWin;\r\n    uint totalPlay;\r\n    uint totalWon;\r\n    uint lastWinPayed;\r\n  }\r\n\r\n  event coinflipResult(uint result, uint winnings);\r\n  event uncoughtException(string message);\r\n  event hasBeenWithdrawn(uint toTransfer);\r\n  event playerCreated(string message);\r\n  event playerUpdated(uint lastResult, uint lastWin, uint totalWin, uint totalPlay, uint totalWon);\r\n  event playerQueryUpdate(string message);\r\n  event generatedRandomNumber(uint randomNumber);\r\n  event logNewProvableQuery(string message);\r\n  event logNewQueryResponse(string message);\r\n  event newPayoutInitiated(string message);\r\n  event showResult(uint res);\r\n  event currentBetValue(uint value);\r\n\r\n  uint private balance;\r\n  mapping (address => Player) private player;\r\n  mapping (bytes32 => address) private queries;\r\n  address[] private players;\r\n  uint constant NUM_RANDOM_BYTES_REQUESTED = 1;\r\n\r\n  function createPlayer() private{\r\n    Player memory newPlayer;\r\n    newPlayer.id = 1;\r\n    newPlayer.queryId = 0;\r\n    newPlayer.lastRandomNumber = 99;\r\n    newPlayer.lastBetValue = 0;\r\n    newPlayer.lastWin = 0;\r\n    newPlayer.totalWin = 0;\r\n    newPlayer.totalPlay = 0;\r\n    newPlayer.totalWon = 0;\r\n    newPlayer.lastWinPayed = 1;\r\n\r\n    insertPlayer(newPlayer);\r\n    players.push(msg.sender);\r\n\r\n    emit playerCreated(\"New Player created\");\r\n  }\r\n\r\n  function insertPlayer(Player memory _newPlayer) private{\r\n    address creator = msg.sender;\r\n    player[creator] = _newPlayer;\r\n  }\r\n\r\n  function getPlayer() public view returns(uint lastResult, uint lastBetValue, uint lastWin, uint totalWin, uint totalPlay, uint totalWon){\r\n    address creator = msg.sender;\r\n    return (player[creator].lastResult, player[creator].lastBetValue, player[creator].lastWin, player[creator].totalWin, player[creator].totalPlay, player[creator].totalWon);\r\n  }\r\n\r\n  function updatePlayer(uint _lastResult, uint _lastWin) private {\r\n    address _creator = msg.sender;\r\n    player[_creator].lastResult = _lastResult;\r\n    player[_creator].lastWin = _lastWin;\r\n    player[_creator].totalWin += _lastResult;\r\n    player[_creator].totalPlay += 1;\r\n    player[_creator].totalWon += _lastWin;\r\n    emit playerUpdated(player[_creator].lastResult, player[_creator].lastWin, player[_creator].totalWin, player[_creator].totalPlay, player[_creator].totalWon);\r\n  }\r\n\r\n  function updatePlayerPayout(address _creator, uint _lastWinPayed) private{\r\n    player[_creator].lastWinPayed = _lastWinPayed;\r\n  }\r\n\r\n  function updatePlayerQuery(address _creator, bytes32 _queryId, uint _randomNumber) private {\r\n    queries[_queryId] = _creator;\r\n    player[_creator].queryId = _queryId;\r\n    player[_creator].lastRandomNumber = _randomNumber;\r\n    emit playerQueryUpdate(\"Player query updated\");\r\n  }\r\n\r\n  function updateBetValue(address _creator, uint _betValue) private{\r\n    player[_creator].lastBetValue = _betValue;\r\n  }\r\n\r\n\r\n  function playerNotExists() private view returns (bool exists){\r\n    address creator = msg.sender;\r\n    if (player[creator].id != 0){\r\n      exists = false;\r\n    }\r\n    else{\r\n      exists = true;\r\n    }\r\n    return exists;\r\n  }\r\n\r\n  /*function random() private view returns(uint result){\r\n    uint res = block.timestamp % 2;\r\n    return res;\r\n  }*/\r\n\r\n  function __callback(bytes32 _queryId, string memory _result, bytes memory _proof) public {\r\n    require(msg.sender == provable_cbAddress());\r\n    address creator = queries[_queryId];\r\n    updatePlayerPayout(creator, 0);\r\n\r\n    emit logNewQueryResponse(\"Query response received\");\r\n\r\n    uint randomNumber = uint(keccak256(abi.encodePacked(_result))) % 2;\r\n    updatePlayerQuery(creator, 0, randomNumber);\r\n    emit generatedRandomNumber(randomNumber);\r\n  }\r\n\r\n  function oracleRandom() private {\r\n    address creator = msg.sender;\r\n    uint QUERY_EXECUTION_DELAY = 0;\r\n    uint GAS_FOR_CALLBACK = 2000000;\r\n    bytes32 queryId = provable_newRandomDSQuery( QUERY_EXECUTION_DELAY, NUM_RANDOM_BYTES_REQUESTED, GAS_FOR_CALLBACK);\r\n    updatePlayerQuery(creator, queryId, 100);\r\n    balance = address(this).balance;\r\n    emit logNewProvableQuery(\"Provable query sent, waiting for response...\");\r\n  }\r\n\r\n\r\n  function coinFlip() payable public{\r\n    uint bet_value = msg.value;\r\n    address creator = msg.sender;\r\n    //uint winnings;\r\n    //uint winner;\r\n    emit currentBetValue(bet_value);\r\n    require(msg.value <= address(this).balance, \"Insufficient contract balance\");\r\n    require(player[creator].queryId == 0, \"Current result pending\");\r\n\r\n    if (playerNotExists()){\r\n      createPlayer();\r\n    }\r\n\r\n    updateBetValue(creator, bet_value);\r\n\r\n    oracleRandom();\r\n\r\n    //uint res = random();\r\n    //uint res = block.timestamp % 2;\r\n    /*if(res == 0){\r\n      winner = 0;\r\n      balance = balance + bet_value;\r\n      winnings = 0;\r\n      emit coinflipResult(res, winnings);\r\n    }\r\n    else if(res == 1){\r\n      winner = 1;\r\n      winnings = 2* bet_value;\r\n      balance = balance - bet_value;\r\n      msg.sender.transfer(winnings);\r\n      emit coinflipResult(res, winnings);\r\n    }\r\n    else{\r\n      emit uncoughtException(1);\r\n    }\r\n    updatePlayer(winner, winnings);\r\n    return (winner, winnings);\r\n    */\r\n  }\r\n\r\n  function payout() public payable returns(uint){\r\n    uint winnings;\r\n    uint winner;\r\n    address payable payCreator = msg.sender;\r\n    require(player[payCreator].queryId == 0, \"No payout, query still pending\");\r\n\r\n    uint res = player[payCreator].lastRandomNumber;\r\n    emit newPayoutInitiated(\"Payout initiated with result\");\r\n    emit showResult(res);\r\n\r\n    if(res == 0){\r\n      winner = 0;\r\n      balance = address(this).balance + player[payCreator].lastBetValue;\r\n      winnings = 0;\r\n    }\r\n    else if(res == 1){\r\n      winner = 1;\r\n      winnings = 2* player[payCreator].lastBetValue;\r\n      balance = address(this).balance - player[payCreator].lastBetValue;\r\n      if (player[payCreator].lastWinPayed == 0){\r\n        payCreator.transfer(winnings);\r\n      }\r\n    }\r\n    else{\r\n      emit uncoughtException(\"Random Number not updated - RESULT NOT 1 OR 0\");\r\n    }\r\n    updatePlayer(winner, winnings);\r\n    updatePlayerPayout(payCreator, 1);\r\n    emit coinflipResult(res, winnings);\r\n    return winnings;\r\n  }\r\n\r\n  function depositeBalance() public onlyOwner payable returns(uint) {\r\n      uint newBalance = address(this).balance + msg.value;\r\n      balance = newBalance;\r\n      return newBalance;\r\n  }\r\n\r\n  function withdrawAll() public onlyOwner payable returns(uint) {\r\n      uint toTransfer = address(this).balance;\r\n      balance = 0;\r\n      msg.sender.transfer(toTransfer);\r\n      emit hasBeenWithdrawn(toTransfer);\r\n      return toTransfer;\r\n  }\r\n\r\n  function withdrawAmount(uint _amount) public onlyOwner payable returns(uint) {\r\n      require(_amount <= address(this).balance, \"Requested amount exeeds current balance\");\r\n      balance = address(this).balance - _amount;\r\n      msg.sender.transfer(_amount);\r\n      emit hasBeenWithdrawn(_amount);\r\n      return _amount;\r\n  }\r\n\r\n  function getBalance() public view returns(uint){\r\n    return address(this).balance;\r\n  }\r\n\r\n  function isQueryPending() public view returns(uint){\r\n    address creator = msg.sender;\r\n    if(player[creator].queryId == 0){\r\n      return 0;\r\n    }\r\n    else{\r\n      return 1;\r\n    }\r\n  }\r\n\r\n}\r\n",
  "sourcePath": "D:\\Blockchain_Programming\\Solidity_201\\Coinflip\\contract\\contracts\\coinflip.sol",
  "compiler": {
    "name": "solc",
    "version": "0.5.12+commit.7709ece9.Emscripten.clang"
  },
  "schemaVersion": "3.0.23",
  "updatedAt": "2020-11-15T20:00:55.679Z",
  "networkType": "ethereum",
  "devdoc": {
    "methods": {
      "__callback(bytes32,string)": {
        "details": "The following `__callback` functions are just placeholders ideally     meant to be defined in child contract when proofs are used.     The function bodies simply silence compiler warnings."
      }
    }
  },
  "userdoc": {
    "methods": {}
  }
}