{
  "contractName": "Coinflip",
  "abi": [
    {
      "anonymous": false,
      "inputs": [
        {
          "indexed": false,
          "internalType": "uint256",
          "name": "result",
          "type": "uint256"
        },
        {
          "indexed": false,
          "internalType": "uint256",
          "name": "winnings",
          "type": "uint256"
        }
      ],
      "name": "coinflipResult",
      "type": "event"
    },
    {
      "anonymous": false,
      "inputs": [
        {
          "indexed": false,
          "internalType": "uint256",
          "name": "step",
          "type": "uint256"
        }
      ],
      "name": "uncoughtException",
      "type": "event"
    },
    {
      "constant": true,
      "inputs": [],
      "name": "balance",
      "outputs": [
        {
          "internalType": "uint256",
          "name": "",
          "type": "uint256"
        }
      ],
      "payable": false,
      "stateMutability": "view",
      "type": "function"
    },
    {
      "constant": true,
      "inputs": [],
      "name": "owner",
      "outputs": [
        {
          "internalType": "address",
          "name": "",
          "type": "address"
        }
      ],
      "payable": false,
      "stateMutability": "view",
      "type": "function"
    },
    {
      "constant": false,
      "inputs": [],
      "name": "random",
      "outputs": [
        {
          "internalType": "uint256",
          "name": "",
          "type": "uint256"
        }
      ],
      "payable": false,
      "stateMutability": "nonpayable",
      "type": "function"
    },
    {
      "constant": false,
      "inputs": [],
      "name": "coinFlip",
      "outputs": [
        {
          "internalType": "bool",
          "name": "",
          "type": "bool"
        },
        {
          "internalType": "uint256",
          "name": "",
          "type": "uint256"
        }
      ],
      "payable": true,
      "stateMutability": "payable",
      "type": "function"
    },
    {
      "constant": false,
      "inputs": [],
      "name": "depositeBalance",
      "outputs": [
        {
          "internalType": "uint256",
          "name": "",
          "type": "uint256"
        }
      ],
      "payable": true,
      "stateMutability": "payable",
      "type": "function"
    },
    {
      "constant": false,
      "inputs": [],
      "name": "withdrawAll",
      "outputs": [
        {
          "internalType": "uint256",
          "name": "",
          "type": "uint256"
        }
      ],
      "payable": false,
      "stateMutability": "nonpayable",
      "type": "function"
    },
    {
      "constant": false,
      "inputs": [
        {
          "internalType": "uint256",
          "name": "percentage",
          "type": "uint256"
        }
      ],
      "name": "withdrawPercentage",
      "outputs": [
        {
          "internalType": "uint256",
          "name": "",
          "type": "uint256"
        }
      ],
      "payable": false,
      "stateMutability": "nonpayable",
      "type": "function"
    }
  ],
  "bytecode": "0x6080604052336000806101000a81548173ffffffffffffffffffffffffffffffffffffffff021916908373ffffffffffffffffffffffffffffffffffffffff16021790555061062d806100536000396000f3fe6080604052600436106100705760003560e01c80635ec01e4d1161004e5780635ec01e4d1461010b578063853828b6146101365780638da5cb5b14610161578063b69ef8a8146101b857610070565b806340462b5b146100755780634588c3f9146100935780635ac947cb146100e2575b600080fd5b61007d6101e3565b6040518082815260200191505060405180910390f35b34801561009f57600080fd5b506100cc600480360360208110156100b657600080fd5b8101908080359060200190929190505050610255565b6040518082815260200191505060405180910390f35b6100ea61031b565b60405180831515151581526020018281526020019250505060405180910390f35b34801561011757600080fd5b506101206104fe565b6040518082815260200191505060405180910390f35b34801561014257600080fd5b5061014b610515565b6040518082815260200191505060405180910390f35b34801561016d57600080fd5b506101766105cd565b604051808273ffffffffffffffffffffffffffffffffffffffff1673ffffffffffffffffffffffffffffffffffffffff16815260200191505060405180910390f35b3480156101c457600080fd5b506101cd6105f2565b6040518082815260200191505060405180910390f35b60008060009054906101000a900473ffffffffffffffffffffffffffffffffffffffff1673ffffffffffffffffffffffffffffffffffffffff163373ffffffffffffffffffffffffffffffffffffffff161461023e57600080fd5b600034600154019050806001819055508091505090565b60008060009054906101000a900473ffffffffffffffffffffffffffffffffffffffff1673ffffffffffffffffffffffffffffffffffffffff163373ffffffffffffffffffffffffffffffffffffffff16146102b057600080fd5b6000606483816102bc57fe5b0460015402905060006001819055503373ffffffffffffffffffffffffffffffffffffffff166108fc829081150290604051600060405180830381858888f19350505050158015610311573d6000803e3d6000fd5b5080915050919050565b6000806000349050600080600090506001543411156103a2576040517f08c379a000000000000000000000000000000000000000000000000000000000815260040180806020018281038252601d8152602001807f496e73756666696369656e7420636f6e74726163742062616c616e636500000081525060200191505060405180910390fd5b6000600242816103ae57fe5b069050600081141561040d576000925083600154016001819055507fd68951acaf929d326631a5e35cb48f783ecddfd2cf58ddfe59b5b2ac35e3b2918183604051808381526020018281526020019250505060405180910390a16104f0565b60018114156104b6576001925083600202915083600154036001819055503373ffffffffffffffffffffffffffffffffffffffff166108fc839081150290604051600060405180830381858888f19350505050158015610471573d6000803e3d6000fd5b507fd68951acaf929d326631a5e35cb48f783ecddfd2cf58ddfe59b5b2ac35e3b2918183604051808381526020018281526020019250505060405180910390a16104ef565b7f115e6b4f3671451b71c870703b05cf29979c45dbe4e199c019fa5fe99411380b60016040518082815260200191505060405180910390a15b5b828295509550505050509091565b6000806002428161050b57fe5b0690508091505090565b60008060009054906101000a900473ffffffffffffffffffffffffffffffffffffffff1673ffffffffffffffffffffffffffffffffffffffff163373ffffffffffffffffffffffffffffffffffffffff161461057057600080fd5b6000600154905060006001819055503373ffffffffffffffffffffffffffffffffffffffff166108fc829081150290604051600060405180830381858888f193505050501580156105c5573d6000803e3d6000fd5b508091505090565b6000809054906101000a900473ffffffffffffffffffffffffffffffffffffffff1681565b6001548156fea265627a7a72315820e8539f0768748a05b914978386137241582478a96ce967c5051ab514b634e98c64736f6c634300050c0032",
  "source": "import \"./Ownable.sol\";\r\npragma solidity 0.5.12;\r\n\r\ncontract Coinflip is Ownable{\r\n\r\n  event coinflipResult(uint result, uint winnings);\r\n  event uncoughtException(uint step);\r\n\r\n  uint public balance;\r\n\r\n  function random() public returns (uint) {\r\n    uint res = now % 2;\r\n    //emit coinflipResult(res);\r\n    return res;\r\n  }\r\n\r\n  function coinFlip() public payable returns(bool, uint){\r\n    uint bet_value = msg.value;\r\n    bool winner;\r\n    uint winnings = 0;\r\n    require(msg.value <= balance, \"Insufficient contract balance\");\r\n    uint res = block.timestamp % 2;\r\n    if(res == 0){\r\n      winner = false;\r\n      balance = balance + bet_value;\r\n      emit coinflipResult(res, winnings);\r\n    }\r\n    else if(res == 1){\r\n      winner = true;\r\n      winnings = 2* bet_value;\r\n      balance = balance - bet_value;\r\n      msg.sender.transfer(winnings);\r\n      emit coinflipResult(res, winnings);\r\n    }\r\n    else{\r\n      emit uncoughtException(1);\r\n    }\r\n    return (winner, winnings);\r\n  }\r\n\r\n  function depositeBalance() public onlyOwner payable returns(uint) {\r\n      uint newBalance = balance + msg.value;\r\n      balance = newBalance;\r\n      return newBalance;\r\n  }\r\n\r\n  function withdrawAll() public onlyOwner returns(uint) {\r\n      uint toTransfer = balance;\r\n      balance = 0;\r\n      msg.sender.transfer(toTransfer);\r\n      return toTransfer;\r\n  }\r\n\r\n  function withdrawPercentage(uint percentage) public onlyOwner returns(uint) {\r\n      uint toTransfer = (balance * (percentage/100));\r\n      balance = 0;\r\n      msg.sender.transfer(toTransfer);\r\n      return toTransfer;\r\n  }\r\n}\r\n",
  "sourcePath": "D:\\Blockchain_Programming\\Solidity_201\\Coinflip\\contract\\contracts\\coinflip.sol",
  "compiler": {
    "name": "solc",
    "version": "0.5.12+commit.7709ece9.Emscripten.clang"
  },
  "schemaVersion": "3.0.23",
  "updatedAt": "2020-09-07T18:28:48.708Z",
  "networkType": "ethereum",
  "devdoc": {
    "methods": {}
  },
  "userdoc": {
    "methods": {}
  }
}